{
  "_format": "hh-sol-artifact-1",
  "contractName": "CryptoKeno",
  "sourceName": "contracts/CryptoKeno.sol",
  "abi": [
    {
      "inputs": [
        {
          "internalType": "address",
          "name": "token_",
          "type": "address"
        },
        {
          "internalType": "uint8",
          "name": "maxSpot_",
          "type": "uint8"
        },
        {
          "internalType": "uint256",
          "name": "roundDuration_",
          "type": "uint256"
        },
        {
          "internalType": "uint256",
          "name": "feeBps_",
          "type": "uint256"
        },
        {
          "internalType": "address",
          "name": "feeRecipient_",
          "type": "address"
        },
        {
          "internalType": "uint256",
          "name": "",
          "type": "uint256"
        }
      ],
      "stateMutability": "nonpayable",
      "type": "constructor"
    },
    {
      "inputs": [],
      "name": "AlreadyClaimed",
      "type": "error"
    },
    {
      "inputs": [],
      "name": "ClaimExpired",
      "type": "error"
    },
    {
      "inputs": [],
      "name": "EnforcedPause",
      "type": "error"
    },
    {
      "inputs": [],
      "name": "ExpectedPause",
      "type": "error"
    },
    {
      "inputs": [],
      "name": "InvalidAddonFlags",
      "type": "error"
    },
    {
      "inputs": [],
      "name": "InvalidNumbers",
      "type": "error"
    },
    {
      "inputs": [],
      "name": "InvalidSpotSize",
      "type": "error"
    },
    {
      "inputs": [
        {
          "internalType": "address",
          "name": "owner",
          "type": "address"
        }
      ],
      "name": "OwnableInvalidOwner",
      "type": "error"
    },
    {
      "inputs": [
        {
          "internalType": "address",
          "name": "account",
          "type": "address"
        }
      ],
      "name": "OwnableUnauthorizedAccount",
      "type": "error"
    },
    {
      "inputs": [],
      "name": "RandomnessNotReady",
      "type": "error"
    },
    {
      "inputs": [],
      "name": "ReentrancyGuardReentrantCall",
      "type": "error"
    },
    {
      "inputs": [],
      "name": "RoundAlreadyFinalized",
      "type": "error"
    },
    {
      "inputs": [],
      "name": "RoundNotFinalized",
      "type": "error"
    },
    {
      "inputs": [],
      "name": "RoundNotOpen",
      "type": "error"
    },
    {
      "inputs": [],
      "name": "RoundStillActive",
      "type": "error"
    },
    {
      "inputs": [
        {
          "internalType": "address",
          "name": "token",
          "type": "address"
        }
      ],
      "name": "SafeERC20FailedOperation",
      "type": "error"
    },
    {
      "inputs": [],
      "name": "WagerTooHigh",
      "type": "error"
    },
    {
      "inputs": [],
      "name": "ZeroWeightDistribution",
      "type": "error"
    },
    {
      "anonymous": false,
      "inputs": [
        {
          "indexed": false,
          "internalType": "uint256",
          "name": "multiplierCost",
          "type": "uint256"
        },
        {
          "indexed": false,
          "internalType": "uint256",
          "name": "bullsEyeCost",
          "type": "uint256"
        }
      ],
      "name": "AddonCostsUpdated",
      "type": "event"
    },
    {
      "anonymous": false,
      "inputs": [
        {
          "indexed": true,
          "internalType": "address",
          "name": "player",
          "type": "address"
        },
        {
          "indexed": false,
          "internalType": "bool",
          "name": "enabled",
          "type": "bool"
        }
      ],
      "name": "AutoClaimEnabled",
      "type": "event"
    },
    {
      "anonymous": false,
      "inputs": [
        {
          "indexed": true,
          "internalType": "uint256",
          "name": "roundId",
          "type": "uint256"
        },
        {
          "indexed": true,
          "internalType": "uint256",
          "name": "ticketId",
          "type": "uint256"
        },
        {
          "indexed": true,
          "internalType": "address",
          "name": "player",
          "type": "address"
        },
        {
          "indexed": false,
          "internalType": "uint256",
          "name": "prize",
          "type": "uint256"
        }
      ],
      "name": "AutoClaimProcessed",
      "type": "event"
    },
    {
      "anonymous": false,
      "inputs": [
        {
          "indexed": false,
          "internalType": "uint8",
          "name": "spotSize",
          "type": "uint8"
        },
        {
          "indexed": false,
          "internalType": "uint8",
          "name": "hits",
          "type": "uint8"
        },
        {
          "indexed": false,
          "internalType": "uint256",
          "name": "multiplier",
          "type": "uint256"
        }
      ],
      "name": "BullsEyePaytableUpdated",
      "type": "event"
    },
    {
      "anonymous": false,
      "inputs": [
        {
          "indexed": false,
          "internalType": "uint256",
          "name": "feeBps",
          "type": "uint256"
        },
        {
          "indexed": false,
          "internalType": "address",
          "name": "recipient",
          "type": "address"
        }
      ],
      "name": "FeeUpdated",
      "type": "event"
    },
    {
      "anonymous": false,
      "inputs": [
        {
          "indexed": false,
          "internalType": "uint256",
          "name": "totalWagered",
          "type": "uint256"
        },
        {
          "indexed": false,
          "internalType": "uint256",
          "name": "totalWon",
          "type": "uint256"
        },
        {
          "indexed": false,
          "internalType": "uint256",
          "name": "ticketCount",
          "type": "uint256"
        }
      ],
      "name": "GlobalStatsUpdated",
      "type": "event"
    },
    {
      "anonymous": false,
      "inputs": [
        {
          "indexed": false,
          "internalType": "uint256",
          "name": "maxWagerPerDraw",
          "type": "uint256"
        }
      ],
      "name": "MaxWagerUpdated",
      "type": "event"
    },
    {
      "anonymous": false,
      "inputs": [
        {
          "indexed": false,
          "internalType": "uint256[]",
          "name": "values",
          "type": "uint256[]"
        },
        {
          "indexed": false,
          "internalType": "uint256[]",
          "name": "weights",
          "type": "uint256[]"
        }
      ],
      "name": "MultiplierDistributionUpdated",
      "type": "event"
    },
    {
      "anonymous": false,
      "inputs": [
        {
          "indexed": true,
          "internalType": "address",
          "name": "previousOwner",
          "type": "address"
        },
        {
          "indexed": true,
          "internalType": "address",
          "name": "newOwner",
          "type": "address"
        }
      ],
      "name": "OwnershipTransferred",
      "type": "event"
    },
    {
      "anonymous": false,
      "inputs": [
        {
          "indexed": false,
          "internalType": "address",
          "name": "account",
          "type": "address"
        }
      ],
      "name": "Paused",
      "type": "event"
    },
    {
      "anonymous": false,
      "inputs": [
        {
          "indexed": false,
          "internalType": "uint8",
          "name": "spotSize",
          "type": "uint8"
        },
        {
          "indexed": false,
          "internalType": "uint8",
          "name": "hits",
          "type": "uint8"
        },
        {
          "indexed": false,
          "internalType": "uint256",
          "name": "multiplier",
          "type": "uint256"
        }
      ],
      "name": "PaytableUpdated",
      "type": "event"
    },
    {
      "anonymous": false,
      "inputs": [
        {
          "indexed": true,
          "internalType": "address",
          "name": "player",
          "type": "address"
        },
        {
          "indexed": false,
          "internalType": "uint256",
          "name": "totalWagered",
          "type": "uint256"
        },
        {
          "indexed": false,
          "internalType": "uint256",
          "name": "totalWon",
          "type": "uint256"
        },
        {
          "indexed": false,
          "internalType": "uint256",
          "name": "ticketCount",
          "type": "uint256"
        },
        {
          "indexed": false,
          "internalType": "uint256",
          "name": "winCount",
          "type": "uint256"
        }
      ],
      "name": "PlayerStatsUpdated",
      "type": "event"
    },
    {
      "anonymous": false,
      "inputs": [
        {
          "indexed": true,
          "internalType": "uint256",
          "name": "roundId",
          "type": "uint256"
        },
        {
          "indexed": true,
          "internalType": "uint256",
          "name": "ticketId",
          "type": "uint256"
        },
        {
          "indexed": true,
          "internalType": "address",
          "name": "player",
          "type": "address"
        },
        {
          "indexed": false,
          "internalType": "uint256",
          "name": "basePrize",
          "type": "uint256"
        },
        {
          "indexed": false,
          "internalType": "uint256",
          "name": "bullsEyePrize",
          "type": "uint256"
        },
        {
          "indexed": false,
          "internalType": "uint256",
          "name": "multiplierApplied",
          "type": "uint256"
        },
        {
          "indexed": false,
          "internalType": "uint256",
          "name": "paidPrize",
          "type": "uint256"
        }
      ],
      "name": "PrizeClaimed",
      "type": "event"
    },
    {
      "anonymous": false,
      "inputs": [
        {
          "indexed": true,
          "internalType": "uint256",
          "name": "roundId",
          "type": "uint256"
        },
        {
          "indexed": true,
          "internalType": "uint256",
          "name": "ticketId",
          "type": "uint256"
        },
        {
          "indexed": false,
          "internalType": "uint256",
          "name": "owed",
          "type": "uint256"
        },
        {
          "indexed": false,
          "internalType": "uint256",
          "name": "paid",
          "type": "uint256"
        }
      ],
      "name": "PrizeShortfall",
      "type": "event"
    },
    {
      "anonymous": false,
      "inputs": [
        {
          "indexed": false,
          "internalType": "uint256",
          "name": "baseSeed",
          "type": "uint256"
        },
        {
          "indexed": false,
          "internalType": "uint256",
          "name": "costPerDraw",
          "type": "uint256"
        },
        {
          "indexed": false,
          "internalType": "uint256",
          "name": "feeBps",
          "type": "uint256"
        }
      ],
      "name": "ProgressiveConfigUpdated",
      "type": "event"
    },
    {
      "anonymous": false,
      "inputs": [
        {
          "indexed": false,
          "internalType": "uint256",
          "name": "newAmount",
          "type": "uint256"
        },
        {
          "indexed": false,
          "internalType": "uint256",
          "name": "totalCollected",
          "type": "uint256"
        }
      ],
      "name": "ProgressivePoolUpdated",
      "type": "event"
    },
    {
      "anonymous": false,
      "inputs": [
        {
          "indexed": true,
          "internalType": "uint256",
          "name": "roundId",
          "type": "uint256"
        },
        {
          "indexed": true,
          "internalType": "uint256",
          "name": "ticketId",
          "type": "uint256"
        },
        {
          "indexed": true,
          "internalType": "address",
          "name": "player",
          "type": "address"
        },
        {
          "indexed": false,
          "internalType": "uint256",
          "name": "jackpotAmount",
          "type": "uint256"
        },
        {
          "indexed": false,
          "internalType": "uint256",
          "name": "shareAmount",
          "type": "uint256"
        }
      ],
      "name": "ProgressiveWon",
      "type": "event"
    },
    {
      "anonymous": false,
      "inputs": [
        {
          "indexed": true,
          "internalType": "uint256",
          "name": "roundId",
          "type": "uint256"
        },
        {
          "indexed": false,
          "internalType": "bytes32",
          "name": "commitment",
          "type": "bytes32"
        }
      ],
      "name": "RandomnessCommitted",
      "type": "event"
    },
    {
      "anonymous": false,
      "inputs": [
        {
          "indexed": false,
          "internalType": "address",
          "name": "provider",
          "type": "address"
        }
      ],
      "name": "RandomnessProviderUpdated",
      "type": "event"
    },
    {
      "anonymous": false,
      "inputs": [
        {
          "indexed": true,
          "internalType": "uint256",
          "name": "roundId",
          "type": "uint256"
        },
        {
          "indexed": false,
          "internalType": "bytes32",
          "name": "seed",
          "type": "bytes32"
        }
      ],
      "name": "RandomnessRevealed",
      "type": "event"
    },
    {
      "anonymous": false,
      "inputs": [
        {
          "indexed": true,
          "internalType": "uint256",
          "name": "roundId",
          "type": "uint256"
        }
      ],
      "name": "RoundClosed",
      "type": "event"
    },
    {
      "anonymous": false,
      "inputs": [
        {
          "indexed": false,
          "internalType": "uint256",
          "name": "newDuration",
          "type": "uint256"
        }
      ],
      "name": "RoundDurationUpdated",
      "type": "event"
    },
    {
      "anonymous": false,
      "inputs": [
        {
          "indexed": true,
          "internalType": "uint256",
          "name": "roundId",
          "type": "uint256"
        },
        {
          "indexed": false,
          "internalType": "uint8[20]",
          "name": "winningNumbers",
          "type": "uint8[20]"
        },
        {
          "indexed": false,
          "internalType": "uint8",
          "name": "bullsEyeIndex",
          "type": "uint8"
        },
        {
          "indexed": false,
          "internalType": "uint256",
          "name": "multiplierOutcome",
          "type": "uint256"
        }
      ],
      "name": "RoundFinalized",
      "type": "event"
    },
    {
      "anonymous": false,
      "inputs": [
        {
          "indexed": true,
          "internalType": "uint256",
          "name": "roundId",
          "type": "uint256"
        },
        {
          "indexed": false,
          "internalType": "bytes32",
          "name": "requestId",
          "type": "bytes32"
        }
      ],
      "name": "RoundRandomnessRequested",
      "type": "event"
    },
    {
      "anonymous": false,
      "inputs": [
        {
          "indexed": true,
          "internalType": "uint256",
          "name": "roundId",
          "type": "uint256"
        },
        {
          "indexed": false,
          "internalType": "uint64",
          "name": "startTime",
          "type": "uint64"
        },
        {
          "indexed": false,
          "internalType": "uint64",
          "name": "endTime",
          "type": "uint64"
        }
      ],
      "name": "RoundStarted",
      "type": "event"
    },
    {
      "anonymous": false,
      "inputs": [
        {
          "indexed": true,
          "internalType": "address",
          "name": "player",
          "type": "address"
        },
        {
          "indexed": true,
          "internalType": "uint256",
          "name": "ticketId",
          "type": "uint256"
        },
        {
          "indexed": true,
          "internalType": "uint256",
          "name": "firstRoundId",
          "type": "uint256"
        },
        {
          "indexed": false,
          "internalType": "uint8",
          "name": "draws",
          "type": "uint8"
        },
        {
          "indexed": false,
          "internalType": "uint8",
          "name": "spotSize",
          "type": "uint8"
        },
        {
          "indexed": false,
          "internalType": "uint16",
          "name": "addons",
          "type": "uint16"
        },
        {
          "indexed": false,
          "internalType": "uint256",
          "name": "wagerPerDraw",
          "type": "uint256"
        },
        {
          "indexed": false,
          "internalType": "uint256",
          "name": "grossCost",
          "type": "uint256"
        }
      ],
      "name": "TicketPurchased",
      "type": "event"
    },
    {
      "anonymous": false,
      "inputs": [
        {
          "indexed": false,
          "internalType": "address",
          "name": "account",
          "type": "address"
        }
      ],
      "name": "Unpaused",
      "type": "event"
    },
    {
      "inputs": [],
      "name": "ADDON_BULLSEYE",
      "outputs": [
        {
          "internalType": "uint16",
          "name": "",
          "type": "uint16"
        }
      ],
      "stateMutability": "view",
      "type": "function"
    },
    {
      "inputs": [],
      "name": "ADDON_MULTIPLIER",
      "outputs": [
        {
          "internalType": "uint16",
          "name": "",
          "type": "uint16"
        }
      ],
      "stateMutability": "view",
      "type": "function"
    },
    {
      "inputs": [],
      "name": "ADDON_PLUS3",
      "outputs": [
        {
          "internalType": "uint16",
          "name": "",
          "type": "uint16"
        }
      ],
      "stateMutability": "view",
      "type": "function"
    },
    {
      "inputs": [],
      "name": "ADDON_PROGRESSIVE",
      "outputs": [
        {
          "internalType": "uint16",
          "name": "",
          "type": "uint16"
        }
      ],
      "stateMutability": "view",
      "type": "function"
    },
    {
      "inputs": [],
      "name": "BPS_DENOMINATOR",
      "outputs": [
        {
          "internalType": "uint256",
          "name": "",
          "type": "uint256"
        }
      ],
      "stateMutability": "view",
      "type": "function"
    },
    {
      "inputs": [],
      "name": "CLAIM_DEADLINE",
      "outputs": [
        {
          "internalType": "uint256",
          "name": "",
          "type": "uint256"
        }
      ],
      "stateMutability": "view",
      "type": "function"
    },
    {
      "inputs": [],
      "name": "DRAWN",
      "outputs": [
        {
          "internalType": "uint8",
          "name": "",
          "type": "uint8"
        }
      ],
      "stateMutability": "view",
      "type": "function"
    },
    {
      "inputs": [],
      "name": "MIN_SPOT",
      "outputs": [
        {
          "internalType": "uint8",
          "name": "",
          "type": "uint8"
        }
      ],
      "stateMutability": "view",
      "type": "function"
    },
    {
      "inputs": [],
      "name": "NUMBERS",
      "outputs": [
        {
          "internalType": "uint8",
          "name": "",
          "type": "uint8"
        }
      ],
      "stateMutability": "view",
      "type": "function"
    },
    {
      "inputs": [],
      "name": "PLUS3_DRAWN",
      "outputs": [
        {
          "internalType": "uint8",
          "name": "",
          "type": "uint8"
        }
      ],
      "stateMutability": "view",
      "type": "function"
    },
    {
      "inputs": [
        {
          "internalType": "uint256",
          "name": "roundId",
          "type": "uint256"
        },
        {
          "internalType": "uint256",
          "name": "ticketId",
          "type": "uint256"
        },
        {
          "internalType": "address",
          "name": "player",
          "type": "address"
        }
      ],
      "name": "_safeProcessClaim",
      "outputs": [],
      "stateMutability": "nonpayable",
      "type": "function"
    },
    {
      "inputs": [
        {
          "internalType": "uint16",
          "name": "addons",
          "type": "uint16"
        },
        {
          "internalType": "uint256",
          "name": "wagerPerDraw",
          "type": "uint256"
        }
      ],
      "name": "addonCost",
      "outputs": [
        {
          "internalType": "uint256",
          "name": "",
          "type": "uint256"
        }
      ],
      "stateMutability": "view",
      "type": "function"
    },
    {
      "inputs": [
        {
          "internalType": "address",
          "name": "",
          "type": "address"
        }
      ],
      "name": "autoClaimEnabled",
      "outputs": [
        {
          "internalType": "bool",
          "name": "",
          "type": "bool"
        }
      ],
      "stateMutability": "view",
      "type": "function"
    },
    {
      "inputs": [],
      "name": "bullsEyeCostPerDraw",
      "outputs": [
        {
          "internalType": "uint256",
          "name": "",
          "type": "uint256"
        }
      ],
      "stateMutability": "view",
      "type": "function"
    },
    {
      "inputs": [
        {
          "internalType": "uint8",
          "name": "",
          "type": "uint8"
        },
        {
          "internalType": "uint256",
          "name": "",
          "type": "uint256"
        }
      ],
      "name": "bullsEyePaytable",
      "outputs": [
        {
          "internalType": "uint256",
          "name": "",
          "type": "uint256"
        }
      ],
      "stateMutability": "view",
      "type": "function"
    },
    {
      "inputs": [
        {
          "internalType": "uint256",
          "name": "roundId",
          "type": "uint256"
        },
        {
          "internalType": "uint8[]",
          "name": "numbers",
          "type": "uint8[]"
        },
        {
          "internalType": "uint8",
          "name": "spotSize",
          "type": "uint8"
        },
        {
          "internalType": "uint8",
          "name": "draws",
          "type": "uint8"
        },
        {
          "internalType": "uint16",
          "name": "addons",
          "type": "uint16"
        },
        {
          "internalType": "uint256",
          "name": "wagerPerDraw",
          "type": "uint256"
        }
      ],
      "name": "buyTicket",
      "outputs": [],
      "stateMutability": "nonpayable",
      "type": "function"
    },
    {
      "inputs": [
        {
          "internalType": "uint256",
          "name": "roundId",
          "type": "uint256"
        },
        {
          "internalType": "uint256",
          "name": "ticketId",
          "type": "uint256"
        }
      ],
      "name": "claim",
      "outputs": [],
      "stateMutability": "nonpayable",
      "type": "function"
    },
    {
      "inputs": [
        {
          "internalType": "uint256[]",
          "name": "roundIds",
          "type": "uint256[]"
        },
        {
          "internalType": "uint256[]",
          "name": "ticketIds",
          "type": "uint256[]"
        }
      ],
      "name": "claimMultiple",
      "outputs": [],
      "stateMutability": "nonpayable",
      "type": "function"
    },
    {
      "inputs": [
        {
          "internalType": "uint256",
          "name": "",
          "type": "uint256"
        },
        {
          "internalType": "uint256",
          "name": "",
          "type": "uint256"
        }
      ],
      "name": "claimed",
      "outputs": [
        {
          "internalType": "bool",
          "name": "",
          "type": "bool"
        }
      ],
      "stateMutability": "view",
      "type": "function"
    },
    {
      "inputs": [
        {
          "internalType": "uint256",
          "name": "roundId",
          "type": "uint256"
        },
        {
          "internalType": "bytes32",
          "name": "commitment",
          "type": "bytes32"
        }
      ],
      "name": "commitRandom",
      "outputs": [],
      "stateMutability": "nonpayable",
      "type": "function"
    },
    {
      "inputs": [
        {
          "internalType": "uint256",
          "name": "",
          "type": "uint256"
        }
      ],
      "name": "committedHash",
      "outputs": [
        {
          "internalType": "bytes32",
          "name": "",
          "type": "bytes32"
        }
      ],
      "stateMutability": "view",
      "type": "function"
    },
    {
      "inputs": [],
      "name": "currentRoundId",
      "outputs": [
        {
          "internalType": "uint256",
          "name": "",
          "type": "uint256"
        }
      ],
      "stateMutability": "view",
      "type": "function"
    },
    {
      "inputs": [
        {
          "internalType": "uint256",
          "name": "roundId",
          "type": "uint256"
        }
      ],
      "name": "distributeProgressive",
      "outputs": [],
      "stateMutability": "nonpayable",
      "type": "function"
    },
    {
      "inputs": [],
      "name": "feeBps",
      "outputs": [
        {
          "internalType": "uint256",
          "name": "",
          "type": "uint256"
        }
      ],
      "stateMutability": "view",
      "type": "function"
    },
    {
      "inputs": [],
      "name": "feeRecipient",
      "outputs": [
        {
          "internalType": "address",
          "name": "",
          "type": "address"
        }
      ],
      "stateMutability": "view",
      "type": "function"
    },
    {
      "inputs": [
        {
          "internalType": "uint256",
          "name": "roundId",
          "type": "uint256"
        }
      ],
      "name": "finalizeRound",
      "outputs": [],
      "stateMutability": "nonpayable",
      "type": "function"
    },
    {
      "inputs": [
        {
          "internalType": "uint256",
          "name": "roundId",
          "type": "uint256"
        },
        {
          "internalType": "bytes32",
          "name": "randomSeed",
          "type": "bytes32"
        }
      ],
      "name": "fulfillRandomness",
      "outputs": [],
      "stateMutability": "nonpayable",
      "type": "function"
    },
    {
      "inputs": [
        {
          "internalType": "address",
          "name": "player",
          "type": "address"
        }
      ],
      "name": "getAllPlayerTickets",
      "outputs": [
        {
          "internalType": "uint256[]",
          "name": "",
          "type": "uint256[]"
        }
      ],
      "stateMutability": "view",
      "type": "function"
    },
    {
      "inputs": [],
      "name": "getGlobalStats",
      "outputs": [
        {
          "internalType": "uint256",
          "name": "totalWagered",
          "type": "uint256"
        },
        {
          "internalType": "uint256",
          "name": "totalWon",
          "type": "uint256"
        },
        {
          "internalType": "uint256",
          "name": "ticketCount",
          "type": "uint256"
        },
        {
          "internalType": "uint256",
          "name": "activeRoundId",
          "type": "uint256"
        }
      ],
      "stateMutability": "view",
      "type": "function"
    },
    {
      "inputs": [
        {
          "internalType": "address",
          "name": "player",
          "type": "address"
        }
      ],
      "name": "getPlayerStats",
      "outputs": [
        {
          "internalType": "uint256",
          "name": "totalWagered",
          "type": "uint256"
        },
        {
          "internalType": "uint256",
          "name": "totalWon",
          "type": "uint256"
        },
        {
          "internalType": "uint256",
          "name": "ticketCount",
          "type": "uint256"
        },
        {
          "internalType": "uint256",
          "name": "winCount",
          "type": "uint256"
        },
        {
          "internalType": "uint256",
          "name": "winRateBps",
          "type": "uint256"
        },
        {
          "internalType": "int256",
          "name": "netPnL",
          "type": "int256"
        }
      ],
      "stateMutability": "view",
      "type": "function"
    },
    {
      "inputs": [
        {
          "internalType": "address",
          "name": "player",
          "type": "address"
        },
        {
          "internalType": "uint256",
          "name": "offset",
          "type": "uint256"
        },
        {
          "internalType": "uint256",
          "name": "limit",
          "type": "uint256"
        }
      ],
      "name": "getPlayerTickets",
      "outputs": [
        {
          "internalType": "uint256[]",
          "name": "",
          "type": "uint256[]"
        }
      ],
      "stateMutability": "view",
      "type": "function"
    },
    {
      "inputs": [
        {
          "internalType": "address",
          "name": "player",
          "type": "address"
        }
      ],
      "name": "getPlayerUnclaimedWinnings",
      "outputs": [
        {
          "internalType": "uint256",
          "name": "totalUnclaimed",
          "type": "uint256"
        }
      ],
      "stateMutability": "view",
      "type": "function"
    },
    {
      "inputs": [],
      "name": "getProgressiveStats",
      "outputs": [
        {
          "internalType": "uint256",
          "name": "currentPool",
          "type": "uint256"
        },
        {
          "internalType": "uint256",
          "name": "baseSeed",
          "type": "uint256"
        },
        {
          "internalType": "uint256",
          "name": "costPerDraw",
          "type": "uint256"
        },
        {
          "internalType": "uint256",
          "name": "totalCollected",
          "type": "uint256"
        },
        {
          "internalType": "uint256",
          "name": "totalPaid",
          "type": "uint256"
        },
        {
          "internalType": "uint256",
          "name": "winCount",
          "type": "uint256"
        },
        {
          "internalType": "uint256",
          "name": "lastWinRound",
          "type": "uint256"
        }
      ],
      "stateMutability": "view",
      "type": "function"
    },
    {
      "inputs": [
        {
          "internalType": "uint256",
          "name": "roundId",
          "type": "uint256"
        }
      ],
      "name": "getRound",
      "outputs": [
        {
          "components": [
            {
              "internalType": "uint256",
              "name": "id",
              "type": "uint256"
            },
            {
              "internalType": "uint64",
              "name": "startTime",
              "type": "uint64"
            },
            {
              "internalType": "uint64",
              "name": "endTime",
              "type": "uint64"
            },
            {
              "internalType": "enum CryptoKeno.RoundState",
              "name": "state",
              "type": "uint8"
            },
            {
              "internalType": "bytes32",
              "name": "requestId",
              "type": "bytes32"
            },
            {
              "internalType": "bytes32",
              "name": "randomSeed",
              "type": "bytes32"
            },
            {
              "internalType": "uint8",
              "name": "bullsEyeIndex",
              "type": "uint8"
            },
            {
              "internalType": "uint8",
              "name": "bullsEyeNumber",
              "type": "uint8"
            },
            {
              "internalType": "uint8[20]",
              "name": "winningNumbers",
              "type": "uint8[20]"
            },
            {
              "internalType": "uint8[3]",
              "name": "plus3Numbers",
              "type": "uint8[3]"
            },
            {
              "internalType": "uint256",
              "name": "drawnMultiplier",
              "type": "uint256"
            },
            {
              "internalType": "uint256",
              "name": "totalBaseWager",
              "type": "uint256"
            },
            {
              "internalType": "uint256",
              "name": "poolBalance",
              "type": "uint256"
            },
            {
              "internalType": "uint256",
              "name": "totalMultiplierAddon",
              "type": "uint256"
            },
            {
              "internalType": "uint256",
              "name": "totalBullsEyeAddon",
              "type": "uint256"
            },
            {
              "internalType": "uint256",
              "name": "totalPlus3Addon",
              "type": "uint256"
            },
            {
              "internalType": "uint256",
              "name": "totalProgressiveAddon",
              "type": "uint256"
            },
            {
              "internalType": "uint256[]",
              "name": "progressiveWinners",
              "type": "uint256[]"
            }
          ],
          "internalType": "struct CryptoKeno.Round",
          "name": "",
          "type": "tuple"
        }
      ],
      "stateMutability": "view",
      "type": "function"
    },
    {
      "inputs": [
        {
          "internalType": "uint256[]",
          "name": "roundIds",
          "type": "uint256[]"
        }
      ],
      "name": "getRounds",
      "outputs": [
        {
          "components": [
            {
              "internalType": "uint256",
              "name": "id",
              "type": "uint256"
            },
            {
              "internalType": "uint64",
              "name": "startTime",
              "type": "uint64"
            },
            {
              "internalType": "uint64",
              "name": "endTime",
              "type": "uint64"
            },
            {
              "internalType": "enum CryptoKeno.RoundState",
              "name": "state",
              "type": "uint8"
            },
            {
              "internalType": "bytes32",
              "name": "requestId",
              "type": "bytes32"
            },
            {
              "internalType": "bytes32",
              "name": "randomSeed",
              "type": "bytes32"
            },
            {
              "internalType": "uint8",
              "name": "bullsEyeIndex",
              "type": "uint8"
            },
            {
              "internalType": "uint8",
              "name": "bullsEyeNumber",
              "type": "uint8"
            },
            {
              "internalType": "uint8[20]",
              "name": "winningNumbers",
              "type": "uint8[20]"
            },
            {
              "internalType": "uint8[3]",
              "name": "plus3Numbers",
              "type": "uint8[3]"
            },
            {
              "internalType": "uint256",
              "name": "drawnMultiplier",
              "type": "uint256"
            },
            {
              "internalType": "uint256",
              "name": "totalBaseWager",
              "type": "uint256"
            },
            {
              "internalType": "uint256",
              "name": "poolBalance",
              "type": "uint256"
            },
            {
              "internalType": "uint256",
              "name": "totalMultiplierAddon",
              "type": "uint256"
            },
            {
              "internalType": "uint256",
              "name": "totalBullsEyeAddon",
              "type": "uint256"
            },
            {
              "internalType": "uint256",
              "name": "totalPlus3Addon",
              "type": "uint256"
            },
            {
              "internalType": "uint256",
              "name": "totalProgressiveAddon",
              "type": "uint256"
            },
            {
              "internalType": "uint256[]",
              "name": "progressiveWinners",
              "type": "uint256[]"
            }
          ],
          "internalType": "struct CryptoKeno.Round[]",
          "name": "",
          "type": "tuple[]"
        }
      ],
      "stateMutability": "view",
      "type": "function"
    },
    {
      "inputs": [
        {
          "internalType": "uint256",
          "name": "ticketId",
          "type": "uint256"
        }
      ],
      "name": "getTicket",
      "outputs": [
        {
          "components": [
            {
              "internalType": "address",
              "name": "player",
              "type": "address"
            },
            {
              "internalType": "uint64",
              "name": "firstRoundId",
              "type": "uint64"
            },
            {
              "internalType": "uint8",
              "name": "draws",
              "type": "uint8"
            },
            {
              "internalType": "uint8",
              "name": "spotSize",
              "type": "uint8"
            },
            {
              "internalType": "uint16",
              "name": "addons",
              "type": "uint16"
            },
            {
              "internalType": "uint8",
              "name": "drawsRemaining",
              "type": "uint8"
            },
            {
              "internalType": "uint256",
              "name": "wagerPerDraw",
              "type": "uint256"
            },
            {
              "internalType": "uint256",
              "name": "numbersBitmap",
              "type": "uint256"
            }
          ],
          "internalType": "struct CryptoKeno.Ticket",
          "name": "",
          "type": "tuple"
        }
      ],
      "stateMutability": "view",
      "type": "function"
    },
    {
      "inputs": [
        {
          "internalType": "uint256[]",
          "name": "ticketIds",
          "type": "uint256[]"
        }
      ],
      "name": "getTickets",
      "outputs": [
        {
          "components": [
            {
              "internalType": "address",
              "name": "player",
              "type": "address"
            },
            {
              "internalType": "uint64",
              "name": "firstRoundId",
              "type": "uint64"
            },
            {
              "internalType": "uint8",
              "name": "draws",
              "type": "uint8"
            },
            {
              "internalType": "uint8",
              "name": "spotSize",
              "type": "uint8"
            },
            {
              "internalType": "uint16",
              "name": "addons",
              "type": "uint16"
            },
            {
              "internalType": "uint8",
              "name": "drawsRemaining",
              "type": "uint8"
            },
            {
              "internalType": "uint256",
              "name": "wagerPerDraw",
              "type": "uint256"
            },
            {
              "internalType": "uint256",
              "name": "numbersBitmap",
              "type": "uint256"
            }
          ],
          "internalType": "struct CryptoKeno.Ticket[]",
          "name": "",
          "type": "tuple[]"
        }
      ],
      "stateMutability": "view",
      "type": "function"
    },
    {
      "inputs": [],
      "name": "globalTicketCount",
      "outputs": [
        {
          "internalType": "uint256",
          "name": "",
          "type": "uint256"
        }
      ],
      "stateMutability": "view",
      "type": "function"
    },
    {
      "inputs": [],
      "name": "globalTotalWagered",
      "outputs": [
        {
          "internalType": "uint256",
          "name": "",
          "type": "uint256"
        }
      ],
      "stateMutability": "view",
      "type": "function"
    },
    {
      "inputs": [],
      "name": "globalTotalWon",
      "outputs": [
        {
          "internalType": "uint256",
          "name": "",
          "type": "uint256"
        }
      ],
      "stateMutability": "view",
      "type": "function"
    },
    {
      "inputs": [
        {
          "internalType": "uint256",
          "name": "ticketId",
          "type": "uint256"
        },
        {
          "internalType": "uint256",
          "name": "roundId",
          "type": "uint256"
        }
      ],
      "name": "isWinningTicket",
      "outputs": [
        {
          "internalType": "bool",
          "name": "isWinner",
          "type": "bool"
        },
        {
          "internalType": "uint256",
          "name": "prize",
          "type": "uint256"
        }
      ],
      "stateMutability": "view",
      "type": "function"
    },
    {
      "inputs": [],
      "name": "lastProgressiveWinRound",
      "outputs": [
        {
          "internalType": "uint256",
          "name": "",
          "type": "uint256"
        }
      ],
      "stateMutability": "view",
      "type": "function"
    },
    {
      "inputs": [],
      "name": "maxSpot",
      "outputs": [
        {
          "internalType": "uint8",
          "name": "",
          "type": "uint8"
        }
      ],
      "stateMutability": "view",
      "type": "function"
    },
    {
      "inputs": [],
      "name": "maxWagerPerDraw",
      "outputs": [
        {
          "internalType": "uint256",
          "name": "",
          "type": "uint256"
        }
      ],
      "stateMutability": "view",
      "type": "function"
    },
    {
      "inputs": [],
      "name": "multiplierCostPerDraw",
      "outputs": [
        {
          "internalType": "uint256",
          "name": "",
          "type": "uint256"
        }
      ],
      "stateMutability": "view",
      "type": "function"
    },
    {
      "inputs": [
        {
          "internalType": "uint256",
          "name": "",
          "type": "uint256"
        }
      ],
      "name": "multiplierValues",
      "outputs": [
        {
          "internalType": "uint256",
          "name": "",
          "type": "uint256"
        }
      ],
      "stateMutability": "view",
      "type": "function"
    },
    {
      "inputs": [
        {
          "internalType": "uint256",
          "name": "",
          "type": "uint256"
        }
      ],
      "name": "multiplierWeights",
      "outputs": [
        {
          "internalType": "uint256",
          "name": "",
          "type": "uint256"
        }
      ],
      "stateMutability": "view",
      "type": "function"
    },
    {
      "inputs": [],
      "name": "nextTicketId",
      "outputs": [
        {
          "internalType": "uint256",
          "name": "",
          "type": "uint256"
        }
      ],
      "stateMutability": "view",
      "type": "function"
    },
    {
      "inputs": [],
      "name": "owner",
      "outputs": [
        {
          "internalType": "address",
          "name": "",
          "type": "address"
        }
      ],
      "stateMutability": "view",
      "type": "function"
    },
    {
      "inputs": [],
      "name": "pause",
      "outputs": [],
      "stateMutability": "nonpayable",
      "type": "function"
    },
    {
      "inputs": [],
      "name": "paused",
      "outputs": [
        {
          "internalType": "bool",
          "name": "",
          "type": "bool"
        }
      ],
      "stateMutability": "view",
      "type": "function"
    },
    {
      "inputs": [
        {
          "internalType": "uint8",
          "name": "",
          "type": "uint8"
        },
        {
          "internalType": "uint256",
          "name": "",
          "type": "uint256"
        }
      ],
      "name": "paytable",
      "outputs": [
        {
          "internalType": "uint256",
          "name": "",
          "type": "uint256"
        }
      ],
      "stateMutability": "view",
      "type": "function"
    },
    {
      "inputs": [
        {
          "internalType": "address",
          "name": "",
          "type": "address"
        }
      ],
      "name": "playerTicketCount",
      "outputs": [
        {
          "internalType": "uint256",
          "name": "",
          "type": "uint256"
        }
      ],
      "stateMutability": "view",
      "type": "function"
    },
    {
      "inputs": [
        {
          "internalType": "address",
          "name": "",
          "type": "address"
        },
        {
          "internalType": "uint256",
          "name": "",
          "type": "uint256"
        }
      ],
      "name": "playerTickets",
      "outputs": [
        {
          "internalType": "uint256",
          "name": "",
          "type": "uint256"
        }
      ],
      "stateMutability": "view",
      "type": "function"
    },
    {
      "inputs": [
        {
          "internalType": "address",
          "name": "",
          "type": "address"
        }
      ],
      "name": "playerTotalWagered",
      "outputs": [
        {
          "internalType": "uint256",
          "name": "",
          "type": "uint256"
        }
      ],
      "stateMutability": "view",
      "type": "function"
    },
    {
      "inputs": [
        {
          "internalType": "address",
          "name": "",
          "type": "address"
        }
      ],
      "name": "playerTotalWon",
      "outputs": [
        {
          "internalType": "uint256",
          "name": "",
          "type": "uint256"
        }
      ],
      "stateMutability": "view",
      "type": "function"
    },
    {
      "inputs": [
        {
          "internalType": "address",
          "name": "",
          "type": "address"
        }
      ],
      "name": "playerWinCount",
      "outputs": [
        {
          "internalType": "uint256",
          "name": "",
          "type": "uint256"
        }
      ],
      "stateMutability": "view",
      "type": "function"
    },
    {
      "inputs": [],
      "name": "progressiveBaseSeed",
      "outputs": [
        {
          "internalType": "uint256",
          "name": "",
          "type": "uint256"
        }
      ],
      "stateMutability": "view",
      "type": "function"
    },
    {
      "inputs": [],
      "name": "progressiveCostPerDraw",
      "outputs": [
        {
          "internalType": "uint256",
          "name": "",
          "type": "uint256"
        }
      ],
      "stateMutability": "view",
      "type": "function"
    },
    {
      "inputs": [],
      "name": "progressiveFeeBps",
      "outputs": [
        {
          "internalType": "uint256",
          "name": "",
          "type": "uint256"
        }
      ],
      "stateMutability": "view",
      "type": "function"
    },
    {
      "inputs": [],
      "name": "progressivePool",
      "outputs": [
        {
          "internalType": "uint256",
          "name": "",
          "type": "uint256"
        }
      ],
      "stateMutability": "view",
      "type": "function"
    },
    {
      "inputs": [],
      "name": "progressiveTotalCollected",
      "outputs": [
        {
          "internalType": "uint256",
          "name": "",
          "type": "uint256"
        }
      ],
      "stateMutability": "view",
      "type": "function"
    },
    {
      "inputs": [],
      "name": "progressiveTotalPaid",
      "outputs": [
        {
          "internalType": "uint256",
          "name": "",
          "type": "uint256"
        }
      ],
      "stateMutability": "view",
      "type": "function"
    },
    {
      "inputs": [],
      "name": "progressiveWinCount",
      "outputs": [
        {
          "internalType": "uint256",
          "name": "",
          "type": "uint256"
        }
      ],
      "stateMutability": "view",
      "type": "function"
    },
    {
      "inputs": [],
      "name": "randomnessProvider",
      "outputs": [
        {
          "internalType": "contract IRandomProvider",
          "name": "",
          "type": "address"
        }
      ],
      "stateMutability": "view",
      "type": "function"
    },
    {
      "inputs": [
        {
          "internalType": "uint256",
          "name": "roundId",
          "type": "uint256"
        }
      ],
      "name": "reclaimExpiredPrizes",
      "outputs": [],
      "stateMutability": "nonpayable",
      "type": "function"
    },
    {
      "inputs": [],
      "name": "renounceOwnership",
      "outputs": [],
      "stateMutability": "nonpayable",
      "type": "function"
    },
    {
      "inputs": [
        {
          "internalType": "uint256",
          "name": "roundId",
          "type": "uint256"
        },
        {
          "internalType": "bytes32",
          "name": "seed",
          "type": "bytes32"
        }
      ],
      "name": "revealRandom",
      "outputs": [],
      "stateMutability": "nonpayable",
      "type": "function"
    },
    {
      "inputs": [
        {
          "internalType": "uint256",
          "name": "",
          "type": "uint256"
        }
      ],
      "name": "revealedSeed",
      "outputs": [
        {
          "internalType": "bytes32",
          "name": "",
          "type": "bytes32"
        }
      ],
      "stateMutability": "view",
      "type": "function"
    },
    {
      "inputs": [],
      "name": "roundDuration",
      "outputs": [
        {
          "internalType": "uint256",
          "name": "",
          "type": "uint256"
        }
      ],
      "stateMutability": "view",
      "type": "function"
    },
    {
      "inputs": [
        {
          "internalType": "uint256",
          "name": "",
          "type": "uint256"
        }
      ],
      "name": "rounds",
      "outputs": [
        {
          "internalType": "uint256",
          "name": "id",
          "type": "uint256"
        },
        {
          "internalType": "uint64",
          "name": "startTime",
          "type": "uint64"
        },
        {
          "internalType": "uint64",
          "name": "endTime",
          "type": "uint64"
        },
        {
          "internalType": "enum CryptoKeno.RoundState",
          "name": "state",
          "type": "uint8"
        },
        {
          "internalType": "bytes32",
          "name": "requestId",
          "type": "bytes32"
        },
        {
          "internalType": "bytes32",
          "name": "randomSeed",
          "type": "bytes32"
        },
        {
          "internalType": "uint8",
          "name": "bullsEyeIndex",
          "type": "uint8"
        },
        {
          "internalType": "uint8",
          "name": "bullsEyeNumber",
          "type": "uint8"
        },
        {
          "internalType": "uint256",
          "name": "drawnMultiplier",
          "type": "uint256"
        },
        {
          "internalType": "uint256",
          "name": "totalBaseWager",
          "type": "uint256"
        },
        {
          "internalType": "uint256",
          "name": "poolBalance",
          "type": "uint256"
        },
        {
          "internalType": "uint256",
          "name": "totalMultiplierAddon",
          "type": "uint256"
        },
        {
          "internalType": "uint256",
          "name": "totalBullsEyeAddon",
          "type": "uint256"
        },
        {
          "internalType": "uint256",
          "name": "totalPlus3Addon",
          "type": "uint256"
        },
        {
          "internalType": "uint256",
          "name": "totalProgressiveAddon",
          "type": "uint256"
        }
      ],
      "stateMutability": "view",
      "type": "function"
    },
    {
      "inputs": [
        {
          "internalType": "uint256",
          "name": "amount",
          "type": "uint256"
        }
      ],
      "name": "seedProgressivePool",
      "outputs": [],
      "stateMutability": "nonpayable",
      "type": "function"
    },
    {
      "inputs": [
        {
          "internalType": "uint256",
          "name": "multiplierCost",
          "type": "uint256"
        },
        {
          "internalType": "uint256",
          "name": "bullsEyeCost",
          "type": "uint256"
        }
      ],
      "name": "setAddonCosts",
      "outputs": [],
      "stateMutability": "nonpayable",
      "type": "function"
    },
    {
      "inputs": [
        {
          "internalType": "bool",
          "name": "enabled",
          "type": "bool"
        }
      ],
      "name": "setAutoClaim",
      "outputs": [],
      "stateMutability": "nonpayable",
      "type": "function"
    },
    {
      "inputs": [
        {
          "internalType": "uint8",
          "name": "spotSize",
          "type": "uint8"
        },
        {
          "internalType": "uint8",
          "name": "hits",
          "type": "uint8"
        },
        {
          "internalType": "uint256",
          "name": "multiplier_",
          "type": "uint256"
        }
      ],
      "name": "setBullsEyePaytable",
      "outputs": [],
      "stateMutability": "nonpayable",
      "type": "function"
    },
    {
      "inputs": [
        {
          "internalType": "uint256",
          "name": "feeBps_",
          "type": "uint256"
        },
        {
          "internalType": "address",
          "name": "recipient",
          "type": "address"
        }
      ],
      "name": "setFee",
      "outputs": [],
      "stateMutability": "nonpayable",
      "type": "function"
    },
    {
      "inputs": [
        {
          "internalType": "uint256",
          "name": "maxWager",
          "type": "uint256"
        }
      ],
      "name": "setMaxWagerPerDraw",
      "outputs": [],
      "stateMutability": "nonpayable",
      "type": "function"
    },
    {
      "inputs": [
        {
          "internalType": "uint256[]",
          "name": "values",
          "type": "uint256[]"
        },
        {
          "internalType": "uint256[]",
          "name": "weights",
          "type": "uint256[]"
        }
      ],
      "name": "setMultiplierDistribution",
      "outputs": [],
      "stateMutability": "nonpayable",
      "type": "function"
    },
    {
      "inputs": [
        {
          "internalType": "uint8",
          "name": "spotSize",
          "type": "uint8"
        },
        {
          "internalType": "uint8",
          "name": "hits",
          "type": "uint8"
        },
        {
          "internalType": "uint256",
          "name": "multiplier_",
          "type": "uint256"
        }
      ],
      "name": "setPaytable",
      "outputs": [],
      "stateMutability": "nonpayable",
      "type": "function"
    },
    {
      "inputs": [
        {
          "internalType": "uint256",
          "name": "baseSeed",
          "type": "uint256"
        },
        {
          "internalType": "uint256",
          "name": "costPerDraw",
          "type": "uint256"
        },
        {
          "internalType": "uint256",
          "name": "feeBps_",
          "type": "uint256"
        }
      ],
      "name": "setProgressiveConfig",
      "outputs": [],
      "stateMutability": "nonpayable",
      "type": "function"
    },
    {
      "inputs": [
        {
          "internalType": "address",
          "name": "provider",
          "type": "address"
        }
      ],
      "name": "setRandomnessProvider",
      "outputs": [],
      "stateMutability": "nonpayable",
      "type": "function"
    },
    {
      "inputs": [
        {
          "internalType": "uint256",
          "name": "newDuration",
          "type": "uint256"
        }
      ],
      "name": "setRoundDuration",
      "outputs": [],
      "stateMutability": "nonpayable",
      "type": "function"
    },
    {
      "inputs": [],
      "name": "startNextRound",
      "outputs": [],
      "stateMutability": "nonpayable",
      "type": "function"
    },
    {
      "inputs": [
        {
          "internalType": "uint256",
          "name": "",
          "type": "uint256"
        }
      ],
      "name": "tickets",
      "outputs": [
        {
          "internalType": "address",
          "name": "player",
          "type": "address"
        },
        {
          "internalType": "uint64",
          "name": "firstRoundId",
          "type": "uint64"
        },
        {
          "internalType": "uint8",
          "name": "draws",
          "type": "uint8"
        },
        {
          "internalType": "uint8",
          "name": "spotSize",
          "type": "uint8"
        },
        {
          "internalType": "uint16",
          "name": "addons",
          "type": "uint16"
        },
        {
          "internalType": "uint8",
          "name": "drawsRemaining",
          "type": "uint8"
        },
        {
          "internalType": "uint256",
          "name": "wagerPerDraw",
          "type": "uint256"
        },
        {
          "internalType": "uint256",
          "name": "numbersBitmap",
          "type": "uint256"
        }
      ],
      "stateMutability": "view",
      "type": "function"
    },
    {
      "inputs": [
        {
          "internalType": "uint256",
          "name": "",
          "type": "uint256"
        },
        {
          "internalType": "uint256",
          "name": "",
          "type": "uint256"
        }
      ],
      "name": "ticketsByRound",
      "outputs": [
        {
          "internalType": "uint256",
          "name": "",
          "type": "uint256"
        }
      ],
      "stateMutability": "view",
      "type": "function"
    },
    {
      "inputs": [],
      "name": "token",
      "outputs": [
        {
          "internalType": "contract IERC20",
          "name": "",
          "type": "address"
        }
      ],
      "stateMutability": "view",
      "type": "function"
    },
    {
      "inputs": [
        {
          "internalType": "address",
          "name": "newOwner",
          "type": "address"
        }
      ],
      "name": "transferOwnership",
      "outputs": [],
      "stateMutability": "nonpayable",
      "type": "function"
    },
    {
      "inputs": [],
      "name": "unpause",
      "outputs": [],
      "stateMutability": "nonpayable",
      "type": "function"
    },
    {
      "inputs": [
        {
          "internalType": "uint256",
          "name": "amount",
          "type": "uint256"
        },
        {
          "internalType": "address",
          "name": "to",
          "type": "address"
        }
      ],
      "name": "withdrawBankroll",
      "outputs": [],
      "stateMutability": "nonpayable",
      "type": "function"
    }
  ],
  "bytecode": "0x60c0604052346112aa576169c660c0813803918261001c816112af565b9384928339810103126112aa57610032816112d4565b90602081015160ff8116928382036112aa576100556080606085015194016112d4565b33156112945760008054336001600160a01b0319821681178355604051949290916001600160a01b0316907f8be0079c531659141344cd1fd0a4f28419497f9722a3daafe3b4186f6b6457e09080a360018080556005556001600160a01b031691821561126157506001600160a01b031693841561121c5760018110159081611210575b50156111da5760805260a05260b460039081556006918255600780546001600160a01b03191693909317835566038d7ea4c6800060098190556601c6bf52634000600a90815565e35fa931a000600b908155600c9290925569152d02c7e14af68000006010819055600f90815561213460115560027f4c4dc693d7db52f85fe052106f4b4b920e78e8ef37dee82878a60ab8585faf4a8190557fcaff291fe014adc6b72a172705750b4cabe8f8667664d2924a166caab288564a849055601b7ff06d282f967055cb1eee17e04aa005b9682a620f4bbcfaee55ba78607a3d87b1557ff06d282f967055cb1eee17e04aa005b9682a620f4bbcfaee55ba78607a3d87b081905560487fec061709de2491458f4c981032059d7d19b0e55f45018bac6b3e660bdc959a5d5560057fec061709de2491458f4c981032059d7d19b0e55f45018bac6b3e660bdc959a5c81905560017fec061709de2491458f4c981032059d7d19b0e55f45018bac6b3e660bdc959a5b81905561019a7f5696377e725b42a372ecc45f0fbdab5e9555865aef54619ad9381892f667bbf55560127f5696377e725b42a372ecc45f0fbdab5e9555865aef54619ad9381892f667bbf4557f5696377e725b42a372ecc45f0fbdab5e9555865aef54619ad9381892f667bbf383905561044c7fc6a239f207aea309a1b4879cb5411b8facfc2bc1e4cc4717ff2598676c399b655560397fc6a239f207aea309a1b4879cb5411b8facfc2bc1e4cc4717ff2598676c399b64557fc6a239f207aea309a1b4879cb5411b8facfc2bc1e4cc4717ff2598676c399b63989098557fc6a239f207aea309a1b4879cb5411b8facfc2bc1e4cc4717ff2598676c399b628890556107d07f5c9294642c77fdf0ce4b0f45159c977165b1ec2ef3bb94ee3e2a496634c781ef81905560647f5c9294642c77fdf0ce4b0f45159c977165b1ec2ef3bb94ee3e2a496634c781ee8190557f5c9294642c77fdf0ce4b0f45159c977165b1ec2ef3bb94ee3e2a496634c781ed969096557f5c9294642c77fdf0ce4b0f45159c977165b1ec2ef3bb94ee3e2a496634c781ec8290557f5c9294642c77fdf0ce4b0f45159c977165b1ec2ef3bb94ee3e2a496634c781eb989098556127107f5d722ae86c7aff0f95f426cf86f75793e8cd1a526603df14563c190f75fd2efb5561012c7f5d722ae86c7aff0f95f426cf86f75793e8cd1a526603df14563c190f75fd2efa81905560327f5d722ae86c7aff0f95f426cf86f75793e8cd1a526603df14563c190f75fd2ef98190557f5d722ae86c7aff0f95f426cf86f75793e8cd1a526603df14563c190f75fd2ef88590557f5d722ae86c7aff0f95f426cf86f75793e8cd1a526603df14563c190f75fd2ef78490556161a87f650982f08e47212452de30f662e413cf6044e641dedc09b52c1617e804a26127557f650982f08e47212452de30f662e413cf6044e641dedc09b52c1617e804a26126999099557f650982f08e47212452de30f662e413cf6044e641dedc09b52c1617e804a261259590955560147f650982f08e47212452de30f662e413cf6044e641dedc09b52c1617e804a26124557f650982f08e47212452de30f662e413cf6044e641dedc09b52c1617e804a261238190557f650982f08e47212452de30f662e413cf6044e641dedc09b52c1617e804a26122829055620186a07fd5b9797c47f98351da0d9dc8805f06430ade47345ddb9b2bd6f346a04809cc4b556113887fd5b9797c47f98351da0d9dc8805f06430ade47345ddb9b2bd6f346a04809cc4a556101f47fd5b9797c47f98351da0d9dc8805f06430ade47345ddb9b2bd6f346a04809cc49557fd5b9797c47f98351da0d9dc8805f06430ade47345ddb9b2bd6f346a04809cc48979097557fd5b9797c47f98351da0d9dc8805f06430ade47345ddb9b2bd6f346a04809cc478390557fd5b9797c47f98351da0d9dc8805f06430ade47345ddb9b2bd6f346a04809cc46557fd5b9797c47f98351da0d9dc8805f06430ade47345ddb9b2bd6f346a04809cc419590955560176020527ff36d6bc9642eb6fb6ee9998b09ce990566df752ab06e11f8de7ab633bbd57b9084905560217fc52df653038b2ad477d8d97f1ddd63cfd138847b628ad8a7b89c109c3f8782cc81905560517fd8b2bced50346359af71f91110b86cdf684b6ab1c6ca64a7583c044d5c24de5f557fd8b2bced50346359af71f91110b86cdf684b6ab1c6ca64a7583c044d5c24de5e85905560d87f68052a315987b3c92fe6f7df77391bc5a825cabe4950d34f36f8f4e8a6abcb51557f68052a315987b3c92fe6f7df77391bc5a825cabe4950d34f36f8f4e8a6abcb508690557f68052a315987b3c92fe6f7df77391bc5a825cabe4950d34f36f8f4e8a6abcb4f8490556104ce7f70266c3d5b8b2375fded59c72bf5f0d74bbb12fdf645a4c8630629f0191fb31c5560367f70266c3d5b8b2375fded59c72bf5f0d74bbb12fdf645a4c8630629f0191fb31b557f70266c3d5b8b2375fded59c72bf5f0d74bbb12fdf645a4c8630629f0191fb31a859055610ce47fdba639bd458ad7aa817aa5e381ad7ed79ea3aeac2e3d9b2d7c51df9a922970a35560ab7fdba639bd458ad7aa817aa5e381ad7ed79ea3aeac2e3d9b2d7c51df9a922970a25560157fdba639bd458ad7aa817aa5e381ad7ed79ea3aeac2e3d9b2d7c51df9a922970a1557fdba639bd458ad7aa817aa5e381ad7ed79ea3aeac2e3d9b2d7c51df9a922970a08490556117707ffae2f3cf7832fe1c3d9af0d1138f3108106a06e0c9fcfc402be937e37ff7af6d8190557ffae2f3cf7832fe1c3d9af0d1138f3108106a06e0c9fcfc402be937e37ff7af6c8490557ffae2f3cf7832fe1c3d9af0d1138f3108106a06e0c9fcfc402be937e37ff7af6b919091557ffae2f3cf7832fe1c3d9af0d1138f3108106a06e0c9fcfc402be937e37ff7af6a8690557ffae2f3cf7832fe1c3d9af0d1138f3108106a06e0c9fcfc402be937e37ff7af69939093556175307ff573626183c54e3dd8eb68c6c0266a90101d76d98ec703822e6a139999dd765d556103847ff573626183c54e3dd8eb68c6c0266a90101d76d98ec703822e6a139999dd765c5560967ff573626183c54e3dd8eb68c6c0266a90101d76d98ec703822e6a139999dd765b819055602d7ff573626183c54e3dd8eb68c6c0266a90101d76d98ec703822e6a139999dd765a557ff573626183c54e3dd8eb68c6c0266a90101d76d98ec703822e6a139999dd7659859055620124f87f0480f894719e4db46f2c51c98cf5b891889d59db5c7f94573597494ddc8d4aea557f0480f894719e4db46f2c51c98cf5b891889d59db5c7f94573597494ddc8d4ae9939093557f0480f894719e4db46f2c51c98cf5b891889d59db5c7f94573597494ddc8d4ae891909155603c7f0480f894719e4db46f2c51c98cf5b891889d59db5c7f94573597494ddc8d4ae7557f0480f894719e4db46f2c51c98cf5b891889d59db5c7f94573597494ddc8d4ae68490557f0480f894719e4db46f2c51c98cf5b891889d59db5c7f94573597494ddc8d4ae5839055600052620493e07fd01a1030c3796725449ebf72d73ac5540c8aa9c83f796ef75dcf19a390d0383655613a987fd01a1030c3796725449ebf72d73ac5540c8aa9c83f796ef75dcf19a390d03835556105dc7fd01a1030c3796725449ebf72d73ac5540c8aa9c83f796ef75dcf19a390d03834557fd01a1030c3796725449ebf72d73ac5540c8aa9c83f796ef75dcf19a390d0383355601e7fd01a1030c3796725449ebf72d73ac5540c8aa9c83f796ef75dcf19a390d03832557fd01a1030c3796725449ebf72d73ac5540c8aa9c83f796ef75dcf19a390d03831557fd01a1030c3796725449ebf72d73ac5540c8aa9c83f796ef75dcf19a390d0382c5560c0610bf3816112af565b600581526020810160a0368237610c09836112af565b9060058252602082019260a03685376001610c23826112e8565b526002610c2f8261130b565b526003610c3b8261131b565b526005610c478261132b565b52600a610c538261133b565b52603c610c5f846112e8565b526019610c6b8461130b565b52600a610c778461131b565b526004610c838461132b565b526001610c8f8461133b565b5251906001600160401b0382116111105768010000000000000000821161111057600d5482600d5580831061119f575b50600d600052602060002060005b83811061118b5750509151929150506001600160401b0382116111105768010000000000000000821161111057600e5482600e55808310611150575b50600e600052602060002060005b83811061113c5784600160045560035442018042116111265761028091610d3d836112af565b9236843760005b601460ff82161015610d6957600160ff916000611fe08260051b168701520116610d44565b50906060610d76816112af565b938136863760005b600360ff82161015610da357600160ff916000611fe08260051b168901520116610d7e565b5060209385610db1866112af565b906000825260003681376040519361024085016001600160401b03811186821017611110576040526001855260018060401b0342168886015260018060401b038716604086015260008686015260006080860152600060a0860152600084860152600060e086015261010085015261012084015260006101408401526000610160840152600061018084015260006101a084015260006101c084015260006101e084015260006102008401526102208301526001600052601885526040600020908251825560018060401b0386840151169360018301549068010000000000000000600160801b03604086015160401b16908501519560038710156110fa5760009660ff60801b9060801b169260018060881b03191617171760018301556080830151600283015560a0830151600383015560ff60048301918401511681549061ff0060e086015160081b169161ffff1916171790556101008201518390845b87601482106110d55750505060058201556101208201518390845b87600382106110b05750505060068201556101408201516007820155610160820151600882015561018082015160098201556101a0820151600a8201556101c0820151600b8201556101e0820151600c820155610200820151600d82015561022090910151805192600e90920191906001600160401b03841161109c5768010000000000000000841161109c5785908354858555808610611082575b5001918152848120905b83811061107057600454604080516001600160401b0342811682528816898201527fb9574e0faab8124549420ceb05e8203d89eacae04d747d51d12d373b600dbe9b9190a26040516156639081611363823960805181818161040501528181610feb015281816118a301528181611f17015281816128da01526153bc015260a0518181816106ce015281816117ad0152818161267e01526128740152f35b82518282015591850191600101610fd2565b84845282842061109691810190870161134b565b87610fc8565b634e487b7160e01b82526041600452602482fd5b82519293919260019260ff600386901b81811b199092169216901b1793019101610f2c565b82519293919260019260ff600386901b81811b199092169216901b1793019101610f11565b634e487b7160e01b600052602160045260246000fd5b634e487b7160e01b600052604160045260246000fd5b634e487b7160e01b600052601160045260246000fd5b600190602084519401938184015501610d17565b600e600052611185907fbb7b4a454dc3493923482f07822329ed19e8244eff582cc204f8554c3620c3fd90810190840161134b565b38610d09565b600190602084519401938184015501610ccd565b600d6000526111d4907fd7b6990105719101dabeb77144f2a3385c8033acd3af97e9423a695e81ad1eb590810190840161134b565b38610cbf565b60405162461bcd60e51b815260206004820152600e60248201526d6d617853706f7420626f756e647360901b6044820152606490fd5b601491501115386100d9565b60405162461bcd60e51b815260206004820152601660248201527f66656520726563697069656e74207265717569726564000000000000000000006044820152606490fd5b62461bcd60e51b815260206004820152600e60248201526d1d1bdad95b881c995c5d5a5c995960921b6044820152606490fd5b631e4fbdf760e01b600052600060045260246000fd5b600080fd5b6040519190601f01601f191682016001600160401b0381118382101761111057604052565b51906001600160a01b03821682036112aa57565b8051156112f55760200190565b634e487b7160e01b600052603260045260246000fd5b8051600110156112f55760400190565b8051600210156112f55760600190565b8051600310156112f55760800190565b8051600410156112f55760a00190565b818110611356575050565b6000815560010161134b56fe6080604052600436101561001257600080fd5b60003560e01c80630476828a14612e635780630656db8214612e2457806309f6528b14612db8578063127873f714612ca157806319688f7314612c8557806324a9d85314612c6757806324fd143914612a4a57806328ca6b5914612a1057806331467260146129f2578063325f95d5146129d65780633469f6e21461293257806334efa8e5146128985780633614e8dc1461285a57806336c92c3f1461280e5780633c3ccc44146126ea5780633d2dec4e146126a85780633f290390146125fd5780633f4ba83a146125945780633fbf2bad14611e4557806342f815801461257657806344d855f11461252c57806345af8d991461250e57806345e8ae1a146124e757806346904840146124be5780634fd66eae1461240257806350b447121461237557806353d8bb3a146122a257806357db6e1d146122005780635b1d29d6146121e45780635c975abb146121c15780636031a52f146121a3578063643082e21461218557806369ef5e59146121675780636b4169c31461212d5780636c09066d1461210f5780636f1ae098146120f1578063715018a6146120985780637170378e1461201b5780637439771b14611f575780637cfcf16814611ece5780637dc379fa14611e8a57806380891ad214611e6157806383f7c92c14611e455780638456cb5914611deb578063868730c714611d845780638866833814611d66578063895cea5e14611d2457806389930d4314611d085780638adac03614611cce5780638c65c81f14611be35780638da5cb5b14611bba5780638ed2b47e14611b815780638f1327c014611a4957806390199aa514611a2d578063901f03221461181b5780639c2167cf146117f25780639cbe5efd146117d45780639e20499414610e99578063a361b84a14610e7b578063a48f066d14610dd9578063a54ab45714610da1578063a56d760114610d65578063a8a6283114610d47578063ae45439314610d29578063b15fbc1414610cbd578063b4f2e8b814610bf3578063c349026314610bac578063c4aaefc514610b6d578063ce9bf5ac14610b44578063cee3b9b914610b0a578063d0074c1314610aee578063d14825c014610a9d578063d38ab26314610a71578063d453648114610a23578063d51fb0ae14610a05578063d78a36ec146109e7578063db2e583b146107cb578063db2f6283146107ad578063dc2e450c146106f8578063dce9afba1461060d578063ddf6d6fb146105cd578063e1a45218146105b0578063e1a9888e14610584578063e49abc9314610566578063e534f6521461052c578063f2fde38b146104a3578063f6f1f89714610457578063f7cb789a146104395763fc0c546a146103ef57600080fd5b34610434576000366003190112610434576040517f00000000000000000000000000000000000000000000000000000000000000006001600160a01b03168152602090f35b600080fd5b34610434576000366003190112610434576020600354604051908152f35b34610434576020366003190112610434577f2842cf99332cf44653926376c4c0f5d0f91b749469ac9999bb1c6c9d728b1ba86020600435610496613c0c565b80600955604051908152a1005b34610434576020366003190112610434576104bc613204565b6104c4613c0c565b6001600160a01b0316801561051657600080546001600160a01b03198116831782556001600160a01b0316907f8be0079c531659141344cd1fd0a4f28419497f9722a3daafe3b4186f6b6457e09080a3005b631e4fbdf760e01b600052600060045260246000fd5b34610434576020366003190112610434576001600160a01b0361054d613204565b16600052601f6020526020604060002054604051908152f35b34610434576000366003190112610434576020600c54604051908152f35b3461043457602036600319011261043457600435600052601c6020526020604060002054604051908152f35b346104345760003660031901126104345760206040516127108152f35b34610434576105db36613185565b90600052601a60205260406000208054821015610434576020916105fe91613304565b90549060031b1c604051908152f35b34610434577f7c636c44ca37fb8b4482d3e2bf0ac721f3252e0fcb6ee01411019deae2f584eb6106c661063f366132a0565b61064a939193613c0c565b60ff83166001811015806106cb575b6106629061375f565b6106718160ff8716111561379f565b60005260176020526106a48161068b86604060002061327a565b90919082549060031b91821b91600019901b1916179055565b6040519384938460ff6040929594938160608401971683521660208201520152565b0390a1005b507f000000000000000000000000000000000000000000000000000000000000000060ff16811115610659565b346104345761070636613185565b6008549091906001600160a01b0316330361079c5780600052601860205260406000209160ff600184015460801c16600381101561078657600214610754576003610752930155614c8f565b005b60405162461bcd60e51b815260206004820152600a602482015269726f756e6420646f6e6560b01b6044820152606490fd5b634e487b7160e01b600052602160045260246000fd5b637b91e42d60e11b60005260046000fd5b34610434576000366003190112610434576020600a54604051908152f35b34610434576107d93661331c565b6107e593929193613c0c565b6107f0818314613945565b6000805b8281106109c75750156109b6576001600160401b03821161093157600160401b821161093157600d5482600d5580831061097b575b5082600d60005260005b8381106109475750506001600160401b03811161093157600160401b811161093157600e5481600e558082106108f6575b5083600e60005260005b8281106108c25750507f6b0e7669182bc03c544cb21580a41bae7373cae7514b6f8aa92e2a1fa866e9cf936106c6916108b4604051958695604087526040870191613b5b565b918483036020860152613b5b565b60019060208335930192817fbb7b4a454dc3493923482f07822329ed19e8244eff582cc204f8554c3620c3fd01550161086e565b600e60005261092b907fbb7b4a454dc3493923482f07822329ed19e8244eff582cc204f8554c3620c3fd908101908301613a09565b84610864565b634e487b7160e01b600052604160045260246000fd5b60019060208335930192817fd7b6990105719101dabeb77144f2a3385c8033acd3af97e9423a695e81ad1eb5015501610833565b600d6000526109b0907fd7b6990105719101dabeb77144f2a3385c8033acd3af97e9423a695e81ad1eb5908101908401613a09565b84610829565b635ddc0d0560e01b60005260046000fd5b906109e06001916109d984868a613492565b3590613717565b91016107f4565b34610434576000366003190112610434576020602454604051908152f35b34610434576000366003190112610434576020602554604051908152f35b34610434577fcda926b273cdda34d70f34eec47ed98ffa88633adf73ab9d60f5d278944e743c6040610a5436613185565b610a5c613c0c565b81600a5580600b5582519182526020820152a1005b3461043457602036600319011261043457600435600052601d6020526020604060002054604051908152f35b346104345760003660031901126104345760e0600f54601054600c54601254601354906014549260155494604051968752602087015260408601526060850152608084015260a083015260c0820152f35b3461043457600036600319011261043457602060405160028152f35b34610434576020366003190112610434576001600160a01b03610b2b613204565b1660005260216020526020604060002054604051908152f35b34610434576000366003190112610434576008546040516001600160a01b039091168152602090f35b34610434576020366003190112610434576001600160a01b03610b8e613204565b166000526026602052602060ff604060002054166040519015158152f35b3461043457610bed610bbd36613185565b610bc5613d44565b610bcd613d61565b816000526018602052610be6604060002054151561362f565b3391614383565b60018055005b3461043457604036600319011261043457600435610c0f61321a565b610c17613c0c565b6001600160a01b03168015610c835781604091610c596127107f7cfad8b150be9751a5386cc4e0f549618032ff63d14fab4f77cd4b0aaaedc242951115613983565b81600655806bffffffffffffffffffffffff60a01b600754161760075582519182526020820152a1005b60405162461bcd60e51b81526020600482015260126024820152711c9958da5c1a595b9d081c995c5d5a5c995960721b6044820152606490fd5b34610434576020366003190112610434577f87b050f471f7331bfd8fc9347cd54894f2ae6663e3339e49ca0d8b2dbe792eb26020610cf9613204565b610d01613c0c565b600880546001600160a01b0319166001600160a01b03929092169182179055604051908152a1005b34610434576000366003190112610434576020601454604051908152f35b34610434576000366003190112610434576020600f54604051908152f35b3461043457606036600319011261043457610d9d610d91610d84613204565b6044359060243590613a84565b60405191829182613230565b0390f35b3461043457610daf36613185565b90600052601b602052604060002090600052602052602060ff604060002054166040519015158152f35b34610434576060366003190112610434576044356001600160a01b03811690602435906004359083810361043457303303610e4657610e19908383614383565b7f5ba6ae1472fa1f95a2f30d31b71199a65d64245b831cffe47667ebe85debeae4602060405160008152a4005b60405162461bcd60e51b815260206004820152600d60248201526c696e7465726e616c206f6e6c7960981b6044820152606490fd5b34610434576000366003190112610434576020602354604051908152f35b346104345760c0366003190112610434576004356024356001600160401b03811161043457610ecc903690600401612fdb565b91906044359060ff8216809203610434576064359360ff8516809503610434576084359461ffff86169485870361043457610f3260a43591610f0c613d44565b610f14613d61565b806000526018602052610f2d604060002054151561362f565b61483b565b938460005260186020526001861080156117a8575b61179757821561140657600954801515908161178d575b5061177c5760005b8381106114225750610f7788613b7f565b60009386810361140657906000989298915b8083106113b557505050610fa6610fa08883613ba0565b88613717565b968791611029610fda85610fd481610fce612710610fc66006548b613724565b048099613a54565b9d613724565b95613724565b610fe4868c613724565b60075490917f00000000000000000000000000000000000000000000000000000000000000009161102091906001600160a01b031633846147f7565b309033906147f7565b87600360055496611039886139fa565b6005558760ff8a8c6040519661104e88613388565b3388526001600160401b03602089019316835260408801918c8352606089019081526080890191825260a08901938d855260c08a01968c885260e08b01988952600052601960205260406000209960018060a01b039051166bffffffffffffffffffffffff60a01b8b5416178a55518954938660e01b905160e01b16918660e81b905160e81b169261ffff60f01b905160f01b169360018060f01b03916001600160401b0360a01b9060a01b169069ffffffffffffffffffff60a01b191617161717178655511660ff60018601911660ff19825416179055516002840155519101556000986001821615156002831615159a600860048516151594161515905b8781106112b25750505050507f96f06edce356a6f04cc55aeea56c38fcad8c40121241354d668655db1bae953c975033600052601e602052611194846040600020613a61565b33600052602160205260406000206111ac81546139fa565b905533600052601f60205260406000206111c7838254613717565b90556111d46025546139fa565b96876025556111e583602354613717565b968760235560405194855260208501526040840152606083015260808201527fecc7a5b32957f4be7b9653484d7f9aec9d5b017fa0dbbff4899ec4cb9df0334f60a03392a4336000818152601f60209081526040808320548280528184205460218452828520546022855294839020548351928352938201529081019290925260608201527f78fd00d2280ad673955b1833960b0bf5a1742150d319de0633d09ba981e8d21690608090a2602454604080519283526020830191909152810191909152606090a160018055005b8060098e6112c26001948e613717565b80600052601a6020526112d98d6040600020613a61565b60005260186020528488604060002092888c6112fa60088701918254613717565b905561139c575b611383575b61136d575b611324575b0161131c868254613717565b90550161114e565b600c54611336600d8301918254613717565b905561136561271061134d600c5460115490613724565b0461135a81600f54613717565b600f55601254613717565b601255611310565b600c820161137c8b8254613717565b905561130b565b600b54611395600b8501918254613717565b9055611306565b600a546113ae600a8601918254613717565b9055611301565b9091946113c68683859c969c613492565b3560ff8116808203610434578015908115611417575b506114065760ff6113ee600192613c46565b161b8082166114065793999317946001019190610f89565b631d2fd6ad60e11b60005260046000fd5b60509150118c6113dc565b61142c8187613717565b8060005260186020526040600020541561144a575b50600101610f66565b60001981018181116117665760005260186020526001600160401b0360016040600020015460401c1642811060001461175857506001600160401b03425b166001600160401b0361149d60035483613717565b16906114a76152ef565b6114af615332565b604051602092916114c084836133a4565b600082526000368137604051926114d68461336c565b87845285858501528660408501526000606085015260006080850152600060a0850152600060c0850152600060e085015261010084015261012083015260006101408301526000610160830152600061018083015260006101a083015260006101c083015260006101e083015260006102008301526102208201528460005260188252604060002081518155600181016001600160401b03808585015116166001600160401b031982541617815561159b6001600160401b0360408501511682613737565b60608301516003811015610786576115b291613d83565b6080820151600282015560a082015160038201556115fd6004820160ff8060c0860151161660ff1982541617815560ff60e08501511661ff0082549160081b169061ff001916179055565b610100820151600090815b8560148210611733575050506005820155610120820151600090815b856003821061170e5750505081600e9160066102209401556101408401516007820155610160840151600882015561018084015160098201556101a0840151600a8201556101c0840151600b8201556101e0840151600c820155610200840151600d82015501910151918251926001600160401b0384116109315781906116ab8585613a20565b0191600052806000209060005b8481106116fc575050604080516001600160401b03958616815295909416602086015250600195949360008051602061560e8339815191529392509050a290611441565b835183820155928101926001016116b8565b82519293919260019260ff600386901b81811b199092169216901b1793019101611624565b82519293919260019260ff600386901b81811b199092169216901b1793019101611608565b6001600160401b0390611488565b634e487b7160e01b600052601160045260246000fd5b63cfc0057560e01b60005260046000fd5b9050821189610f5e565b63dcf35d5160e01b60005260046000fd5b5060ff7f0000000000000000000000000000000000000000000000000000000000000000168611610f47565b34610434576000366003190112610434576020600454604051908152f35b3461043457602036600319011261043457600435600d54811015610434576105fe6020916132e9565b3461043457602036600319011261043457600435611837613d44565b61183f613d61565b806000526018602052611858604060002054151561362f565b806000526018602052604060002060ff600182015460801c16906003821015610786576118896002600e93146139be565b0190815480156119fb57600f54906118a18183613925565b7f000000000000000000000000000000000000000000000000000000000000000060005b8381106119555786866118da87601354613717565b6013556118e86014546139fa565b601455601555601054600f5580546000825580611939575b7e40c0e3f46f76397857d4a8a57bc7716d70dfc76d1ab3f23decc9208b5834c56040600f5460125482519182526020820152a160018055005b61194e91600052602060002090810190613a09565b8080611900565b8061196260019289613304565b90549060031b1c806000526019602052604060002061198a86858060a01b0383541687613fd1565b838060a01b038154166000526020805260406000206119aa878254613717565b90556119b886602454613717565b602455838060a01b0390541690887f2eb6ee5835c4d14c2b95c6f3d9e30619a306083c0562030e7d84755854e5e306604080518b8152896020820152a4016118c5565b60405162461bcd60e51b815260206004820152600a6024820152696e6f2077696e6e65727360b01b6044820152606490fd5b3461043457600036600319011261043457602060405160048152f35b3461043457602036600319011261043457611a626133dc565b506004356000526018602052610d9d6040600020611b67600e60405192611a888461336c565b80548452611ac460ff60018301546001600160401b03811660208801526001600160401b038160401c16604088015260801c16606086016134b6565b60028101546080850152600381015460a085015260ff600482015481811660c087015260081c1660e0850152611afc600582016134c2565b610100850152611b0e600682016135b8565b610120850152600781015461014085015260088101546101608501526009810154610180850152600a8101546101a0850152600b8101546101c0850152600c8101546101e0850152600d810154610200850152016135e4565b610220820152604051918291602083526020830190613018565b34610434576020366003190112610434576001600160a01b03611ba2613204565b16600052602080526020604060002054604051908152f35b34610434576000366003190112610434576000546040516001600160a01b039091168152602090f35b3461043457602036600319011261043457600435600052601860205260406000208054906001810154906002810154600382015460048301546007840154600885015490600986015492600a87015494600b88015496600c89015498600d0154996040519b8c526001600160401b03811660208d01528060401c6001600160401b031660408d015260608c019060801c60ff1690611c809161300b565b60808b015260a08a015260ff811660c08a015260081c60ff1660e08901526101008801526101208701526101408601526101608501526101808401526101a08301526101c08201526101e090f35b34610434576020366003190112610434576001600160a01b03611cef613204565b1660005260226020526020604060002054604051908152f35b3461043457600036600319011261043457602060405160508152f35b3461043457604036600319011261043457611d3d61326a565b60ff6024359116600052601760205260406000206010821015610434576020916105fe9161327a565b34610434576000366003190112610434576020601154604051908152f35b346104345760203660031901126104345760043580151580910361043457336000526026602052604060002060ff1981541660ff83161790556040519081527fe8d1e64f2bcd39338b4e01da5a5b075ca0c23648ee7e603e08f4740a94554dfc60203392a2005b3461043457600036600319011261043457611e04613c0c565b611e0c613d44565b600160ff1960025416176002557f62e78cea01bee320cd4e420270b5ea74000d11b0c9f74754ebdbfc544b05a2586020604051338152a1005b3461043457600036600319011261043457602060405160018152f35b3461043457602036600319011261043457600435600e54811015610434576105fe6020916132ce565b3461043457602036600319011261043457611ea361366b565b506004356000526019602052610100611ebf60406000206136a8565b611ecc604051809261319b565bf35b34610434576020366003190112610434577e40c0e3f46f76397857d4a8a57bc7716d70dfc76d1ab3f23decc9208b5834c56040611f43600435611f0f613c0c565b611f3b8130337f00000000000000000000000000000000000000000000000000000000000000006147f7565b600f54613717565b80600f5560125482519182526020820152a1005b3461043457602036600319011261043457600435611f73613c0c565b611f7b613d61565b806000526018602052611f94604060002054151561362f565b600052601860205260016040600020015460ff8160801c1690600382101561078657611fca60026001600160401b0393146139be565b60401c1662ed4e00810180911161176657421115611fe85760018055005b60405162461bcd60e51b815260206004820152600b60248201526a1b9bdd08195e1c1a5c995960aa1b6044820152606490fd5b34610434576060366003190112610434577fea23a808c77d9c1bfece65b21a325d1ec2d926633c1c7a8b219dc89f3858cfc06024356004356106c6604435612061613c0c565b61206f612710821115613983565b8260105583600c5580601155604051938493846040919493926060820195825260208201520152565b34610434576000366003190112610434576120b1613c0c565b600080546001600160a01b0319811682556001600160a01b03167f8be0079c531659141344cd1fd0a4f28419497f9722a3daafe3b4186f6b6457e08280a3005b34610434576000366003190112610434576020601554604051908152f35b34610434576000366003190112610434576020600b54604051908152f35b3461043457600036600319011261043457602354602454602554600454604080519485526020850193909352918301526060820152608090f35b34610434576000366003190112610434576020601354604051908152f35b34610434576000366003190112610434576020600954604051908152f35b34610434576000366003190112610434576020600554604051908152f35b3461043457600036600319011261043457602060ff600254166040519015158152f35b3461043457600036600319011261043457602060405160038152f35b346104345761220e3661331c565b919290612219613d44565b612221613d61565b61222c838514613945565b831561226e5760005b8481106122425760018055005b806122686122536001938887613492565b353390612261848988613492565b3590614383565b01612235565b60405162461bcd60e51b815260206004820152600c60248201526b656d7074792061727261797360a01b6044820152606490fd5b34610434576122b036613185565b6122b8613c0c565b8160005260186020526122d1604060002054151561362f565b81600052601c6020526040600020546040516020810190838252602081526122fa6040826133a4565b5190200361233e5760207f4704c5ba8acad9b83e07ffdd1fd6cf6192c8abd0611e3c8251b6fbd867d578769183600052601d825280604060002055604051908152a2005b60405162461bcd60e51b815260206004820152600f60248201526e0c6dedadad2e840dad2e6dac2e8c6d608b1b6044820152606490fd5b34610434576020366003190112610434576004356000526019602052610100604060002080549060ff6001820154169060036002820154910154916040519360018060a01b03811685526001600160401b038160a01c16602086015260ff8160e01c16604086015260ff8160e81c16606086015260f01c608085015260a084015260c083015260e0820152f35b34610434576020366003190112610434576001600160a01b03612423613204565b166000908152601f6020908152604080832054828052818420546021845282852054602290945291909320549092919081156124b65761271081028181046127101482151715611766578261247791613925565b905b8385039260008512868512811690878613901516176117665760c095604051958652602086015260408501526060840152608083015260a0820152f35b600090612479565b34610434576000366003190112610434576007546040516001600160a01b039091168152602090f35b346104345760406125006124fa36613185565b906137df565b825191151582526020820152f35b34610434576000366003190112610434576020601054604051908152f35b3461043457604036600319011261043457612545613204565b6001600160a01b03166000908152601e6020526040902080546024359190821015610434576020916105fe91613304565b3461043457600036600319011261043457602060405162ed4e008152f35b34610434576000366003190112610434576125ad613c0c565b60025460ff8116156125ec5760ff19166002557f5db9ee0a495bf2e6ff9c91a7834c1ba4fdd244a5e8aa4e537bd38aeae4b073aa6020604051338152a1005b638dfc202b60e01b60005260046000fd5b34610434577f226c035c58a3af0339491203d91bfea130eb356c2c1c1834d5bd479fcd3279206106c661262f366132a0565b61263a939193613c0c565b60ff831660018110158061267b575b6126529061375f565b6126618160ff8716111561379f565b60005260166020526106a48161068b86604060002061327a565b507f000000000000000000000000000000000000000000000000000000000000000060ff16811115612649565b34610434576040366003190112610434576126c161326a565b60ff6024359116600052601660205260406000206010821015610434576020916105fe9161327a565b3461043457600036600319011261043457612703613d44565b61270b613c0c565b612716600454614011565b600454600181018091116117665760008181526018602052604090205415612803578060005260186020526001600160401b0360016040600020015416156127a4575b60048190556000818152601860209081526040918290206001015482516001600160401b03808316825291841c9091169181019190915260008051602061560e8339815191529190a2005b80600052601860205260016040600020016001600160401b03804216166001600160401b03198254161790556127fe6001600160401b036127e760035442613717565b168260005260186020526001604060002001613737565b612759565b61075290429061406e565b34610434576020366003190112610434577fa43b887135e50a579b92d986f6a117baa67f560bee7c2f4bcfded56317d4e555602060043561284d613c0c565b80600355604051908152a1005b3461043457600036600319011261043457602060405160ff7f0000000000000000000000000000000000000000000000000000000000000000168152f35b34610434576040366003190112610434576128b161321a565b6128b9613c0c565b6128c1613d61565b6001600160a01b038116156128fe57610bed90600435907f0000000000000000000000000000000000000000000000000000000000000000613fd1565b60405162461bcd60e51b815260206004820152600c60248201526b7a65726f206164647265737360a01b6044820152606490fd5b346104345760203660031901126104345760043561294e613d44565b612956613d61565b80600052601860205261296f604060002054151561362f565b8060005260186020526040600020600181015460ff8160801c166003811015610786576002146129c55760401c6001600160401b031642106129b457610bed91613da7565b63280ae12160e21b60005260046000fd5b630653ad9b60e31b60005260046000fd5b3461043457600036600319011261043457602060405160088152f35b34610434576000366003190112610434576020601254604051908152f35b34610434576020366003190112610434576001600160a01b03612a31613204565b16600052601e602052610d9d610d9160406000206135e4565b3461043457602036600319011261043457612a63613204565b6001600160a01b03166000908152601e60205260408120805490825b828110612a9157602084604051908152f35b612a9b8183613304565b90549060031b1c8060005260196020526040600020600090805460ff8160e01c16926001600160401b038260a01c16905b848110612ae157505050505050600101612a7f565b612aeb8183613717565b80600052601860205260406000209060ff600183015460801c166003811015610786576002149081612c41575b50612b27575b50600101612acc565b612bd2906001929b8560f01c9184612bbd612b7160038b015460ff600486015460081c16612b57600587016134c2565b9160048916151592612b6b600689016135b8565b91613c6a565b9060028c015460ff8c60e81c1691826000526016602052612ba6612b9982604060002061327a565b90549060031b1c83613724565b9260009480612c35575b612c06575b505050613717565b9316151580612bfd575b612bd9575b50613717565b9990612b1e565b600701549091612bf09180612bf757508490613724565b908d612bcc565b90613724565b50821515612bc7565b90604085612c1f93612c2c96975260176020522061327a565b90549060031b1c90613724565b90388080612bb5565b5060028a161515612bb0565b9050600052601b60205260406000208760005260205260ff60406000205416158c612b18565b34610434576000366003190112610434576020600654604051908152f35b3461043457600036600319011261043457602060405160148152f35b34610434576020366003190112610434576004356001600160401b03811161043457612cd1903690600401612fdb565b90612cdb826133c5565b91612ce960405193846133a4565b808352601f19612cf8826133c5565b0160005b818110612da157505060005b818110612d61578360405180916020820160208352815180915260206040840192019060005b818110612d3c575050500390f35b91935091602061010082612d53600194885161319b565b019401910191849392612d2e565b80612d6f6001928486613492565b356000526019602052612d8560406000206136a8565b612d8f82876134a2565b52612d9a81866134a2565b5001612d08565b602090612dac61366b565b82828801015201612cfc565b346104345760207fcf522dc435d37dc8c46f84c4d158065e47451f0a0b8d1168dc5b5ad30608e66c612de936613185565b612df4939193613c0c565b8360005260188252612e0c604060002054151561362f565b83600052601c825280604060002055604051908152a2005b346104345760403660031901126104345760043561ffff8116810361043457612e5b81612e52602093613b7f565b60243590613ba0565b604051908152f35b34610434576020366003190112610434576004356001600160401b03811161043457612e93903690600401612fdb565b90612e9d826133c5565b91612eab60405193846133a4565b808352601f19612eba826133c5565b0160005b818110612fc457505060005b818110612f3957836040518091602082016020835281518091526040830190602060408260051b8601019301916000905b828210612f0a57505050500390f35b91936001919395506020612f298192603f198a82030186528851613018565b9601920192018594939192612efb565b80612f476001928486613492565b3560005260186020526040600020612fa2600e60405192612f678461336c565b80548452611ac460ff878301546001600160401b03811660208801526001600160401b038160401c16604088015260801c16606086016134b6565b610220820152612fb282876134a2565b52612fbd81866134a2565b5001612eca565b602090612fcf6133dc565b82828801015201612ebe565b9181601f84011215610434578235916001600160401b038311610434576020808501948460051b01011161043457565b9060038210156107865752565b6104e0820190805183526001600160401b0360208201511660208401526001600160401b03604082015116604084015261305a6060820151606085019061300b565b6080810151608084015260a081015160a084015260ff60c08201511660c084015260ff60e08201511660e084015261010081015161010084016000905b6014821061316c57505050610120810151600061038085015b60038210613153575050506105006102208261014060209401516103e08701526101608101516104008701526101808101516104208701526101a08101516104408701526101c08101516104608701526101e08101516104808701526102008101516104a08701520151936104e06104c082015284518094520192019060005b81811061313d5750505090565b8251845260209384019390920191600101613130565b60208060019260ff8651168152019301910190916130b0565b60208060019260ff865116815201930191019091613097565b6040906003190112610434576004359060243590565b60e0809160018060a01b0381511684526001600160401b03602082015116602085015260ff604082015116604085015260ff606082015116606085015261ffff608082015116608085015260ff60a08201511660a085015260c081015160c08501520151910152565b600435906001600160a01b038216820361043457565b602435906001600160a01b038216820361043457565b602060408183019282815284518094520192019060005b8181106132545750505090565b8251845260209384019390920191600101613247565b6004359060ff8216820361043457565b601082101561328a570190600090565b634e487b7160e01b600052603260045260246000fd5b60609060031901126104345760043560ff81168103610434579060243560ff81168103610434579060443590565b600e5481101561328a57600e60005260206000200190600090565b600d5481101561328a57600d60005260206000200190600090565b805482101561328a5760005260206000200190600090565b6040600319820112610434576004356001600160401b038111610434578161334691600401612fdb565b92909291602435906001600160401b0382116104345761336891600401612fdb565b9091565b61024081019081106001600160401b0382111761093157604052565b61010081019081106001600160401b0382111761093157604052565b90601f801991011681019081106001600160401b0382111761093157604052565b6001600160401b0381116109315760051b60200190565b604051906133e98261336c565b816000815260006020820152600060408201526000606082015260006080820152600060a0820152600060c0820152600060e08201526102806040519061343081836133a4565b36823761010082015261022060609160405161344c84826133a4565b8336823761012082015260006101408201526000610160820152600061018082015260006101a082015260006101c082015260006101e082015260006102008201520152565b919081101561328a5760051b0190565b805182101561328a5760209160051b010190565b60038210156107865752565b9060ff60405192548181168452818160081c166020850152818160101c166040850152818160181c166060850152818160201c166080850152818160281c1660a0850152818160301c1660c0850152818160381c1660e0850152818160401c16610100850152818160481c16610120850152818160501c16610140850152818160581c16610160850152818160601c16610180850152818160681c166101a0850152818160701c166101c0850152818160781c166101e0850152818160801c16610200850152818160881c16610220850152818160901c1661024085015260981c166102608301526135b6610280836133a4565b565b9060ff60405192548181168452818160081c16602085015260101c1660408301526135b66060836133a4565b906040519182815491828252602082019060005260206000209260005b8181106136165750506135b6925003836133a4565b8454835260019485019487945060209093019201613601565b1561363657565b60405162461bcd60e51b815260206004820152600d60248201526c726f756e64206d697373696e6760981b6044820152606490fd5b6040519061367882613388565b600060e0838281528260208201528260408201528260608201528260808201528260a08201528260c08201520152565b906040516136b581613388565b60e060038294805460018060a01b03811685526001600160401b038160a01c16602086015260ff81851c16604086015260ff8160e81c16606086015260f01c608085015260ff60018201541660a0850152600281015460c08501520154910152565b9190820180921161176657565b8181029291811591840414171561176657565b9067ffffffffffffffff60401b82549160401b169067ffffffffffffffff60401b1916179055565b1561376657565b60405162461bcd60e51b815260206004820152601160248201527073706f74206f7574206f662072616e676560781b6044820152606490fd5b156137a657565b60405162461bcd60e51b815260206004820152601160248201527068697473206f7574206f662072616e676560781b6044820152606490fd5b81600052601860205260406000209060ff600183015460801c1660038110156107865760020361391a576000526019602052613828604060002092613823846136a8565b614343565b156139105760016138ab60028454948560f01c9560ff61387060038401548260048a015460081c1661385c60058b016134c2565b9160048c16151592612b6b60068d016135b8565b94909301549160e81c1691826000526016602052613895612b9982604060002061327a565b9260009480613904575b6138e757505050613717565b92161515806138de575b6138c1575b5080151591565b600701546138d8919080612bf75750600190613724565b386138ba565b508115156138b5565b612c2c93945090612c1f916000526017602052604060002061327a565b5060028916151561389f565b5050600090600090565b505050600090600090565b811561392f570490565b634e487b7160e01b600052601260045260246000fd5b1561394c57565b60405162461bcd60e51b815260206004820152600f60248201526e0d8cadccee8d040dad2e6dac2e8c6d608b1b6044820152606490fd5b1561398a57565b60405162461bcd60e51b815260206004820152600c60248201526b0cccaca40e8dede40d0d2ced60a31b6044820152606490fd5b156139c557565b60405162461bcd60e51b815260206004820152600d60248201526c1b9bdd08199a5b985b1a5e9959609a1b6044820152606490fd5b60001981146117665760010190565b818110613a14575050565b60008155600101613a09565b90600160401b811161093157815490808355818110613a3e57505050565b6135b69260005260206000209182019101613a09565b9190820391821161176657565b90815491600160401b831015610931578261068b9160016135b695018155613304565b6001600160a01b03166000908152601e602052604090208054919290919081841015613b3d57613ac891613ab9859283613717565b90808211613b35575b50613a54565b90613ad2826133c5565b92613ae060405194856133a4565b828452601f19613aef846133c5565b0136602086013760005b838110613b07575050505090565b80613b1d613b1760019385613717565b85613304565b90549060031b1c613b2e82886134a2565b5201613af9565b905038613ac2565b50505050604051613b4f6020826133a4565b60008152600036813790565b81835290916001600160fb1b0383116104345760209260051b809284830137010190565b61ffff600f8092171603613b8f57565b6308aacfc360e31b60005260046000fd5b6000929160018216613c02575b60028216613bee575b60048216613bda575b50600816613bc957565b90613bd790600c5490613717565b90565b613be79060089294613717565b9290613bbf565b92613bfc90600b5490613717565b92613bb6565b600a549350613bad565b6000546001600160a01b03163303613c2057565b63118cdaa760e01b6000523360045260246000fd5b90601481101561328a5760051b0190565b60ff6000199116019060ff821161176657565b90600381101561328a5760051b0190565b9291939060009560009060005b60ff81166014811015613cd857613c9060ff9186613c35565b5116600160ff613c9f83613c46565b161b8816613cb4575b5060010160ff16613c77565b98613cbe906139fa565b9860ff871614613ccf575b38613ca8565b60019250613cc9565b5050935094919050613ce957509050565b60005b60ff81166003811015613d3d5760ff613d1281613d0b60019487613c59565b5116613c46565b161b8416613d26575b60010160ff16613cec565b946001613d3460ff926139fa565b96915050613d1b565b5050509050565b60ff60025416613d5057565b63d93c066560e01b60005260046000fd5b600260015414613d72576002600155565b633ee5aeb560e01b60005260046000fd5b90600381101561078657815460ff60801b191660809190911b60ff60801b16179055565b60018201805460801c60ff1693929060038510156107865760028514613d3d5760009415613f95575b506003810190815415613deb575b50506135b6919250614c8f565b60085485906001600160a01b031680151580613f89575b613ec05750839052601c6020526040852054151580613eab575b15613e3e5750604084836135b6959652601d602052205490555b829138613dde565b600019430190438211613e975794604060086135b69697015491858152601a60205220546040519160208301934084528560408401526060830152608082015260808152613e8d60a0826133a4565b5190209055613e36565b634e487b7160e01b86526011600452602486fd5b50828552601d60205260408520541515613e1c565b8460208392602460405180968193637363ae1f60e01b83528660048401525af1928315613f7e578293613f27575b507e5ad2040ac867410a5ddf8877ff0229f6d92669359e59c28426092325ebfc716020600494604051908152a2637b91e42d60e11b8152fd5b92506020833d602011613f76575b81613f42602093836133a4565b81010312613f72579151917e5ad2040ac867410a5ddf8877ff0229f6d92669359e59c28426092325ebfc71613eee565b5080fd5b3d9150613f35565b6040513d84823e3d90fd5b50600283015415613e02565b805460ff60801b1916600160801b179055817fe9f7d7fd0b133404f0ccff737d6f3594748e04bc5507adfaed35835ef98937118580a238613dd0565b60405163a9059cbb60e01b60208201526001600160a01b0390921660248301526044808301939093529181526135b69161400c6064836133a4565b615288565b80600052601860205260406000208054158015614051575b61404d576001600160401b03600182015460401c16421061404d576135b691613da7565b5050565b5060ff600182015460801c16600381101561078657600214614029565b906001600160401b0361408360035483613717565b1661408c6152ef565b614094615332565b604051602092916140a584836133a4565b600082526000368137604051926140bb8461336c565b8784526001600160401b038716858501528560408501526000606085015260006080850152600060a0850152600060c0850152600060e085015261010084015261012083015260006101408301526000610160830152600061018083015260006101a083015260006101c083015260006101e083015260006102008301526102208201528460005260188252604060002081518155600181016001600160401b03808585015116166001600160401b03198254161781556141896001600160401b0360408501511682613737565b60608301516003811015610786576141a091613d83565b6080820151600282015560a082015160038201556141eb6004820160ff8060c0860151161660ff1982541617815560ff60e08501511661ff0082549160081b169061ff001916179055565b61010082015160009060005b856014821061431e57505050600582015561012082015160009060005b85600382106142f95750505081600e9160066102209401556101408401516007820155610160840151600882015561018084015160098201556101a0840151600a8201556101c0840151600b8201556101e0840151600c820155610200840151600d82015501910151918251926001600160401b03841161093157819061429b8585613a20565b0191600052806000209060005b8481106142e75750505060048590555050604080516001600160401b03938416815291909216602082015260008051602061560e8339815191529190a2565b835183820155928101926001016142a8565b82519293919260019260ff600386901b81811b199092169216901b1793019101614214565b82519293919260019260ff600386901b81811b199092169216901b17930191016141f7565b6001600160401b0360208201511680831061437b5760ff60406143699301511690613717565b60001981019190821161176657111590565b505050600090565b806000526018602052604060002092600184015460ff8160801c166003811015610786576002036147a4576001600160401b039060401c1662ed4e0081018091116117665742116147e6576000838152601960205260409020805490916001600160a01b039182169116036147b5576143ff82613823836136a8565b156147a45781600052601b60205260406000208360005260205260ff604060002054166147935781600052601b6020526040600020836000526020526040600020600160ff198254161790556001810160ff81541680614777575b505080548060f01c94614496600384015460ff600484015460081c16614482600585016134c2565b9160048a16151592612b6b600687016135b8565b93909160ff60028301549460e81c16938460005260166020526144cd6144c085604060002061327a565b90549060031b1c82613724565b946000968061476b575b614747575b50506144e88585613717565b600180991615158061473e575b6146d8575b91818861452f61458695827ff0c5530862e9fcfa7ebbce4bd4344ad74ec0dd820319df07ce8b1130270f3de89a99989661536f565b9383549060088260f01c16151591826146c3575b50816146b7575b506146a4575b50508161458b575b60018060a01b0390541697604051948594859094939260609260808301968352602083015260408201520152565b0390a4565b60018060a01b038154166000526020805260406000206145ac838254613717565b905580546001600160a01b0316600090815260226020526040902080546145d2906139fa565b90557f96f06edce356a6f04cc55aeea56c38fcad8c40121241354d668655db1bae953c61460183602454613717565b602481905582546001600160a01b03166000818152601f60209081526040808320548280528184205460218452828520546022855294839020548351928352938201529081019290925260608201527f78fd00d2280ad673955b1833960b0bf5a1742150d319de0633d09ba981e8d21690608090a260235461469c602554604051938493846040919493926060820195825260208201520152565b0390a1614558565b600e6146b09201613a61565b3888614550565b6009915010153861454a565b600991925060ff9060e81c1610159038614543565b97509161458691838860077ff0c5530862e9fcfa7ebbce4bd4344ad74ec0dd820319df07ce8b1130270f3de898979601548015600014614732575061452f61472360015b809d613724565b939550505091939495506144fa565b61472361452f9161471c565b508015156144f5565b6147639296506000526017602052612c1f84604060002061327a565b9338806144dc565b5060028a1615156144d7565b61478260ff91613c46565b1660ff19825416179055388061445a565b630c8d9eab60e31b60005260046000fd5b633562af9d60e11b60005260046000fd5b60405162461bcd60e51b81526020600482015260096024820152683737ba1037bbb732b960b91b6044820152606490fd5b6341524ecf60e11b60005260046000fd5b6040516323b872dd60e01b60208201526001600160a01b0392831660248201529290911660448301526064808301939093529181526135b69161400c6084836133a4565b80600052601860205260406000205415614930575b61485981614011565b80600052601860205260016040600020015460ff8160801c1660038110156107865715908161491a575b50613bd7576004549081600052601860205260406000205415614912575b506148ab81614011565b80600052601860205260ff60016040600020015460801c1660038110156107865715806148ec575b613bd7576001810180911161176657613bd7428261406e565b508060005260186020526001600160401b0360016040600020015460401c1642106148d3565b9050386148a1565b6001600160401b03915060401c16421038614883565b60005b600181106149415750614850565b61494b8183613717565b80600052601860205260406000205415614969575b50600101614933565b60001981018181116117665760005260186020526001600160401b0360016040600020015460401c16428110600014614c7757506001600160401b03425b166001600160401b036149bc60035483613717565b16906149c66152ef565b6149ce615332565b604051602092916149df84836133a4565b600082526000368137604051926149f58461336c565b87845285858501528660408501526000606085015260006080850152600060a0850152600060c0850152600060e085015261010084015261012083015260006101408301526000610160830152600061018083015260006101a083015260006101c083015260006101e083015260006102008301526102208201528460005260188252604060002081518155600181016001600160401b03808585015116166001600160401b0319825416178155614aba6001600160401b0360408501511682613737565b6060830151600381101561078657614ad191613d83565b6080820151600282015560a08201516003820155614b1c6004820160ff8060c0860151161660ff1982541617815560ff60e08501511661ff0082549160081b169061ff001916179055565b610100820151600090815b8560148210614c52575050506005820155610120820151600090815b8560038210614c2d5750505081600e9160066102209401556101408401516007820155610160840151600882015561018084015160098201556101a0840151600a8201556101c0840151600b8201556101e0840151600c820155610200840151600d82015501910151918251926001600160401b038411610931578190614bca8585613a20565b0191600052806000209060005b848110614c1b575050604080516001600160401b03958616815295909416602086015250600195949360008051602061560e8339815191529392509050a290614960565b83518382015592810192600101614bd7565b82519293919260019260ff600386901b81811b199092169216901b1793019101614b43565b82519293919260019260ff600386901b81811b199092169216901b1793019101614b27565b6001600160401b03906149a7565b811561392f570690565b90816000526018602052604060002091600383015492831561525457600181019060ff825460801c16600381101561078657600214613d3d5760405161028095614cd987836133a4565b8636833760405195610a00614cee81896133a4565b36883760005b60ff81166050811015614d2957600181019160ff83116117665760ff9283614d1e6001948d615476565b911690520116614cf4565b5050919395969490929460005b60ff81166014811015614dea57604080516020810188815260ff851692820192909252614d7081606081015b03601f1981018352826133a4565b51902091816050039160ff831161176657614de260ff614dd9838f614da4614d9e859a8660019b1690614c85565b83613717565b614dd385614db28585615476565b51169186614dc08286615476565b5116614dcc8686615476565b5283615476565b52615476565b5116918a613c35565b520116614d36565b50509396509390948660009060005b60148110615226575050600583015560048201805460ff191660ff6014860681169182178355614e4391614e2d908b613c35565b51835461ff001916911660081b61ff0016178255565b614e4c84615487565b6007840190815560609360405191614e6486846133a4565b85368437600098895b60ff8b166014811015614e9c5760ff9160018f614e9085613d0b84968294613c35565b161b179b011699614e6d565b50989b909294969a9193959799506107809b8c614ebc6040519e8f6133a4565b368e3760009a60018e5b60ff82169060508211614f54578d600160ff614ee186613c46565b161b1615614f1c575b50509060ff9d614f0660509e9d9c9b9a999897969594936155eb565b9192939495969798999a9b9c9d509d508e614ec6565b919d9c9b9a999897969594939291614f338e6155eb565b9d60ff16614f40916155fc565b52909192939495969798999a9b388f614eea565b5050509295989a50929598509295996005604051916020830193845260408084015282015264706c75733360d81b608082015260808152614f9660a0826133a4565b519020603c9990959060005b60ff811690600382101561504d5760408051602081018b815260ff8416928201929092528e9392918391614fd98160608101614d62565b51902093039260ff8411611766578f8360ff8f9360019661504594615008614d9e61503d9486809d1690614c85565b6150378561501685856155fc565b5116918661502482866155fc565b511661503086866155fc565b52836155fc565b526155fc565b511692613c59565b520116614fa2565b5050949a50945094909589979298509060009160005b600381106151e657505060060155805460ff60801b1916600160811b17905554905460405193909260ff9290921691906000855b601482106151c9575050508301526102a08201527f7a1a4d7e1f853bde9ea898de81ccfe2567585af3eb0bfe687475b1ff8eec4e91906102c090a281600052601a602052604060002060005b81548110806151bd575b156151b7576150fc8183613304565b90549060031b1c9081600052601960205260018060a01b03604060002054169182600052602660205260ff6040600020541680615192575b615149575b5061514491506139fa565b6150e3565b303b1561043457615144926040519163a48f066d60e01b83528760048401526024830152604482015260008160648183305af11561513957600061518c916133a4565b38615139565b5085600052601b60205260406000208160005260205260ff6040600020541615615134565b50509050565b5062030d405a116150ed565b825160ff1681528997506020928301926001929092019101615097565b919281949596979899506152136020918460ff6001955116919060ff809160031b9316831b921b19161790565b94019101908a9897969594939291615063565b9091602061524b6001928460ff875116919060ff809160031b9316831b921b19161790565b93019101614df9565b60405162461bcd60e51b815260206004820152600c60248201526b73656564206d697373696e6760a01b6044820152606490fd5b906000602091828151910182855af1156152e3576000513d6152da57506001600160a01b0381163b155b6152b95750565b635274afe760e01b60009081526001600160a01b0391909116600452602490fd5b600114156152b2565b6040513d6000823e3d90fd5b6040519061028061530081846133a4565b3683378160005b60ff8116601481101561532d5760ff91600061532560019386613c35565b520116615307565b505050565b60405190606061534281846133a4565b3683378160005b60ff8116600381101561532d5760ff91600061536760019386613c59565b520116615349565b9291801561546e5760098401908154948515615430578582116154295781925b61539a848098613a54565b90556000848152601960205260409020546153e09084906001600160a01b03167f0000000000000000000000000000000000000000000000000000000000000000613fd1565b8183106153ee575b50505050565b7f68baffa75719c6abf244ca6a3760e5bfb793ce43443454a7234f2aec1bd5fc4591604091549382519182526020820152a3388080806153e8565b859261538f565b604091939495507f68baffa75719c6abf244ca6a3760e5bfb793ce43443454a7234f2aec1bd5fc4592505492815190815260006020820152a3600090565b506000925050565b90605081101561328a5760051b0190565b600d5490811561556f5760008091600e545b80841061555457506154ee92506040516020810191825260408082015260116060820152706d756c7469706c6965722d637573746f6d60781b6080820152608081526154e660a0826133a4565b519020614c85565b600090815b83831061551c57505050600019810190811161176657615512906132e9565b90549060031b1c90565b61553690615529846132ce565b90549060031b1c90613717565b9182821061554757600101916154f3565b91505061551291506132e9565b9091615565600191615529866132ce565b9301929190615499565b6064915060405160208101918252604080820152600a60608201526936bab63a34b83634b2b960b11b6080820152608081526155ac60a0826133a4565b51902006603c81106155e557605581106155df57605f81106155d9576063116155d457600a90565b600590565b50600390565b50600290565b50600190565b60ff1660ff81146117665760010190565b90603c81101561328a5760051b019056feb9574e0faab8124549420ceb05e8203d89eacae04d747d51d12d373b600dbe9ba2646970667358221220d472cbe121a96abe6b44e55fcba7c588f3289ddf8463aee9539c8446e5a5c87564736f6c634300081c0033",
  "linkReferences": {},
  "deployedLinkReferences": {}
}