{
  "_format": "hh-sol-artifact-1",
  "contractName": "CryptoKeno",
  "sourceName": "contracts/CryptoKeno.sol",
  "abi": [
    {
      "inputs": [
        {
          "internalType": "address",
          "name": "token_",
          "type": "address"
        },
        {
          "internalType": "uint8",
          "name": "maxSpot_",
          "type": "uint8"
        },
        {
          "internalType": "uint256",
          "name": "roundDuration_",
          "type": "uint256"
        },
        {
          "internalType": "uint256",
          "name": "feeBps_",
          "type": "uint256"
        },
        {
          "internalType": "address",
          "name": "feeRecipient_",
          "type": "address"
        },
        {
          "internalType": "uint256",
          "name": "",
          "type": "uint256"
        },
        {
          "internalType": "address",
          "name": "wrappedPulse_",
          "type": "address"
        },
        {
          "internalType": "address",
          "name": "pulseXRouter_",
          "type": "address"
        }
      ],
      "stateMutability": "nonpayable",
      "type": "constructor"
    },
    {
      "inputs": [],
      "name": "AlreadyClaimed",
      "type": "error"
    },
    {
      "inputs": [],
      "name": "ClaimExpired",
      "type": "error"
    },
    {
      "inputs": [],
      "name": "EnforcedPause",
      "type": "error"
    },
    {
      "inputs": [],
      "name": "ExpectedPause",
      "type": "error"
    },
    {
      "inputs": [],
      "name": "InvalidAddonFlags",
      "type": "error"
    },
    {
      "inputs": [],
      "name": "InvalidNumbers",
      "type": "error"
    },
    {
      "inputs": [],
      "name": "InvalidSpotSize",
      "type": "error"
    },
    {
      "inputs": [
        {
          "internalType": "address",
          "name": "owner",
          "type": "address"
        }
      ],
      "name": "OwnableInvalidOwner",
      "type": "error"
    },
    {
      "inputs": [
        {
          "internalType": "address",
          "name": "account",
          "type": "address"
        }
      ],
      "name": "OwnableUnauthorizedAccount",
      "type": "error"
    },
    {
      "inputs": [],
      "name": "RandomnessNotReady",
      "type": "error"
    },
    {
      "inputs": [],
      "name": "ReentrancyGuardReentrantCall",
      "type": "error"
    },
    {
      "inputs": [],
      "name": "RoundAlreadyFinalized",
      "type": "error"
    },
    {
      "inputs": [],
      "name": "RoundNotFinalized",
      "type": "error"
    },
    {
      "inputs": [],
      "name": "RoundNotOpen",
      "type": "error"
    },
    {
      "inputs": [],
      "name": "RoundStillActive",
      "type": "error"
    },
    {
      "inputs": [
        {
          "internalType": "address",
          "name": "token",
          "type": "address"
        }
      ],
      "name": "SafeERC20FailedOperation",
      "type": "error"
    },
    {
      "inputs": [],
      "name": "WagerTooHigh",
      "type": "error"
    },
    {
      "inputs": [],
      "name": "ZeroWeightDistribution",
      "type": "error"
    },
    {
      "anonymous": false,
      "inputs": [
        {
          "indexed": false,
          "internalType": "uint256",
          "name": "multiplierCost",
          "type": "uint256"
        },
        {
          "indexed": false,
          "internalType": "uint256",
          "name": "bullsEyeCost",
          "type": "uint256"
        }
      ],
      "name": "AddonCostsUpdated",
      "type": "event"
    },
    {
      "anonymous": false,
      "inputs": [
        {
          "indexed": true,
          "internalType": "address",
          "name": "player",
          "type": "address"
        },
        {
          "indexed": false,
          "internalType": "bool",
          "name": "enabled",
          "type": "bool"
        }
      ],
      "name": "AutoClaimEnabled",
      "type": "event"
    },
    {
      "anonymous": false,
      "inputs": [
        {
          "indexed": true,
          "internalType": "uint256",
          "name": "roundId",
          "type": "uint256"
        },
        {
          "indexed": true,
          "internalType": "uint256",
          "name": "ticketId",
          "type": "uint256"
        },
        {
          "indexed": true,
          "internalType": "address",
          "name": "player",
          "type": "address"
        },
        {
          "indexed": false,
          "internalType": "uint256",
          "name": "prize",
          "type": "uint256"
        }
      ],
      "name": "AutoClaimProcessed",
      "type": "event"
    },
    {
      "anonymous": false,
      "inputs": [
        {
          "indexed": false,
          "internalType": "uint8",
          "name": "spotSize",
          "type": "uint8"
        },
        {
          "indexed": false,
          "internalType": "uint8",
          "name": "hits",
          "type": "uint8"
        },
        {
          "indexed": false,
          "internalType": "uint256",
          "name": "multiplier",
          "type": "uint256"
        }
      ],
      "name": "BullsEyePaytableUpdated",
      "type": "event"
    },
    {
      "anonymous": false,
      "inputs": [
        {
          "indexed": false,
          "internalType": "uint256",
          "name": "feeBps",
          "type": "uint256"
        },
        {
          "indexed": false,
          "internalType": "address",
          "name": "recipient",
          "type": "address"
        }
      ],
      "name": "FeeUpdated",
      "type": "event"
    },
    {
      "anonymous": false,
      "inputs": [
        {
          "indexed": false,
          "internalType": "uint256",
          "name": "maxWagerPerDraw",
          "type": "uint256"
        }
      ],
      "name": "MaxWagerUpdated",
      "type": "event"
    },
    {
      "anonymous": false,
      "inputs": [
        {
          "indexed": false,
          "internalType": "uint256[]",
          "name": "values",
          "type": "uint256[]"
        },
        {
          "indexed": false,
          "internalType": "uint256[]",
          "name": "weights",
          "type": "uint256[]"
        }
      ],
      "name": "MultiplierDistributionUpdated",
      "type": "event"
    },
    {
      "anonymous": false,
      "inputs": [
        {
          "indexed": true,
          "internalType": "address",
          "name": "previousOwner",
          "type": "address"
        },
        {
          "indexed": true,
          "internalType": "address",
          "name": "newOwner",
          "type": "address"
        }
      ],
      "name": "OwnershipTransferred",
      "type": "event"
    },
    {
      "anonymous": false,
      "inputs": [
        {
          "indexed": false,
          "internalType": "address",
          "name": "account",
          "type": "address"
        }
      ],
      "name": "Paused",
      "type": "event"
    },
    {
      "anonymous": false,
      "inputs": [
        {
          "indexed": false,
          "internalType": "uint8",
          "name": "spotSize",
          "type": "uint8"
        },
        {
          "indexed": false,
          "internalType": "uint8",
          "name": "hits",
          "type": "uint8"
        },
        {
          "indexed": false,
          "internalType": "uint256",
          "name": "multiplier",
          "type": "uint256"
        }
      ],
      "name": "PaytableUpdated",
      "type": "event"
    },
    {
      "anonymous": false,
      "inputs": [
        {
          "indexed": true,
          "internalType": "uint256",
          "name": "roundId",
          "type": "uint256"
        },
        {
          "indexed": true,
          "internalType": "uint256",
          "name": "ticketId",
          "type": "uint256"
        },
        {
          "indexed": true,
          "internalType": "address",
          "name": "player",
          "type": "address"
        },
        {
          "indexed": false,
          "internalType": "uint256",
          "name": "basePrize",
          "type": "uint256"
        },
        {
          "indexed": false,
          "internalType": "uint256",
          "name": "bullsEyePrize",
          "type": "uint256"
        },
        {
          "indexed": false,
          "internalType": "uint256",
          "name": "multiplierApplied",
          "type": "uint256"
        },
        {
          "indexed": false,
          "internalType": "uint256",
          "name": "paidPrize",
          "type": "uint256"
        }
      ],
      "name": "PrizeClaimed",
      "type": "event"
    },
    {
      "anonymous": false,
      "inputs": [
        {
          "indexed": true,
          "internalType": "uint256",
          "name": "roundId",
          "type": "uint256"
        },
        {
          "indexed": true,
          "internalType": "uint256",
          "name": "ticketId",
          "type": "uint256"
        },
        {
          "indexed": false,
          "internalType": "uint256",
          "name": "owed",
          "type": "uint256"
        },
        {
          "indexed": false,
          "internalType": "uint256",
          "name": "paid",
          "type": "uint256"
        }
      ],
      "name": "PrizeShortfall",
      "type": "event"
    },
    {
      "anonymous": false,
      "inputs": [
        {
          "indexed": false,
          "internalType": "uint256",
          "name": "baseSeed",
          "type": "uint256"
        },
        {
          "indexed": false,
          "internalType": "uint256",
          "name": "costPerDraw",
          "type": "uint256"
        },
        {
          "indexed": false,
          "internalType": "uint256",
          "name": "feeBps",
          "type": "uint256"
        }
      ],
      "name": "ProgressiveConfigUpdated",
      "type": "event"
    },
    {
      "anonymous": false,
      "inputs": [
        {
          "indexed": false,
          "internalType": "uint256",
          "name": "newAmount",
          "type": "uint256"
        },
        {
          "indexed": false,
          "internalType": "uint256",
          "name": "totalCollected",
          "type": "uint256"
        }
      ],
      "name": "ProgressivePoolUpdated",
      "type": "event"
    },
    {
      "anonymous": false,
      "inputs": [
        {
          "indexed": true,
          "internalType": "uint256",
          "name": "roundId",
          "type": "uint256"
        },
        {
          "indexed": true,
          "internalType": "uint256",
          "name": "ticketId",
          "type": "uint256"
        },
        {
          "indexed": true,
          "internalType": "address",
          "name": "player",
          "type": "address"
        },
        {
          "indexed": false,
          "internalType": "uint256",
          "name": "jackpotAmount",
          "type": "uint256"
        },
        {
          "indexed": false,
          "internalType": "uint256",
          "name": "shareAmount",
          "type": "uint256"
        }
      ],
      "name": "ProgressiveWon",
      "type": "event"
    },
    {
      "anonymous": false,
      "inputs": [
        {
          "indexed": true,
          "internalType": "uint256",
          "name": "roundId",
          "type": "uint256"
        },
        {
          "indexed": false,
          "internalType": "bytes32",
          "name": "commitment",
          "type": "bytes32"
        }
      ],
      "name": "RandomnessCommitted",
      "type": "event"
    },
    {
      "anonymous": false,
      "inputs": [
        {
          "indexed": false,
          "internalType": "address",
          "name": "provider",
          "type": "address"
        }
      ],
      "name": "RandomnessProviderUpdated",
      "type": "event"
    },
    {
      "anonymous": false,
      "inputs": [
        {
          "indexed": true,
          "internalType": "uint256",
          "name": "roundId",
          "type": "uint256"
        },
        {
          "indexed": false,
          "internalType": "bytes32",
          "name": "seed",
          "type": "bytes32"
        }
      ],
      "name": "RandomnessRevealed",
      "type": "event"
    },
    {
      "anonymous": false,
      "inputs": [
        {
          "indexed": true,
          "internalType": "uint256",
          "name": "roundId",
          "type": "uint256"
        }
      ],
      "name": "RoundClosed",
      "type": "event"
    },
    {
      "anonymous": false,
      "inputs": [
        {
          "indexed": false,
          "internalType": "uint256",
          "name": "newDuration",
          "type": "uint256"
        }
      ],
      "name": "RoundDurationUpdated",
      "type": "event"
    },
    {
      "anonymous": false,
      "inputs": [
        {
          "indexed": true,
          "internalType": "uint256",
          "name": "roundId",
          "type": "uint256"
        },
        {
          "indexed": false,
          "internalType": "uint8[20]",
          "name": "winningNumbers",
          "type": "uint8[20]"
        },
        {
          "indexed": false,
          "internalType": "uint8",
          "name": "bullsEyeIndex",
          "type": "uint8"
        },
        {
          "indexed": false,
          "internalType": "uint256",
          "name": "multiplierOutcome",
          "type": "uint256"
        }
      ],
      "name": "RoundFinalized",
      "type": "event"
    },
    {
      "anonymous": false,
      "inputs": [
        {
          "indexed": true,
          "internalType": "uint256",
          "name": "roundId",
          "type": "uint256"
        },
        {
          "indexed": false,
          "internalType": "bytes32",
          "name": "requestId",
          "type": "bytes32"
        }
      ],
      "name": "RoundRandomnessRequested",
      "type": "event"
    },
    {
      "anonymous": false,
      "inputs": [
        {
          "indexed": true,
          "internalType": "uint256",
          "name": "roundId",
          "type": "uint256"
        },
        {
          "indexed": false,
          "internalType": "uint64",
          "name": "startTime",
          "type": "uint64"
        },
        {
          "indexed": false,
          "internalType": "uint64",
          "name": "endTime",
          "type": "uint64"
        }
      ],
      "name": "RoundStarted",
      "type": "event"
    },
    {
      "anonymous": false,
      "inputs": [
        {
          "indexed": true,
          "internalType": "address",
          "name": "player",
          "type": "address"
        },
        {
          "indexed": true,
          "internalType": "uint256",
          "name": "ticketId",
          "type": "uint256"
        },
        {
          "indexed": true,
          "internalType": "uint256",
          "name": "firstRoundId",
          "type": "uint256"
        },
        {
          "indexed": false,
          "internalType": "uint8",
          "name": "draws",
          "type": "uint8"
        },
        {
          "indexed": false,
          "internalType": "uint8",
          "name": "spotSize",
          "type": "uint8"
        },
        {
          "indexed": false,
          "internalType": "uint16",
          "name": "addons",
          "type": "uint16"
        },
        {
          "indexed": false,
          "internalType": "uint256",
          "name": "wagerPerDraw",
          "type": "uint256"
        },
        {
          "indexed": false,
          "internalType": "uint256",
          "name": "grossCost",
          "type": "uint256"
        }
      ],
      "name": "TicketPurchased",
      "type": "event"
    },
    {
      "anonymous": false,
      "inputs": [
        {
          "indexed": false,
          "internalType": "address",
          "name": "account",
          "type": "address"
        }
      ],
      "name": "Unpaused",
      "type": "event"
    },
    {
      "inputs": [],
      "name": "ADDON_BULLSEYE",
      "outputs": [
        {
          "internalType": "uint16",
          "name": "",
          "type": "uint16"
        }
      ],
      "stateMutability": "view",
      "type": "function"
    },
    {
      "inputs": [],
      "name": "ADDON_MULTIPLIER",
      "outputs": [
        {
          "internalType": "uint16",
          "name": "",
          "type": "uint16"
        }
      ],
      "stateMutability": "view",
      "type": "function"
    },
    {
      "inputs": [],
      "name": "ADDON_PLUS3",
      "outputs": [
        {
          "internalType": "uint16",
          "name": "",
          "type": "uint16"
        }
      ],
      "stateMutability": "view",
      "type": "function"
    },
    {
      "inputs": [],
      "name": "ADDON_PROGRESSIVE",
      "outputs": [
        {
          "internalType": "uint16",
          "name": "",
          "type": "uint16"
        }
      ],
      "stateMutability": "view",
      "type": "function"
    },
    {
      "inputs": [],
      "name": "BPS_DENOMINATOR",
      "outputs": [
        {
          "internalType": "uint256",
          "name": "",
          "type": "uint256"
        }
      ],
      "stateMutability": "view",
      "type": "function"
    },
    {
      "inputs": [],
      "name": "CLAIM_DEADLINE",
      "outputs": [
        {
          "internalType": "uint256",
          "name": "",
          "type": "uint256"
        }
      ],
      "stateMutability": "view",
      "type": "function"
    },
    {
      "inputs": [],
      "name": "DRAWN",
      "outputs": [
        {
          "internalType": "uint8",
          "name": "",
          "type": "uint8"
        }
      ],
      "stateMutability": "view",
      "type": "function"
    },
    {
      "inputs": [],
      "name": "MIN_SPOT",
      "outputs": [
        {
          "internalType": "uint8",
          "name": "",
          "type": "uint8"
        }
      ],
      "stateMutability": "view",
      "type": "function"
    },
    {
      "inputs": [],
      "name": "NUMBERS",
      "outputs": [
        {
          "internalType": "uint8",
          "name": "",
          "type": "uint8"
        }
      ],
      "stateMutability": "view",
      "type": "function"
    },
    {
      "inputs": [],
      "name": "PLUS3_DRAWN",
      "outputs": [
        {
          "internalType": "uint8",
          "name": "",
          "type": "uint8"
        }
      ],
      "stateMutability": "view",
      "type": "function"
    },
    {
      "inputs": [
        {
          "internalType": "uint256",
          "name": "roundId",
          "type": "uint256"
        },
        {
          "internalType": "uint256",
          "name": "ticketId",
          "type": "uint256"
        },
        {
          "internalType": "address",
          "name": "player",
          "type": "address"
        }
      ],
      "name": "_safeProcessClaim",
      "outputs": [],
      "stateMutability": "nonpayable",
      "type": "function"
    },
    {
      "inputs": [
        {
          "internalType": "uint16",
          "name": "addons",
          "type": "uint16"
        },
        {
          "internalType": "uint256",
          "name": "wagerPerDraw",
          "type": "uint256"
        }
      ],
      "name": "addonCost",
      "outputs": [
        {
          "internalType": "uint256",
          "name": "",
          "type": "uint256"
        }
      ],
      "stateMutability": "view",
      "type": "function"
    },
    {
      "inputs": [
        {
          "internalType": "address",
          "name": "",
          "type": "address"
        }
      ],
      "name": "autoClaimEnabled",
      "outputs": [
        {
          "internalType": "bool",
          "name": "",
          "type": "bool"
        }
      ],
      "stateMutability": "view",
      "type": "function"
    },
    {
      "inputs": [],
      "name": "bullsEyeCostPerDraw",
      "outputs": [
        {
          "internalType": "uint256",
          "name": "",
          "type": "uint256"
        }
      ],
      "stateMutability": "view",
      "type": "function"
    },
    {
      "inputs": [
        {
          "internalType": "uint8",
          "name": "",
          "type": "uint8"
        },
        {
          "internalType": "uint256",
          "name": "",
          "type": "uint256"
        }
      ],
      "name": "bullsEyePaytable",
      "outputs": [
        {
          "internalType": "uint256",
          "name": "",
          "type": "uint256"
        }
      ],
      "stateMutability": "view",
      "type": "function"
    },
    {
      "inputs": [
        {
          "internalType": "uint256",
          "name": "roundId",
          "type": "uint256"
        },
        {
          "internalType": "uint8[]",
          "name": "numbers",
          "type": "uint8[]"
        },
        {
          "internalType": "uint8",
          "name": "spotSize",
          "type": "uint8"
        },
        {
          "internalType": "uint8",
          "name": "draws",
          "type": "uint8"
        },
        {
          "internalType": "uint16",
          "name": "addons",
          "type": "uint16"
        },
        {
          "internalType": "uint256",
          "name": "wagerPerDraw",
          "type": "uint256"
        }
      ],
      "name": "buyTicket",
      "outputs": [],
      "stateMutability": "nonpayable",
      "type": "function"
    },
    {
      "inputs": [
        {
          "internalType": "uint256",
          "name": "roundId",
          "type": "uint256"
        },
        {
          "internalType": "uint8[]",
          "name": "numbers",
          "type": "uint8[]"
        },
        {
          "internalType": "uint8",
          "name": "spotSize",
          "type": "uint8"
        },
        {
          "internalType": "uint8",
          "name": "draws",
          "type": "uint8"
        },
        {
          "internalType": "uint16",
          "name": "addons",
          "type": "uint16"
        },
        {
          "internalType": "uint256",
          "name": "wagerPerDraw",
          "type": "uint256"
        }
      ],
      "name": "buyTicketWithPLS",
      "outputs": [],
      "stateMutability": "payable",
      "type": "function"
    },
    {
      "inputs": [
        {
          "internalType": "uint256",
          "name": "roundId",
          "type": "uint256"
        },
        {
          "internalType": "uint256",
          "name": "ticketId",
          "type": "uint256"
        }
      ],
      "name": "claim",
      "outputs": [],
      "stateMutability": "nonpayable",
      "type": "function"
    },
    {
      "inputs": [
        {
          "internalType": "uint256[]",
          "name": "roundIds",
          "type": "uint256[]"
        },
        {
          "internalType": "uint256[]",
          "name": "ticketIds",
          "type": "uint256[]"
        }
      ],
      "name": "claimMultiple",
      "outputs": [],
      "stateMutability": "nonpayable",
      "type": "function"
    },
    {
      "inputs": [
        {
          "internalType": "uint256",
          "name": "",
          "type": "uint256"
        },
        {
          "internalType": "uint256",
          "name": "",
          "type": "uint256"
        }
      ],
      "name": "claimed",
      "outputs": [
        {
          "internalType": "bool",
          "name": "",
          "type": "bool"
        }
      ],
      "stateMutability": "view",
      "type": "function"
    },
    {
      "inputs": [
        {
          "internalType": "uint256",
          "name": "roundId",
          "type": "uint256"
        },
        {
          "internalType": "bytes32",
          "name": "commitment",
          "type": "bytes32"
        }
      ],
      "name": "commitRandom",
      "outputs": [],
      "stateMutability": "nonpayable",
      "type": "function"
    },
    {
      "inputs": [
        {
          "internalType": "uint256",
          "name": "",
          "type": "uint256"
        }
      ],
      "name": "committedHash",
      "outputs": [
        {
          "internalType": "bytes32",
          "name": "",
          "type": "bytes32"
        }
      ],
      "stateMutability": "view",
      "type": "function"
    },
    {
      "inputs": [],
      "name": "currentRoundId",
      "outputs": [
        {
          "internalType": "uint256",
          "name": "",
          "type": "uint256"
        }
      ],
      "stateMutability": "view",
      "type": "function"
    },
    {
      "inputs": [
        {
          "internalType": "uint256",
          "name": "roundId",
          "type": "uint256"
        }
      ],
      "name": "distributeProgressive",
      "outputs": [],
      "stateMutability": "nonpayable",
      "type": "function"
    },
    {
      "inputs": [],
      "name": "feeBps",
      "outputs": [
        {
          "internalType": "uint256",
          "name": "",
          "type": "uint256"
        }
      ],
      "stateMutability": "view",
      "type": "function"
    },
    {
      "inputs": [],
      "name": "feeRecipient",
      "outputs": [
        {
          "internalType": "address",
          "name": "",
          "type": "address"
        }
      ],
      "stateMutability": "view",
      "type": "function"
    },
    {
      "inputs": [
        {
          "internalType": "uint256",
          "name": "roundId",
          "type": "uint256"
        }
      ],
      "name": "finalizeRound",
      "outputs": [],
      "stateMutability": "nonpayable",
      "type": "function"
    },
    {
      "inputs": [
        {
          "internalType": "uint256",
          "name": "roundId",
          "type": "uint256"
        },
        {
          "internalType": "bytes32",
          "name": "randomSeed",
          "type": "bytes32"
        }
      ],
      "name": "fulfillRandomness",
      "outputs": [],
      "stateMutability": "nonpayable",
      "type": "function"
    },
    {
      "inputs": [
        {
          "internalType": "address",
          "name": "player",
          "type": "address"
        }
      ],
      "name": "getAllPlayerTickets",
      "outputs": [
        {
          "internalType": "uint256[]",
          "name": "",
          "type": "uint256[]"
        }
      ],
      "stateMutability": "view",
      "type": "function"
    },
    {
      "inputs": [],
      "name": "getGlobalStats",
      "outputs": [
        {
          "internalType": "uint256",
          "name": "totalWagered",
          "type": "uint256"
        },
        {
          "internalType": "uint256",
          "name": "totalWon",
          "type": "uint256"
        },
        {
          "internalType": "uint256",
          "name": "ticketCount",
          "type": "uint256"
        },
        {
          "internalType": "uint256",
          "name": "activeRoundId",
          "type": "uint256"
        }
      ],
      "stateMutability": "view",
      "type": "function"
    },
    {
      "inputs": [
        {
          "internalType": "address",
          "name": "player",
          "type": "address"
        }
      ],
      "name": "getPlayerStats",
      "outputs": [
        {
          "internalType": "uint256",
          "name": "totalWagered",
          "type": "uint256"
        },
        {
          "internalType": "uint256",
          "name": "totalWon",
          "type": "uint256"
        },
        {
          "internalType": "uint256",
          "name": "ticketCount",
          "type": "uint256"
        },
        {
          "internalType": "uint256",
          "name": "winCount",
          "type": "uint256"
        },
        {
          "internalType": "uint256",
          "name": "winRateBps",
          "type": "uint256"
        },
        {
          "internalType": "int256",
          "name": "netPnL",
          "type": "int256"
        }
      ],
      "stateMutability": "view",
      "type": "function"
    },
    {
      "inputs": [
        {
          "internalType": "address",
          "name": "player",
          "type": "address"
        },
        {
          "internalType": "uint256",
          "name": "offset",
          "type": "uint256"
        },
        {
          "internalType": "uint256",
          "name": "limit",
          "type": "uint256"
        }
      ],
      "name": "getPlayerTickets",
      "outputs": [
        {
          "internalType": "uint256[]",
          "name": "",
          "type": "uint256[]"
        }
      ],
      "stateMutability": "view",
      "type": "function"
    },
    {
      "inputs": [
        {
          "internalType": "address",
          "name": "player",
          "type": "address"
        }
      ],
      "name": "getPlayerUnclaimedWinnings",
      "outputs": [
        {
          "internalType": "uint256",
          "name": "totalUnclaimed",
          "type": "uint256"
        }
      ],
      "stateMutability": "view",
      "type": "function"
    },
    {
      "inputs": [],
      "name": "getProgressiveStats",
      "outputs": [
        {
          "internalType": "uint256",
          "name": "currentPool",
          "type": "uint256"
        },
        {
          "internalType": "uint256",
          "name": "baseSeed",
          "type": "uint256"
        },
        {
          "internalType": "uint256",
          "name": "costPerDraw",
          "type": "uint256"
        },
        {
          "internalType": "uint256",
          "name": "totalCollected",
          "type": "uint256"
        },
        {
          "internalType": "uint256",
          "name": "totalPaid",
          "type": "uint256"
        },
        {
          "internalType": "uint256",
          "name": "winCount",
          "type": "uint256"
        },
        {
          "internalType": "uint256",
          "name": "lastWinRound",
          "type": "uint256"
        }
      ],
      "stateMutability": "view",
      "type": "function"
    },
    {
      "inputs": [
        {
          "internalType": "uint256",
          "name": "roundId",
          "type": "uint256"
        }
      ],
      "name": "getRound",
      "outputs": [
        {
          "components": [
            {
              "internalType": "uint256",
              "name": "id",
              "type": "uint256"
            },
            {
              "internalType": "uint64",
              "name": "startTime",
              "type": "uint64"
            },
            {
              "internalType": "uint64",
              "name": "endTime",
              "type": "uint64"
            },
            {
              "internalType": "enum CryptoKeno.RoundState",
              "name": "state",
              "type": "uint8"
            },
            {
              "internalType": "bytes32",
              "name": "requestId",
              "type": "bytes32"
            },
            {
              "internalType": "bytes32",
              "name": "randomSeed",
              "type": "bytes32"
            },
            {
              "internalType": "uint8",
              "name": "bullsEyeIndex",
              "type": "uint8"
            },
            {
              "internalType": "uint8",
              "name": "bullsEyeNumber",
              "type": "uint8"
            },
            {
              "internalType": "uint8[20]",
              "name": "winningNumbers",
              "type": "uint8[20]"
            },
            {
              "internalType": "uint8[3]",
              "name": "plus3Numbers",
              "type": "uint8[3]"
            },
            {
              "internalType": "uint256",
              "name": "drawnMultiplier",
              "type": "uint256"
            },
            {
              "internalType": "uint256",
              "name": "totalBaseWager",
              "type": "uint256"
            },
            {
              "internalType": "uint256",
              "name": "poolBalance",
              "type": "uint256"
            },
            {
              "internalType": "uint256",
              "name": "totalMultiplierAddon",
              "type": "uint256"
            },
            {
              "internalType": "uint256",
              "name": "totalBullsEyeAddon",
              "type": "uint256"
            },
            {
              "internalType": "uint256",
              "name": "totalPlus3Addon",
              "type": "uint256"
            },
            {
              "internalType": "uint256",
              "name": "totalProgressiveAddon",
              "type": "uint256"
            },
            {
              "internalType": "uint256[]",
              "name": "progressiveWinners",
              "type": "uint256[]"
            }
          ],
          "internalType": "struct CryptoKeno.Round",
          "name": "",
          "type": "tuple"
        }
      ],
      "stateMutability": "view",
      "type": "function"
    },
    {
      "inputs": [
        {
          "internalType": "uint256[]",
          "name": "roundIds",
          "type": "uint256[]"
        }
      ],
      "name": "getRounds",
      "outputs": [
        {
          "components": [
            {
              "internalType": "uint256",
              "name": "id",
              "type": "uint256"
            },
            {
              "internalType": "uint64",
              "name": "startTime",
              "type": "uint64"
            },
            {
              "internalType": "uint64",
              "name": "endTime",
              "type": "uint64"
            },
            {
              "internalType": "enum CryptoKeno.RoundState",
              "name": "state",
              "type": "uint8"
            },
            {
              "internalType": "bytes32",
              "name": "requestId",
              "type": "bytes32"
            },
            {
              "internalType": "bytes32",
              "name": "randomSeed",
              "type": "bytes32"
            },
            {
              "internalType": "uint8",
              "name": "bullsEyeIndex",
              "type": "uint8"
            },
            {
              "internalType": "uint8",
              "name": "bullsEyeNumber",
              "type": "uint8"
            },
            {
              "internalType": "uint8[20]",
              "name": "winningNumbers",
              "type": "uint8[20]"
            },
            {
              "internalType": "uint8[3]",
              "name": "plus3Numbers",
              "type": "uint8[3]"
            },
            {
              "internalType": "uint256",
              "name": "drawnMultiplier",
              "type": "uint256"
            },
            {
              "internalType": "uint256",
              "name": "totalBaseWager",
              "type": "uint256"
            },
            {
              "internalType": "uint256",
              "name": "poolBalance",
              "type": "uint256"
            },
            {
              "internalType": "uint256",
              "name": "totalMultiplierAddon",
              "type": "uint256"
            },
            {
              "internalType": "uint256",
              "name": "totalBullsEyeAddon",
              "type": "uint256"
            },
            {
              "internalType": "uint256",
              "name": "totalPlus3Addon",
              "type": "uint256"
            },
            {
              "internalType": "uint256",
              "name": "totalProgressiveAddon",
              "type": "uint256"
            },
            {
              "internalType": "uint256[]",
              "name": "progressiveWinners",
              "type": "uint256[]"
            }
          ],
          "internalType": "struct CryptoKeno.Round[]",
          "name": "",
          "type": "tuple[]"
        }
      ],
      "stateMutability": "view",
      "type": "function"
    },
    {
      "inputs": [
        {
          "internalType": "uint256",
          "name": "ticketId",
          "type": "uint256"
        }
      ],
      "name": "getTicket",
      "outputs": [
        {
          "components": [
            {
              "internalType": "address",
              "name": "player",
              "type": "address"
            },
            {
              "internalType": "uint64",
              "name": "firstRoundId",
              "type": "uint64"
            },
            {
              "internalType": "uint8",
              "name": "draws",
              "type": "uint8"
            },
            {
              "internalType": "uint8",
              "name": "spotSize",
              "type": "uint8"
            },
            {
              "internalType": "uint16",
              "name": "addons",
              "type": "uint16"
            },
            {
              "internalType": "uint8",
              "name": "drawsRemaining",
              "type": "uint8"
            },
            {
              "internalType": "uint256",
              "name": "wagerPerDraw",
              "type": "uint256"
            },
            {
              "internalType": "uint256",
              "name": "numbersBitmap",
              "type": "uint256"
            }
          ],
          "internalType": "struct CryptoKeno.Ticket",
          "name": "",
          "type": "tuple"
        }
      ],
      "stateMutability": "view",
      "type": "function"
    },
    {
      "inputs": [
        {
          "internalType": "uint256[]",
          "name": "ticketIds",
          "type": "uint256[]"
        }
      ],
      "name": "getTickets",
      "outputs": [
        {
          "components": [
            {
              "internalType": "address",
              "name": "player",
              "type": "address"
            },
            {
              "internalType": "uint64",
              "name": "firstRoundId",
              "type": "uint64"
            },
            {
              "internalType": "uint8",
              "name": "draws",
              "type": "uint8"
            },
            {
              "internalType": "uint8",
              "name": "spotSize",
              "type": "uint8"
            },
            {
              "internalType": "uint16",
              "name": "addons",
              "type": "uint16"
            },
            {
              "internalType": "uint8",
              "name": "drawsRemaining",
              "type": "uint8"
            },
            {
              "internalType": "uint256",
              "name": "wagerPerDraw",
              "type": "uint256"
            },
            {
              "internalType": "uint256",
              "name": "numbersBitmap",
              "type": "uint256"
            }
          ],
          "internalType": "struct CryptoKeno.Ticket[]",
          "name": "",
          "type": "tuple[]"
        }
      ],
      "stateMutability": "view",
      "type": "function"
    },
    {
      "inputs": [],
      "name": "globalTicketCount",
      "outputs": [
        {
          "internalType": "uint256",
          "name": "",
          "type": "uint256"
        }
      ],
      "stateMutability": "view",
      "type": "function"
    },
    {
      "inputs": [],
      "name": "globalTotalWagered",
      "outputs": [
        {
          "internalType": "uint256",
          "name": "",
          "type": "uint256"
        }
      ],
      "stateMutability": "view",
      "type": "function"
    },
    {
      "inputs": [],
      "name": "globalTotalWon",
      "outputs": [
        {
          "internalType": "uint256",
          "name": "",
          "type": "uint256"
        }
      ],
      "stateMutability": "view",
      "type": "function"
    },
    {
      "inputs": [
        {
          "internalType": "uint256",
          "name": "ticketId",
          "type": "uint256"
        },
        {
          "internalType": "uint256",
          "name": "roundId",
          "type": "uint256"
        }
      ],
      "name": "isWinningTicket",
      "outputs": [
        {
          "internalType": "bool",
          "name": "isWinner",
          "type": "bool"
        },
        {
          "internalType": "uint256",
          "name": "prize",
          "type": "uint256"
        }
      ],
      "stateMutability": "view",
      "type": "function"
    },
    {
      "inputs": [],
      "name": "lastProgressiveWinRound",
      "outputs": [
        {
          "internalType": "uint256",
          "name": "",
          "type": "uint256"
        }
      ],
      "stateMutability": "view",
      "type": "function"
    },
    {
      "inputs": [],
      "name": "maxSpot",
      "outputs": [
        {
          "internalType": "uint8",
          "name": "",
          "type": "uint8"
        }
      ],
      "stateMutability": "view",
      "type": "function"
    },
    {
      "inputs": [],
      "name": "maxWagerPerDraw",
      "outputs": [
        {
          "internalType": "uint256",
          "name": "",
          "type": "uint256"
        }
      ],
      "stateMutability": "view",
      "type": "function"
    },
    {
      "inputs": [],
      "name": "multiplierCostPerDraw",
      "outputs": [
        {
          "internalType": "uint256",
          "name": "",
          "type": "uint256"
        }
      ],
      "stateMutability": "view",
      "type": "function"
    },
    {
      "inputs": [
        {
          "internalType": "uint256",
          "name": "",
          "type": "uint256"
        }
      ],
      "name": "multiplierValues",
      "outputs": [
        {
          "internalType": "uint256",
          "name": "",
          "type": "uint256"
        }
      ],
      "stateMutability": "view",
      "type": "function"
    },
    {
      "inputs": [
        {
          "internalType": "uint256",
          "name": "",
          "type": "uint256"
        }
      ],
      "name": "multiplierWeights",
      "outputs": [
        {
          "internalType": "uint256",
          "name": "",
          "type": "uint256"
        }
      ],
      "stateMutability": "view",
      "type": "function"
    },
    {
      "inputs": [],
      "name": "nextTicketId",
      "outputs": [
        {
          "internalType": "uint256",
          "name": "",
          "type": "uint256"
        }
      ],
      "stateMutability": "view",
      "type": "function"
    },
    {
      "inputs": [],
      "name": "owner",
      "outputs": [
        {
          "internalType": "address",
          "name": "",
          "type": "address"
        }
      ],
      "stateMutability": "view",
      "type": "function"
    },
    {
      "inputs": [],
      "name": "pause",
      "outputs": [],
      "stateMutability": "nonpayable",
      "type": "function"
    },
    {
      "inputs": [],
      "name": "paused",
      "outputs": [
        {
          "internalType": "bool",
          "name": "",
          "type": "bool"
        }
      ],
      "stateMutability": "view",
      "type": "function"
    },
    {
      "inputs": [
        {
          "internalType": "uint8",
          "name": "",
          "type": "uint8"
        },
        {
          "internalType": "uint256",
          "name": "",
          "type": "uint256"
        }
      ],
      "name": "paytable",
      "outputs": [
        {
          "internalType": "uint256",
          "name": "",
          "type": "uint256"
        }
      ],
      "stateMutability": "view",
      "type": "function"
    },
    {
      "inputs": [
        {
          "internalType": "address",
          "name": "",
          "type": "address"
        }
      ],
      "name": "playerTicketCount",
      "outputs": [
        {
          "internalType": "uint256",
          "name": "",
          "type": "uint256"
        }
      ],
      "stateMutability": "view",
      "type": "function"
    },
    {
      "inputs": [
        {
          "internalType": "address",
          "name": "",
          "type": "address"
        },
        {
          "internalType": "uint256",
          "name": "",
          "type": "uint256"
        }
      ],
      "name": "playerTickets",
      "outputs": [
        {
          "internalType": "uint256",
          "name": "",
          "type": "uint256"
        }
      ],
      "stateMutability": "view",
      "type": "function"
    },
    {
      "inputs": [
        {
          "internalType": "address",
          "name": "",
          "type": "address"
        }
      ],
      "name": "playerTotalWagered",
      "outputs": [
        {
          "internalType": "uint256",
          "name": "",
          "type": "uint256"
        }
      ],
      "stateMutability": "view",
      "type": "function"
    },
    {
      "inputs": [
        {
          "internalType": "address",
          "name": "",
          "type": "address"
        }
      ],
      "name": "playerTotalWon",
      "outputs": [
        {
          "internalType": "uint256",
          "name": "",
          "type": "uint256"
        }
      ],
      "stateMutability": "view",
      "type": "function"
    },
    {
      "inputs": [
        {
          "internalType": "address",
          "name": "",
          "type": "address"
        }
      ],
      "name": "playerWinCount",
      "outputs": [
        {
          "internalType": "uint256",
          "name": "",
          "type": "uint256"
        }
      ],
      "stateMutability": "view",
      "type": "function"
    },
    {
      "inputs": [],
      "name": "progressiveBaseSeed",
      "outputs": [
        {
          "internalType": "uint256",
          "name": "",
          "type": "uint256"
        }
      ],
      "stateMutability": "view",
      "type": "function"
    },
    {
      "inputs": [],
      "name": "progressiveCostPerDraw",
      "outputs": [
        {
          "internalType": "uint256",
          "name": "",
          "type": "uint256"
        }
      ],
      "stateMutability": "view",
      "type": "function"
    },
    {
      "inputs": [],
      "name": "progressiveFeeBps",
      "outputs": [
        {
          "internalType": "uint256",
          "name": "",
          "type": "uint256"
        }
      ],
      "stateMutability": "view",
      "type": "function"
    },
    {
      "inputs": [],
      "name": "progressivePool",
      "outputs": [
        {
          "internalType": "uint256",
          "name": "",
          "type": "uint256"
        }
      ],
      "stateMutability": "view",
      "type": "function"
    },
    {
      "inputs": [],
      "name": "progressiveTotalCollected",
      "outputs": [
        {
          "internalType": "uint256",
          "name": "",
          "type": "uint256"
        }
      ],
      "stateMutability": "view",
      "type": "function"
    },
    {
      "inputs": [],
      "name": "progressiveTotalPaid",
      "outputs": [
        {
          "internalType": "uint256",
          "name": "",
          "type": "uint256"
        }
      ],
      "stateMutability": "view",
      "type": "function"
    },
    {
      "inputs": [],
      "name": "progressiveWinCount",
      "outputs": [
        {
          "internalType": "uint256",
          "name": "",
          "type": "uint256"
        }
      ],
      "stateMutability": "view",
      "type": "function"
    },
    {
      "inputs": [],
      "name": "pulseXRouter",
      "outputs": [
        {
          "internalType": "contract IPulseXRouter",
          "name": "",
          "type": "address"
        }
      ],
      "stateMutability": "view",
      "type": "function"
    },
    {
      "inputs": [],
      "name": "randomnessProvider",
      "outputs": [
        {
          "internalType": "contract IRandomProvider",
          "name": "",
          "type": "address"
        }
      ],
      "stateMutability": "view",
      "type": "function"
    },
    {
      "inputs": [
        {
          "internalType": "uint256",
          "name": "roundId",
          "type": "uint256"
        }
      ],
      "name": "reclaimExpiredPrizes",
      "outputs": [],
      "stateMutability": "nonpayable",
      "type": "function"
    },
    {
      "inputs": [],
      "name": "renounceOwnership",
      "outputs": [],
      "stateMutability": "nonpayable",
      "type": "function"
    },
    {
      "inputs": [
        {
          "internalType": "uint256",
          "name": "roundId",
          "type": "uint256"
        },
        {
          "internalType": "bytes32",
          "name": "seed",
          "type": "bytes32"
        }
      ],
      "name": "revealRandom",
      "outputs": [],
      "stateMutability": "nonpayable",
      "type": "function"
    },
    {
      "inputs": [
        {
          "internalType": "uint256",
          "name": "",
          "type": "uint256"
        }
      ],
      "name": "revealedSeed",
      "outputs": [
        {
          "internalType": "bytes32",
          "name": "",
          "type": "bytes32"
        }
      ],
      "stateMutability": "view",
      "type": "function"
    },
    {
      "inputs": [],
      "name": "roundDuration",
      "outputs": [
        {
          "internalType": "uint256",
          "name": "",
          "type": "uint256"
        }
      ],
      "stateMutability": "view",
      "type": "function"
    },
    {
      "inputs": [
        {
          "internalType": "uint256",
          "name": "",
          "type": "uint256"
        }
      ],
      "name": "rounds",
      "outputs": [
        {
          "internalType": "uint256",
          "name": "id",
          "type": "uint256"
        },
        {
          "internalType": "uint64",
          "name": "startTime",
          "type": "uint64"
        },
        {
          "internalType": "uint64",
          "name": "endTime",
          "type": "uint64"
        },
        {
          "internalType": "enum CryptoKeno.RoundState",
          "name": "state",
          "type": "uint8"
        },
        {
          "internalType": "bytes32",
          "name": "requestId",
          "type": "bytes32"
        },
        {
          "internalType": "bytes32",
          "name": "randomSeed",
          "type": "bytes32"
        },
        {
          "internalType": "uint8",
          "name": "bullsEyeIndex",
          "type": "uint8"
        },
        {
          "internalType": "uint8",
          "name": "bullsEyeNumber",
          "type": "uint8"
        },
        {
          "internalType": "uint256",
          "name": "drawnMultiplier",
          "type": "uint256"
        },
        {
          "internalType": "uint256",
          "name": "totalBaseWager",
          "type": "uint256"
        },
        {
          "internalType": "uint256",
          "name": "poolBalance",
          "type": "uint256"
        },
        {
          "internalType": "uint256",
          "name": "totalMultiplierAddon",
          "type": "uint256"
        },
        {
          "internalType": "uint256",
          "name": "totalBullsEyeAddon",
          "type": "uint256"
        },
        {
          "internalType": "uint256",
          "name": "totalPlus3Addon",
          "type": "uint256"
        },
        {
          "internalType": "uint256",
          "name": "totalProgressiveAddon",
          "type": "uint256"
        }
      ],
      "stateMutability": "view",
      "type": "function"
    },
    {
      "inputs": [
        {
          "internalType": "uint256",
          "name": "amount",
          "type": "uint256"
        }
      ],
      "name": "seedProgressivePool",
      "outputs": [],
      "stateMutability": "nonpayable",
      "type": "function"
    },
    {
      "inputs": [
        {
          "internalType": "uint256",
          "name": "multiplierCost",
          "type": "uint256"
        },
        {
          "internalType": "uint256",
          "name": "bullsEyeCost",
          "type": "uint256"
        }
      ],
      "name": "setAddonCosts",
      "outputs": [],
      "stateMutability": "nonpayable",
      "type": "function"
    },
    {
      "inputs": [
        {
          "internalType": "bool",
          "name": "enabled",
          "type": "bool"
        }
      ],
      "name": "setAutoClaim",
      "outputs": [],
      "stateMutability": "nonpayable",
      "type": "function"
    },
    {
      "inputs": [
        {
          "internalType": "uint8",
          "name": "spotSize",
          "type": "uint8"
        },
        {
          "internalType": "uint8",
          "name": "hits",
          "type": "uint8"
        },
        {
          "internalType": "uint256",
          "name": "multiplier_",
          "type": "uint256"
        }
      ],
      "name": "setBullsEyePaytable",
      "outputs": [],
      "stateMutability": "nonpayable",
      "type": "function"
    },
    {
      "inputs": [
        {
          "internalType": "uint256",
          "name": "feeBps_",
          "type": "uint256"
        },
        {
          "internalType": "address",
          "name": "recipient",
          "type": "address"
        }
      ],
      "name": "setFee",
      "outputs": [],
      "stateMutability": "nonpayable",
      "type": "function"
    },
    {
      "inputs": [
        {
          "internalType": "uint256",
          "name": "maxWager",
          "type": "uint256"
        }
      ],
      "name": "setMaxWagerPerDraw",
      "outputs": [],
      "stateMutability": "nonpayable",
      "type": "function"
    },
    {
      "inputs": [
        {
          "internalType": "uint256[]",
          "name": "values",
          "type": "uint256[]"
        },
        {
          "internalType": "uint256[]",
          "name": "weights",
          "type": "uint256[]"
        }
      ],
      "name": "setMultiplierDistribution",
      "outputs": [],
      "stateMutability": "nonpayable",
      "type": "function"
    },
    {
      "inputs": [
        {
          "internalType": "uint8",
          "name": "spotSize",
          "type": "uint8"
        },
        {
          "internalType": "uint8",
          "name": "hits",
          "type": "uint8"
        },
        {
          "internalType": "uint256",
          "name": "multiplier_",
          "type": "uint256"
        }
      ],
      "name": "setPaytable",
      "outputs": [],
      "stateMutability": "nonpayable",
      "type": "function"
    },
    {
      "inputs": [
        {
          "internalType": "uint256",
          "name": "baseSeed",
          "type": "uint256"
        },
        {
          "internalType": "uint256",
          "name": "costPerDraw",
          "type": "uint256"
        },
        {
          "internalType": "uint256",
          "name": "feeBps_",
          "type": "uint256"
        }
      ],
      "name": "setProgressiveConfig",
      "outputs": [],
      "stateMutability": "nonpayable",
      "type": "function"
    },
    {
      "inputs": [
        {
          "internalType": "address",
          "name": "provider",
          "type": "address"
        }
      ],
      "name": "setRandomnessProvider",
      "outputs": [],
      "stateMutability": "nonpayable",
      "type": "function"
    },
    {
      "inputs": [
        {
          "internalType": "uint256",
          "name": "newDuration",
          "type": "uint256"
        }
      ],
      "name": "setRoundDuration",
      "outputs": [],
      "stateMutability": "nonpayable",
      "type": "function"
    },
    {
      "inputs": [],
      "name": "startNextRound",
      "outputs": [],
      "stateMutability": "nonpayable",
      "type": "function"
    },
    {
      "inputs": [
        {
          "internalType": "uint256",
          "name": "",
          "type": "uint256"
        }
      ],
      "name": "tickets",
      "outputs": [
        {
          "internalType": "address",
          "name": "player",
          "type": "address"
        },
        {
          "internalType": "uint64",
          "name": "firstRoundId",
          "type": "uint64"
        },
        {
          "internalType": "uint8",
          "name": "draws",
          "type": "uint8"
        },
        {
          "internalType": "uint8",
          "name": "spotSize",
          "type": "uint8"
        },
        {
          "internalType": "uint16",
          "name": "addons",
          "type": "uint16"
        },
        {
          "internalType": "uint8",
          "name": "drawsRemaining",
          "type": "uint8"
        },
        {
          "internalType": "uint256",
          "name": "wagerPerDraw",
          "type": "uint256"
        },
        {
          "internalType": "uint256",
          "name": "numbersBitmap",
          "type": "uint256"
        }
      ],
      "stateMutability": "view",
      "type": "function"
    },
    {
      "inputs": [
        {
          "internalType": "uint256",
          "name": "",
          "type": "uint256"
        },
        {
          "internalType": "uint256",
          "name": "",
          "type": "uint256"
        }
      ],
      "name": "ticketsByRound",
      "outputs": [
        {
          "internalType": "uint256",
          "name": "",
          "type": "uint256"
        }
      ],
      "stateMutability": "view",
      "type": "function"
    },
    {
      "inputs": [],
      "name": "token",
      "outputs": [
        {
          "internalType": "contract IERC20",
          "name": "",
          "type": "address"
        }
      ],
      "stateMutability": "view",
      "type": "function"
    },
    {
      "inputs": [
        {
          "internalType": "address",
          "name": "newOwner",
          "type": "address"
        }
      ],
      "name": "transferOwnership",
      "outputs": [],
      "stateMutability": "nonpayable",
      "type": "function"
    },
    {
      "inputs": [],
      "name": "unpause",
      "outputs": [],
      "stateMutability": "nonpayable",
      "type": "function"
    },
    {
      "inputs": [
        {
          "internalType": "uint256",
          "name": "amount",
          "type": "uint256"
        },
        {
          "internalType": "address",
          "name": "to",
          "type": "address"
        }
      ],
      "name": "withdrawBankroll",
      "outputs": [],
      "stateMutability": "nonpayable",
      "type": "function"
    },
    {
      "inputs": [],
      "name": "wrappedPulse",
      "outputs": [
        {
          "internalType": "contract IWrappedPulse",
          "name": "",
          "type": "address"
        }
      ],
      "stateMutability": "view",
      "type": "function"
    }
  ],
  "bytecode": "0x610100604052346113e35761746d610100813803918261001e816113e8565b9384928339810103126113e3576100348161140d565b9060208101519160ff8316928381036113e35760408301519160608401519361005f6080820161140d565b9061007860e061007160c0840161140d565b920161140d565b9133156113cd5760008054336001600160a01b0319821681178355604051969290916001600160a01b0316907f8be0079c531659141344cd1fd0a4f28419497f9722a3daafe3b4186f6b6457e09080a360018080556005556001600160a01b031693841561139a57506001600160a01b03169687156113555760018110159081611349575b5015611313576001600160a01b03169081156112ce576001600160a01b03169182156112975760805260a05260c090815260e09190915260039182556006928355600780546001600160a01b03191694909417845566038d7ea4c6800060098190556601c6bf52634000600a90815565e35fa931a000600b908155600c9290925569152d02c7e14af68000006010819055600f90815561213460115560027f4c4dc693d7db52f85fe052106f4b4b920e78e8ef37dee82878a60ab8585faf4a8190557fcaff291fe014adc6b72a172705750b4cabe8f8667664d2924a166caab288564a849055601b7ff06d282f967055cb1eee17e04aa005b9682a620f4bbcfaee55ba78607a3d87b1557ff06d282f967055cb1eee17e04aa005b9682a620f4bbcfaee55ba78607a3d87b081905560487fec061709de2491458f4c981032059d7d19b0e55f45018bac6b3e660bdc959a5d5560057fec061709de2491458f4c981032059d7d19b0e55f45018bac6b3e660bdc959a5c81905560017fec061709de2491458f4c981032059d7d19b0e55f45018bac6b3e660bdc959a5b81905561019a7f5696377e725b42a372ecc45f0fbdab5e9555865aef54619ad9381892f667bbf55560127f5696377e725b42a372ecc45f0fbdab5e9555865aef54619ad9381892f667bbf4557f5696377e725b42a372ecc45f0fbdab5e9555865aef54619ad9381892f667bbf383905561044c7fc6a239f207aea309a1b4879cb5411b8facfc2bc1e4cc4717ff2598676c399b655560397fc6a239f207aea309a1b4879cb5411b8facfc2bc1e4cc4717ff2598676c399b64557fc6a239f207aea309a1b4879cb5411b8facfc2bc1e4cc4717ff2598676c399b63999099557fc6a239f207aea309a1b4879cb5411b8facfc2bc1e4cc4717ff2598676c399b628990556107d07f5c9294642c77fdf0ce4b0f45159c977165b1ec2ef3bb94ee3e2a496634c781ef81905560647f5c9294642c77fdf0ce4b0f45159c977165b1ec2ef3bb94ee3e2a496634c781ee8190557f5c9294642c77fdf0ce4b0f45159c977165b1ec2ef3bb94ee3e2a496634c781ed969096557f5c9294642c77fdf0ce4b0f45159c977165b1ec2ef3bb94ee3e2a496634c781ec8290557f5c9294642c77fdf0ce4b0f45159c977165b1ec2ef3bb94ee3e2a496634c781eb999099556127107f5d722ae86c7aff0f95f426cf86f75793e8cd1a526603df14563c190f75fd2efb5561012c7f5d722ae86c7aff0f95f426cf86f75793e8cd1a526603df14563c190f75fd2efa81905560327f5d722ae86c7aff0f95f426cf86f75793e8cd1a526603df14563c190f75fd2ef98190557f5d722ae86c7aff0f95f426cf86f75793e8cd1a526603df14563c190f75fd2ef88590557f5d722ae86c7aff0f95f426cf86f75793e8cd1a526603df14563c190f75fd2ef78490556161a87f650982f08e47212452de30f662e413cf6044e641dedc09b52c1617e804a26127557f650982f08e47212452de30f662e413cf6044e641dedc09b52c1617e804a261269a909a557f650982f08e47212452de30f662e413cf6044e641dedc09b52c1617e804a261259590955560147f650982f08e47212452de30f662e413cf6044e641dedc09b52c1617e804a26124557f650982f08e47212452de30f662e413cf6044e641dedc09b52c1617e804a261238190557f650982f08e47212452de30f662e413cf6044e641dedc09b52c1617e804a26122829055620186a07fd5b9797c47f98351da0d9dc8805f06430ade47345ddb9b2bd6f346a04809cc4b556113887fd5b9797c47f98351da0d9dc8805f06430ade47345ddb9b2bd6f346a04809cc4a556101f47fd5b9797c47f98351da0d9dc8805f06430ade47345ddb9b2bd6f346a04809cc49557fd5b9797c47f98351da0d9dc8805f06430ade47345ddb9b2bd6f346a04809cc48989098557fd5b9797c47f98351da0d9dc8805f06430ade47345ddb9b2bd6f346a04809cc478390557fd5b9797c47f98351da0d9dc8805f06430ade47345ddb9b2bd6f346a04809cc46557fd5b9797c47f98351da0d9dc8805f06430ade47345ddb9b2bd6f346a04809cc419690965560176020527ff36d6bc9642eb6fb6ee9998b09ce990566df752ab06e11f8de7ab633bbd57b9085905560217fc52df653038b2ad477d8d97f1ddd63cfd138847b628ad8a7b89c109c3f8782cc81905560517fd8b2bced50346359af71f91110b86cdf684b6ab1c6ca64a7583c044d5c24de5f557fd8b2bced50346359af71f91110b86cdf684b6ab1c6ca64a7583c044d5c24de5e86905560d87f68052a315987b3c92fe6f7df77391bc5a825cabe4950d34f36f8f4e8a6abcb51557f68052a315987b3c92fe6f7df77391bc5a825cabe4950d34f36f8f4e8a6abcb508790557f68052a315987b3c92fe6f7df77391bc5a825cabe4950d34f36f8f4e8a6abcb4f8590556104ce7f70266c3d5b8b2375fded59c72bf5f0d74bbb12fdf645a4c8630629f0191fb31c5560367f70266c3d5b8b2375fded59c72bf5f0d74bbb12fdf645a4c8630629f0191fb31b557f70266c3d5b8b2375fded59c72bf5f0d74bbb12fdf645a4c8630629f0191fb31a869055610ce47fdba639bd458ad7aa817aa5e381ad7ed79ea3aeac2e3d9b2d7c51df9a922970a35560ab7fdba639bd458ad7aa817aa5e381ad7ed79ea3aeac2e3d9b2d7c51df9a922970a25560157fdba639bd458ad7aa817aa5e381ad7ed79ea3aeac2e3d9b2d7c51df9a922970a1557fdba639bd458ad7aa817aa5e381ad7ed79ea3aeac2e3d9b2d7c51df9a922970a08590556117707ffae2f3cf7832fe1c3d9af0d1138f3108106a06e0c9fcfc402be937e37ff7af6d8190557ffae2f3cf7832fe1c3d9af0d1138f3108106a06e0c9fcfc402be937e37ff7af6c8490557ffae2f3cf7832fe1c3d9af0d1138f3108106a06e0c9fcfc402be937e37ff7af6b919091557ffae2f3cf7832fe1c3d9af0d1138f3108106a06e0c9fcfc402be937e37ff7af6a8790557ffae2f3cf7832fe1c3d9af0d1138f3108106a06e0c9fcfc402be937e37ff7af69949094556175307ff573626183c54e3dd8eb68c6c0266a90101d76d98ec703822e6a139999dd765d556103847ff573626183c54e3dd8eb68c6c0266a90101d76d98ec703822e6a139999dd765c5560967ff573626183c54e3dd8eb68c6c0266a90101d76d98ec703822e6a139999dd765b819055602d7ff573626183c54e3dd8eb68c6c0266a90101d76d98ec703822e6a139999dd765a557ff573626183c54e3dd8eb68c6c0266a90101d76d98ec703822e6a139999dd7659869055620124f87f0480f894719e4db46f2c51c98cf5b891889d59db5c7f94573597494ddc8d4aea557f0480f894719e4db46f2c51c98cf5b891889d59db5c7f94573597494ddc8d4ae9949094557f0480f894719e4db46f2c51c98cf5b891889d59db5c7f94573597494ddc8d4ae891909155603c7f0480f894719e4db46f2c51c98cf5b891889d59db5c7f94573597494ddc8d4ae7557f0480f894719e4db46f2c51c98cf5b891889d59db5c7f94573597494ddc8d4ae68590557f0480f894719e4db46f2c51c98cf5b891889d59db5c7f94573597494ddc8d4ae5849055600052620493e07fd01a1030c3796725449ebf72d73ac5540c8aa9c83f796ef75dcf19a390d0383655613a987fd01a1030c3796725449ebf72d73ac5540c8aa9c83f796ef75dcf19a390d03835556105dc7fd01a1030c3796725449ebf72d73ac5540c8aa9c83f796ef75dcf19a390d03834557fd01a1030c3796725449ebf72d73ac5540c8aa9c83f796ef75dcf19a390d0383391909155601e7fd01a1030c3796725449ebf72d73ac5540c8aa9c83f796ef75dcf19a390d03832557fd01a1030c3796725449ebf72d73ac5540c8aa9c83f796ef75dcf19a390d03831919091557fd01a1030c3796725449ebf72d73ac5540c8aa9c83f796ef75dcf19a390d0382c91909155610c47816113e8565b600581526020810160a0368237610c5d836113e8565b9060058252602082019260a03685376001610c7782611421565b526002610c8382611444565b526003610c8f82611454565b526005610c9b82611464565b52600a610ca782611474565b52603c610cb384611421565b526019610cbf84611444565b52600a610ccb84611454565b526004610cd784611464565b526001610ce384611474565b5251906001600160401b0382116111cd576801000000000000000082116111cd57600d5482600d5580831061125c575b50600d600052602060002060005b8381106112485750509151929150506001600160401b0382116111cd576801000000000000000082116111cd57600e5482600e5580831061120d575b50600e600052602060002060005b8381106111f9578460016004556003544201908142116111e35761028091610d92836113e8565b9236843760005b601460ff82161015610dbe57600160ff916000611fe08260051b168701520116610d99565b5090606091610dcc836113e8565b928036853760005b600360ff82161015610df957600160ff916000611fe08260051b168801520116610dd4565b50909193602093610e09856113e8565b906000825260003681376040519261024084016001600160401b038111858210176111cd576040526001845260018060401b0342168785015260018060401b038616604085015260008585015260006080850152600060a0850152600088850152600060e085015261010084015261012083015260006101408301526000610160830152600061018083015260006101a083015260006101c083015260006101e0830152600061020083015261022082015260016000526018845260406000208151815560018060401b0385830151169260018201549068010000000000000000600160801b03604085015160401b16908401519460038610156111b75760009560ff60801b9060801b169260018060881b03191617171760018201556080820151600282015560a082015160038201556004810160ff878401511681549061ff0060e086015160081b169161ffff1916171790556101008201518390845b87601482106111925750505060058201556101208201518390845b876003821061116d5750505060068201556101408201516007820155610160820151600882015561018082015160098201556101a0820151600a8201556101c0820151600b8201556101e0820151600c820155610200820151600d82015561022090910151805192600e90920191906001600160401b03841161115957680100000000000000008411611159578590835485855580861061113f575b5001918152848120905b83811061112d57600454604080516001600160401b0342811682528816898201528992917fb9574e0faab8124549420ceb05e8203d89eacae04d747d51d12d373b600dbe9b91a2604051615fd1918261149c833960805182818161042601528181610f81015281816113d801528181611a5a01528181611e2901528181611fde015281816120bd0152818161238101528181612d8f0152615c8e015260a051828181611ab101528181611de001528181611ec501528181611f080152611f8c015251818181610cf601528181611e7901528181611f57015261206c015260e0518181816106d8015281816112e3015281816125dd01528181612b2a0152612d280152f35b82518282015591850191600101611029565b848452828420611153918101908701611484565b8861101f565b634e487b7160e01b82526041600452602482fd5b82519293919260019260ff600386901b81811b199092169216901b1793019101610f83565b82519293919260019260ff600386901b81811b199092169216901b1793019101610f68565b634e487b7160e01b600052602160045260246000fd5b634e487b7160e01b600052604160045260246000fd5b634e487b7160e01b600052601160045260246000fd5b600190602084519401938184015501610d6b565b600e600052611242907fbb7b4a454dc3493923482f07822329ed19e8244eff582cc204f8554c3620c3fd908101908401611484565b38610d5d565b600190602084519401938184015501610d21565b600d600052611291907fd7b6990105719101dabeb77144f2a3385c8033acd3af97e9423a695e81ad1eb5908101908401611484565b38610d13565b60405162461bcd60e51b815260206004820152600f60248201526e1c9bdd5d195c881c995c5d5a5c9959608a1b6044820152606490fd5b60405162461bcd60e51b815260206004820152601460248201527f7772617070656420504c532072657175697265640000000000000000000000006044820152606490fd5b60405162461bcd60e51b815260206004820152600e60248201526d6d617853706f7420626f756e647360901b6044820152606490fd5b601491501115386100fd565b60405162461bcd60e51b815260206004820152601660248201527f66656520726563697069656e74207265717569726564000000000000000000006044820152606490fd5b62461bcd60e51b815260206004820152600e60248201526d1d1bdad95b881c995c5d5a5c995960921b6044820152606490fd5b631e4fbdf760e01b600052600060045260246000fd5b600080fd5b6040519190601f01601f191682016001600160401b038111838210176111cd57604052565b51906001600160a01b03821682036113e357565b80511561142e5760200190565b634e487b7160e01b600052603260045260246000fd5b80516001101561142e5760400190565b80516002101561142e5760600190565b80516003101561142e5760800190565b80516004101561142e5760a00190565b81811061148f575050565b6000815560010161148456fe6080604052600436101561001257600080fd5b6000803560e01c80630476828a146133235780630656db82146132e257806309f6528b14613278578063127873f71461316457806319688f731461314857806324a9d8531461312a57806324fd143914612efb57806328ca6b5914612ec05780633146726014612ea2578063325f95d514612e865780633469f6e214612de757806334efa8e514612d4c5780633614e8dc14612d0e57806336c92c3f14612cc05780633c3ccc4414612b955780633d2dec4e14612b545780633f29039014612aaa5780633f4ba83a14612a425780633fbf2bad1461198657806342f8158014612a2457806344d855f1146129dc57806345af8d99146129be57806345e8ae1a14612996578063469048401461296d5780634fd66eae1461287f57806350b44712146127f457806353d8bb3a1461272557806357db6e1d146126825780635b1d29d6146126665780635c975abb146126435780636031a52f14612625578063643082e21461260757806368863e1a14611d0d57806369ef5e5914611cef5780636b4169c314611cc15780636c09066d14611ca35780636f1ae09814611c85578063715018a614611c3d5780637170378e14611bc95780637439771b14611ae057806377ba9c6a14611a9b5780637cfcf16814611a105780637dc379fa146119cd57806380891ad2146119a257806383f7c92c146119865780638456cb591461192b578063868730c7146118c057806388668338146118a2578063895cea5e1461186157806389930d43146118455780638adac0361461180c5780638c65c81f146117205780638da5cb5b146116f95780638ed2b47e146116c15780638f1327c01461158e57806390199aa514611572578063901f0322146113535780639c2167cf146113285780639cbe5efd1461130a5780639e20499414610e95578063a361b84a14610e77578063a48f066d14610dd0578063a54ab45714610d9e578063a56d760114610d61578063a8a6283114610d43578063ae45439314610d25578063aec9b6f414610ce0578063b15fbc1414610c72578063b4f2e8b814610bac578063c349026314610b65578063c4aaefc514610b26578063ce9bf5ac14610afd578063cee3b9b914610ac4578063d0074c1314610aa8578063d14825c014610a57578063d38ab26314610a2d578063d4536481146109dd578063d51fb0ae146109bf578063d78a36ec146109a1578063db2e583b146107d1578063db2f6283146107b3578063dc2e450c14610702578063dce9afba14610617578063ddf6d6fb146105d6578063e1a45218146105b9578063e1a9888e1461058f578063e49abc9314610571578063e534f65214610538578063f2fde38b146104c4578063f6f1f89714610476578063f7cb789a146104585763fc0c546a1461041157600080fd5b346104555780600319360112610455576040517f00000000000000000000000000000000000000000000000000000000000000006001600160a01b03168152602090f35b80fd5b50346104555780600319360112610455576020600354604051908152f35b5034610455576020366003190112610455577f2842cf99332cf44653926376c4c0f5d0f91b749469ac9999bb1c6c9d728b1ba860206004356104b6614277565b80600955604051908152a180f35b5034610455576020366003190112610455576104de6136cb565b6104e6614277565b6001600160a01b031680156105245781546001600160a01b03198116821783556001600160a01b0316600080516020615f3c8339815191528380a380f35b631e4fbdf760e01b82526004829052602482fd5b5034610455576020366003190112610455576020906040906001600160a01b036105606136cb565b168152601f83522054604051908152f35b50346104555780600319360112610455576020600c54604051908152f35b50346104555760203660031901126104555760406020916004358152601c83522054604051908152f35b503461045557806003193601126104555760206040516127108152f35b5034610455576105e53661364d565b91908152601a6020526040812090815483101561045557602061060884846137cb565b90549060031b1c604051908152f35b5034610455577f7c636c44ca37fb8b4482d3e2bf0ac721f3252e0fcb6ee01411019deae2f584eb6106cf61064a36613767565b610655939193614277565b60ff83166001811015806106d5575b61066d90613cf9565b61067c8160ff87161115613d39565b865260176020526106ad816106948660408a20613741565b90919082549060031b91821b91600019901b1916179055565b6040519384938460ff6040929594938160608401971683521660208201520152565b0390a180f35b507f000000000000000000000000000000000000000000000000000000000000000060ff16811115610664565b5034610455576107113661364d565b6008549091906001600160a01b031633036107a4578083526018602052604083209160ff600184015460801c1660038110156107905760021461075e57600361075b93015561558d565b80f35b60405162461bcd60e51b815260206004820152600a602482015269726f756e6420646f6e6560b01b6044820152606490fd5b634e487b7160e01b85526021600452602485fd5b637b91e42d60e11b8352600483fd5b50346104555780600319360112610455576020600a54604051908152f35b5034610455576107e0366137e3565b939291906107ec614277565b6107f7858314613edf565b83845b868110610981575015610972576001600160401b03821161092257600160401b821161092257600d5482600d5580831061094a575b50600d8452600080516020615edc83398151915283855b8481106109365750506001600160401b038611905061092257600160401b851161092257600e5485600e558086106108fa575b50600e8452600080516020615ebc8339815191529481855b8281106108e657867f6b0e7669182bc03c544cb21580a41bae7373cae7514b6f8aa92e2a1fa866e9cf87876106cf88886108d86040519586956040875260408701916141c6565b9184830360208601526141c6565b60019060208335930192818a015501610891565b600e855261091c90600080516020615ebc8339815191529081019087016140a4565b38610879565b634e487b7160e01b84526041600452602484fd5b600190602083359301928185015501610846565b600d855261096c90600080516020615edc8339815191529081019084016140a4565b3861082f565b635ddc0d0560e01b8452600484fd5b9061099a600191610993848a876139ef565b3590613c80565b91016107fa565b50346104555780600319360112610455576020602454604051908152f35b50346104555780600319360112610455576020602554604051908152f35b5034610455577fcda926b273cdda34d70f34eec47ed98ffa88633adf73ab9d60f5d278944e743c6040610a0f3661364d565b610a17614277565b81600a5580600b5582519182526020820152a180f35b50346104555760203660031901126104555760406020916004358152601d83522054604051908152f35b503461045557806003193601126104555760e0600f54601054600c54601254601354906014549260155494604051968752602087015260408601526060850152608084015260a083015260c0820152f35b5034610455578060031936011261045557602060405160028152f35b5034610455576020366003190112610455576020906040906001600160a01b03610aec6136cb565b168152602183522054604051908152f35b50346104555780600319360112610455576008546040516001600160a01b039091168152602090f35b50346104555760203660031901126104555760209060ff906040906001600160a01b03610b516136cb565b168152602684522054166040519015158152f35b503461045557610ba5610b773661364d565b610b7f6143af565b610b876143cc565b8184526018602052610b9e60408520541515613b99565b33916149df565b6001805580f35b503461045557604036600319011261045557600435610bc96136e1565b610bd1614277565b6001600160a01b03168015610c385781604091610c136127107f7cfad8b150be9751a5386cc4e0f549618032ff63d14fab4f77cd4b0aaaedc24295111561402d565b6006829055600780546001600160a01b0319168217905582519182526020820152a180f35b60405162461bcd60e51b81526020600482015260126024820152711c9958da5c1a595b9d081c995c5d5a5c995960721b6044820152606490fd5b5034610455576020366003190112610455577f87b050f471f7331bfd8fc9347cd54894f2ae6663e3339e49ca0d8b2dbe792eb26020610caf6136cb565b610cb7614277565b600880546001600160a01b0319166001600160a01b03929092169182179055604051908152a180f35b50346104555780600319360112610455576040517f00000000000000000000000000000000000000000000000000000000000000006001600160a01b03168152602090f35b50346104555780600319360112610455576020601454604051908152f35b50346104555780600319360112610455576020600f54604051908152f35b503461045557606036600319011261045557610d9a610d8e610d816136cb565b60443590602435906140ef565b604051918291826136f7565b0390f35b50346104555760ff6040602092610db43661364d565b908252601b855282822090825284522054166040519015158152f35b5034610455576060366003190112610455576044356001600160a01b038116906024359060043590838103610e7357303303610e3e57610e119083836149df565b7f5ba6ae1472fa1f95a2f30d31b71199a65d64245b831cffe47667ebe85debeae46020604051868152a480f35b60405162461bcd60e51b815260206004820152600d60248201526c696e7465726e616c206f6e6c7960981b6044820152606490fd5b8480fd5b50346104555780600319360112610455576020602354604051908152f35b503461045557610ed9610ea736613833565b969093919495610eb56143af565b610ebd6143cc565b8089526018602052610ed460408a20541515613b99565b614d5e565b9560ff8316956001871080156112de575b6112cf5760ff86169283156112c05760095480151590816112b6575b506112a7578391858392610f1a8a8d615177565b610f23896141ea565b610f2c926154b4565b97610f37848861420b565b610f419085613c80565b600654610f4e9082613ca3565b612710900490610f5e8282613f1d565b93610f6891613ca3565b95610f7291613ca3565b610f7c8484613ca3565b6007547f000000000000000000000000000000000000000000000000000000000000000092610fb5916001600160a01b0316338561553f565b3033610fc09361553f565b60055498610fcd8a613ffb565b600555898c8c8a60405195610fe1876138e3565b3387526001600160401b03909216602080880191825260408089018b815260608a0195865261ffff90941660808a0190815260a0808b018d815260c08c018f815260e0808e019c8d529a8a52601990955292909720995193519451955190519490961b600160a01b600160e01b03166001600160a01b0393909316929092179390951b60ff60e01b169290921760e89390931b60ff60e81b169290921760f09290921b6001600160f01b031916919091178455516001848101805460ff191660ff9390931692909217909155905160028085019190915591516003909301929092559087161515906008881615159060048916151590891615158d808d8f5b8984106111a4579192508d600080516020615f5c8339815191528e8e61119a8f8f338a52601e6020526111168860408c2061400a565b338a52602160205260408a2061112c8154613ffb565b9055338a52601f60205260408a20611145838254613c80565b9055611152602554613ffb565b60255561116182602354613c80565b6023556040519485943398869160809360ff61ffff9298979693988160a087019a16865216602085015216604083015260608201520152565b0390a46001805580f35b8686868a60408f95976009976111d16111c08c60019d9c613c80565b91828452601a60205284842061400a565b8152601860205220946111e960088701918254613c80565b905561128e575b611275575b61125f575b611216575b0161120b888254613c80565b9055018e8d8f6110e0565b600c54611228600d8301918254613c80565b905561125761271061123f600c5460115490613ca3565b0461124c81600f54613c80565b600f55601254613c80565b6012556111ff565b600c820161126e8d8254613c80565b90556111fa565b600b54611287600b8501918254613c80565b90556111f5565b600a546112a0600a8601918254613c80565b90556111f0565b63cfc0057560e01b8a5260048afd5b9050831138610f06565b631d2fd6ad60e11b8a5260048afd5b63dcf35d5160e01b8952600489fd5b5060ff7f0000000000000000000000000000000000000000000000000000000000000000168711610eea565b50346104555780600319360112610455576020600454604051908152f35b50346104555760203660031901126104555760043590600d54821015610455576020610608836137b0565b5034610455576020366003190112610455576004356113706143af565b6113786143cc565b808252601860205261138f60408320541515613b99565b80825260186020526040822060ff600182015460801c16600381101561155e57906113be6002600e9314614068565b01908154801561152c57600f54906113d68183613ebf565b7f0000000000000000000000000000000000000000000000000000000000000000865b83811061148a575050505061141090601354613c80565b60135561141e601454613ffb565b601455601555601054600f55805482825580611470575b827e40c0e3f46f76397857d4a8a57bc7716d70dfc76d1ab3f23decc9208b5834c56040600f5460125482519182526020820152a16001805580f35b61148391835260208320908101906140a4565b3880611435565b80611497600192896137cb565b90549060031b1c808a52601960205260408a206114bd86858060a01b0383541687614624565b838060a01b038154168b526020805260408b206114db878254613c80565b90556114e986602454613c80565b602455838060a01b0390541690887f2eb6ee5835c4d14c2b95c6f3d9e30619a306083c0562030e7d84755854e5e306604080518b8152896020820152a4016113f9565b60405162461bcd60e51b815260206004820152600a6024820152696e6f2077696e6e65727360b01b6044820152606490fd5b634e487b7160e01b84526021600452602484fd5b5034610455578060031936011261045557602060405160048152f35b5034610455576020366003190112610455576040610d9a916115ae613939565b5060043581526018602052206116a7600e604051926115cc846138b1565b8054845260018101546001600160401b038082166020870152604082811c909116908601526116049060801c60ff1660608601613a20565b60028101546080850152600381015460a085015260ff600482015481811660c087015260081c1660e085015261163c60058201613a2c565b61010085015261164e60068201613b22565b610120850152600781015461014085015260088101546101608501526009810154610180850152600a8101546101a0850152600b8101546101c0850152600c8101546101e0850152600d81015461020085015201613b4e565b6102208201526040519182916020835260208301906134e2565b5034610455576020366003190112610455576020906040906001600160a01b036116e96136cb565b1681528280522054604051908152f35b5034610455578060031936011261045557546040516001600160a01b039091168152602090f35b50346104555760203660031901126104555760043581526018602052604090208054906001810154906002810154600382015460048301546007840154600885015490600986015492600a87015494600b88015496600c89015498600d0154996040519b8c52600160401b60019003811660208d0152600160401b600190038160401c1660408d015260608c019060801c60ff16906117be916134bf565b60808b015260a08a015260ff811660c08a015260081c60ff1660e08901526101008801526101208701526101408601526101608501526101808401526101a08301526101c08201526101e090f35b5034610455576020366003190112610455576020906040906001600160a01b036118346136cb565b168152602283522054604051908152f35b5034610455578060031936011261045557602060405160508152f35b50346104555760403660031901126104555761187b613731565b60ff1681526017602052604081206024359160108310156104555760206106088484613741565b50346104555780600319360112610455576020601154604051908152f35b5034610455576020366003190112610455576004358015158091036119275733825260266020526040822060ff1981541660ff83161790556040519081527fe8d1e64f2bcd39338b4e01da5a5b075ca0c23648ee7e603e08f4740a94554dfc60203392a280f35b5080fd5b5034610455578060031936011261045557611944614277565b61194c6143af565b600160ff1960025416176002557f62e78cea01bee320cd4e420270b5ea74000d11b0c9f74754ebdbfc544b05a2586020604051338152a180f35b5034610455578060031936011261045557602060405160018152f35b50346104555760203660031901126104555760043590600e5482101561045557602061060883613795565b503461045557602036600319011261045557611a016040610100926119f0613bd5565b506004358152601960205220613c12565b611a0e6040518092613663565bf35b5034610455576020366003190112610455577e40c0e3f46f76397857d4a8a57bc7716d70dfc76d1ab3f23decc9208b5834c56040611a86600435611a52614277565b611a7e8130337f000000000000000000000000000000000000000000000000000000000000000061553f565b600f54613c80565b80600f5560125482519182526020820152a180f35b50346104555780600319360112610455576040517f00000000000000000000000000000000000000000000000000000000000000006001600160a01b03168152602090f35b503461045557602036600319011261045557600435611afd614277565b611b056143cc565b8082526018602052611b1c60408320541515613b99565b81526018602052600160408220015460ff8160801c166003811015611bb5576002611b479114614068565b60018060401b039060401c1662ed4e008101809111611ba157421115611b6e576001805580f35b60405162461bcd60e51b815260206004820152600b60248201526a1b9bdd08195e1c1a5c995960aa1b6044820152606490fd5b634e487b7160e01b82526011600452602482fd5b634e487b7160e01b83526021600452602483fd5b5034610455576060366003190112610455577fea23a808c77d9c1bfece65b21a325d1ec2d926633c1c7a8b219dc89f3858cfc06060600435604435602435611c0f614277565b611c1d61271083111561402d565b8260105580600c558160115560405192835260208301526040820152a180f35b5034610455578060031936011261045557611c56614277565b80546001600160a01b03198116825581906001600160a01b0316600080516020615f3c8339815191528280a380f35b50346104555780600319360112610455576020601554604051908152f35b50346104555780600319360112610455576020600b54604051908152f35b503461045557806003193601126104555760235460245490610d9a6025546004549060405194859485613895565b50346104555780600319360112610455576020601354604051908152f35b50611d2a611d1a36613833565b9295610eb59791949295976143af565b95600160ff87161080156125d8575b6125c95760ff8516156125ba5760095480151590816125b0575b506125a157611d76918691611d68878a615177565b611d71866141ea565b6154b4565b90611d8a611d84828561420b565b82613c80565b90612710611d9a60065484613ca3565b0491611dc2611db7611dac8584613f1d565b9260ff891690613ca3565b9360ff881690613ca3565b9360405190611dd26060836138ff565b6002825260403660208401377f00000000000000000000000000000000000000000000000000000000000000006001600160a01b0316611e11836139ff565b5281516001101561258d576040820160018060a01b037f00000000000000000000000000000000000000000000000000000000000000001690526040516307c0329d60e21b8152856004820152604060248201528b8180611e756044820187613fa3565b03817f00000000000000000000000000000000000000000000000000000000000000006001600160a01b03165afa801561258257611eba918d91612568575b506139ff565b5191823410612530577f00000000000000000000000000000000000000000000000000000000000000006001600160a01b03163b1561252c57604051630d0e30db60e41b81528c81600481877f00000000000000000000000000000000000000000000000000000000000000006001600160a01b03165af180156124d557612518575b5060405163095ea7b360e01b81526020818e8180611f88897f00000000000000000000000000000000000000000000000000000000000000006001600160a01b031660048401613fe0565b03917f00000000000000000000000000000000000000000000000000000000000000006001600160a01b03165af180156124d5576124e0575b506040516370a0823160e01b8152306004820152906020826024817f00000000000000000000000000000000000000000000000000000000000000006001600160a01b03165afa9182156124d5578d926124a1575b5061012c4201421161248d57906120578d8093604051809381926338ed173960e01b835289600484015284602484015260a0604484015260a4830190613fa3565b3060648301524261012c0160848301520381837f00000000000000000000000000000000000000000000000000000000000000006001600160a01b03165af180156124625761246d575b506040516370a0823160e01b81523060048201526020816024817f00000000000000000000000000000000000000000000000000000000000000006001600160a01b03165afa90811561246257889391612424575b509061210191613f1d565b106123ec578895828c9334116123ab575b50908160039261236e575b508460ff8a8d8b6005549e8f9261213384613ffb565b600555604080519a8b95612146876138e3565b3387526020870193600180851b031684528860a084890198828b168a5282606082019816885261ffff6080820199168952019816885260c08d01998a5260e08d019a8b5281526019602052209960018060a01b039060018060a01b039051161660018060a01b03198b5416178a55518954938660e01b905160e01b16918660e81b905160e81b169261ffff60f01b905160f01b169360018060f01b0391600160a01b600160e01b039060a01b1690600160a01b600160f01b03191617161717178655511660ff60018601911660ff19825416179055516002840155519101558890600186161515600287161515928a898d8c60048c1615159360088d161515955b60ff8516811061227f57509192600080516020615f5c8339815191528d8d61119a8e8e338a52601e6020526111168860408c2061400a565b60018160098a8a8f8f8c908b6122ac8c604061229d60ff9d8f613c80565b93848152601a6020522061400a565b8c52601860205260408c2094600886016122c7858254613c80565b9055612355575b61233c575b612325575b506122f4575b016122ea8c8254613c80565b9055019050612247565b600c54612306600d8301918254613c80565b905561231d61271061123f600c5460115490613ca3565b6012556122de565b612334600c8401918254613c80565b90558f6122d8565b600b5461234e600b8601918254613c80565b90556122d3565b600a54612367600a8701918254613c80565b90556122ce565b6007546123a591906001600160a01b03167f0000000000000000000000000000000000000000000000000000000000000000614624565b3861211d565b838080939499506123bd819334613f1d565b8181156123e3575b3390f1156123d65794889538612112565b50604051903d90823e3d90fd5b506108fc6123c5565b60405162461bcd60e51b815260206004820152601060248201526f14ddd85c081d5b99195c999d5b99195960821b6044820152606490fd5b919250506020813d60201161245a575b81612441602093836138ff565b8101031261245557518691906121016120f6565b600080fd5b3d9150612434565b6040513d85823e3d90fd5b612488903d8085833e61248081836138ff565b810190613f2a565b6120a1565b634e487b7160e01b8d52601160045260248dfd5b9091506020813d6020116124cd575b816124bd602093836138ff565b8101031261245557519038612016565b3d91506124b0565b6040513d8f823e3d90fd5b6020813d602011612510575b816124f9602093836138ff565b8101031261250c57518015158114611fc1575b8c80fd5b3d91506124ec565b8c612525919d929d6138ff565b9a38611f3d565b8b80fd5b60405162461bcd60e51b815260206004820152601060248201526f496e73756666696369656e7420504c5360801b6044820152606490fd5b61257c91503d808f833e61248081836138ff565b38611eb4565b6040513d8e823e3d90fd5b634e487b7160e01b8b52603260045260248bfd5b63cfc0057560e01b8852600488fd5b9050831138611d53565b631d2fd6ad60e11b8852600488fd5b63dcf35d5160e01b8852600488fd5b5060ff7f00000000000000000000000000000000000000000000000000000000000000001660ff871611611d39565b50346104555780600319360112610455576020600954604051908152f35b50346104555780600319360112610455576020600554604051908152f35b5034610455578060031936011261045557602060ff600254166040519015158152f35b5034610455578060031936011261045557602060405160038152f35b503461045557612691366137e3565b909161269b6143af565b6126a36143cc565b6126ae828214613edf565b80156126f157845b8181106126c557856001805580f35b806126eb6126d660019385896139ef565b3533906126e484888a6139ef565b35906149df565b016126b6565b60405162461bcd60e51b815260206004820152600c60248201526b656d7074792061727261797360a01b6044820152606490fd5b5034610455576127343661364d565b61273c614277565b818352601860205261275360408420541515613b99565b818352601c602052604083205460405160208101908382526020815261277a6040826138ff565b519020036127bd5760207f4704c5ba8acad9b83e07ffdd1fd6cf6192c8abd0611e3c8251b6fbd867d5787691838552601d8252806040862055604051908152a280f35b60405162461bcd60e51b815260206004820152600f60248201526e0c6dedadad2e840dad2e6dac2e8c6d608b1b6044820152606490fd5b503461045557602036600319011261045557604061010091600435815260196020522080549060ff6001820154169060036002820154910154916040519360018060a01b038116855260018060401b038160a01c16602086015260ff8160e01c16604086015260ff8160e81c16606086015260f01c608085015260a084015260c083015260e0820152f35b5034610455576020366003190112610455576001600160a01b036128a16136cb565b16808252601f602052604082205490808352602080526040832054908084526021602052604084205490845260226020526040842054811515600014612966576127108102818104612710148215171561295257826128ff91613ebf565b915b848403938686128186128116908287139015161761293e5760c09650604051958652602086015260408501526060840152608083015260a0820152f35b634e487b7160e01b87526011600452602487fd5b634e487b7160e01b86526011600452602486fd5b8491612901565b50346104555780600319360112610455576007546040516001600160a01b039091168152602090f35b50346104555760406129b06129aa3661364d565b90613d79565b825191151582526020820152f35b50346104555780600319360112610455576020601054604051908152f35b5034610455576040366003190112610455576129f66136cb565b6001600160a01b03168152601e602052604081208054602435929083101561045557602061060884846137cb565b5034610455578060031936011261045557602060405162ed4e008152f35b5034610455578060031936011261045557612a5b614277565b60025460ff811615612a9b5760ff19166002557f5db9ee0a495bf2e6ff9c91a7834c1ba4fdd244a5e8aa4e537bd38aeae4b073aa6020604051338152a180f35b638dfc202b60e01b8252600482fd5b5034610455577f226c035c58a3af0339491203d91bfea130eb356c2c1c1834d5bd479fcd3279206106cf612add36613767565b612ae8939193614277565b60ff8316600181101580612b27575b612b0090613cf9565b612b0f8160ff87161115613d39565b865260166020526106ad816106948660408a20613741565b507f000000000000000000000000000000000000000000000000000000000000000060ff16811115612af7565b503461045557604036600319011261045557612b6e613731565b60ff1681526016602052604081206024359160108310156104555760206106088484613741565b5034610455578060031936011261045557612bae6143af565b612bb6614277565b612bc160045461465e565b60045460018101809111611ba1578082526018602052604082205415612cb557808252601860205260408220600101546001600160401b031615612c5c575b806004558082526018602052600080516020615f1c83398151915260018060401b03600160408520015416828452601860205260018060401b03600160408620015460401c1690612c5660405192839283613cdf565b0390a280f35b80825260186020526040822060010180546001600160401b031916426001600160401b0381811692909217909255600354612cb092612c9b9190613c80565b16828452601860205260016040852001613cb6565b612c00565b61075b9042906146e5565b5034610455576020366003190112610455577fa43b887135e50a579b92d986f6a117baa67f560bee7c2f4bcfded56317d4e5556020600435612d00614277565b80600355604051908152a180f35b5034610455578060031936011261045557602060405160ff7f0000000000000000000000000000000000000000000000000000000000000000168152f35b503461045557604036600319011261045557612d666136e1565b612d6e614277565b612d766143cc565b6001600160a01b03811615612db357610ba590600435907f0000000000000000000000000000000000000000000000000000000000000000614624565b60405162461bcd60e51b815260206004820152600c60248201526b7a65726f206164647265737360a01b6044820152606490fd5b503461045557602036600319011261045557600435612e046143af565b612e0c6143cc565b8082526018602052612e2360408320541515613b99565b80825260186020526040822090600182015460ff8160801c16600381101561079057600214612e775760401c6001600160401b03164210612e685790610ba591614412565b63280ae12160e21b8352600483fd5b630653ad9b60e31b8452600484fd5b5034610455578060031936011261045557602060405160088152f35b50346104555780600319360112610455576020601254604051908152f35b503461045557602036600319011261045557610d9a90610d8e906040906001600160a01b03612eed6136cb565b168152601e60205220613b4e565b503461045557602036600319011261045557612f156136cb565b6001600160a01b03168152601e6020526040812080548291825b828110612f4157602084604051908152f35b612f4b81836137cb565b905460039190911b1c808652601960205260408620805460e081901c60ff16919060a081901c6001600160401b0316895b848110612f9157505050505050600101612f2f565b612f9b8183613c80565b808c52601860205260408c209060ff600183015460801c1660038110156131165760021490816130f4575b50612fd5575b50600101612f7c565b61307f906001929b8d8660f01c928561306961302060038c015460ff600486015460081c1661300660058701613a2c565b9160048a1615159261301a60068901613b22565b916142d5565b9060028d015460ff8d60e81c169182885260166020526130536130468260408b20613741565b90549060031b1c83613ca3565b928894806130e8575b6130b7575b505050613c80565b94161515806130ae575b613086575b5050613c80565b9990612fcc565b6007015491926130a092909150806130a857508490613ca3565b908d38613078565b90613ca3565b50831515613073565b6130df939450906130d2918952601760205260408920613741565b90549060031b1c90613ca3565b90388080613061565b5060028b16151561305c565b90508c52601b60205260408c20878d5260205260ff60408d2054161538612fc6565b634e487b7160e01b8e52602160045260248efd5b50346104555780600319360112610455576020600654604051908152f35b5034610455578060031936011261045557602060405160148152f35b5034610455576020366003190112610455576004356001600160401b0381116119275761319590369060040161348f565b9061319f82613922565b916131ad60405193846138ff565b808352601f196131bc82613922565b01845b818110613261575050835b818110613223578385604051918291602083016020845282518091526020604085019301915b8181106131fe575050500390f35b919350916020610100826132156001948851613663565b0194019101918493926131f0565b8061323160019284866139ef565b358652601960205261324560408720613c12565b61324f8287613a0c565b5261325a8186613a0c565b50016131ca565b60209061326c613bd5565b828288010152016131bf565b50346104555760207fcf522dc435d37dc8c46f84c4d158065e47451f0a0b8d1168dc5b5ad30608e66c6132aa3661364d565b6132b5939193614277565b838552601882526132cb60408620541515613b99565b838552601c8252806040862055604051908152a280f35b5034610455576040366003190112610455576004359061ffff8216820361045557602061331b83613312816141ea565b6024359061420b565b604051908152f35b5034610455576020366003190112610455576004356001600160401b0381116119275761335490369060040161348f565b9061335e82613922565b9161336c60405193846138ff565b808352601f1961337b82613922565b01845b818110613478575050835b8181106133f75783856040519182916020830160208452825180915260408401602060408360051b870101940192905b8282106133c857505050500390f35b919360019193955060206133e78192603f198a820301865288516134e2565b96019201920185949391926133b9565b8061340560019284866139ef565b358652601860205260408620613456600e60405192613423846138b1565b8054845285810154604087811b889003808316602088015282821c16908601526116049060801c60ff1660608601613a20565b6102208201526134668287613a0c565b526134718186613a0c565b5001613389565b602090613483613939565b8282880101520161337e565b9181601f84011215612455578235916001600160401b038311612455576020808501948460051b01011161245557565b9060038210156134cc5752565b634e487b7160e01b600052602160045260246000fd5b6104e08201908051835260018060401b03602082015116602084015260018060401b036040820151166040840152613522606082015160608501906134bf565b6080810151608084015260a081015160a084015260ff60c08201511660c084015260ff60e08201511660e084015261010081015161010084016000905b6014821061363457505050610120810151600061038085015b6003821061361b575050506105006102208261014060209401516103e08701526101608101516104008701526101808101516104208701526101a08101516104408701526101c08101516104608701526101e08101516104808701526102008101516104a08701520151936104e06104c082015284518094520192019060005b8181106136055750505090565b82518452602093840193909201916001016135f8565b60208060019260ff865116815201930191019091613578565b60208060019260ff86511681520193019101909161355f565b6040906003190112612455576004359060243590565b60e0809160018060a01b03815116845260018060401b03602082015116602085015260ff604082015116604085015260ff606082015116606085015261ffff608082015116608085015260ff60a08201511660a085015260c081015160c08501520151910152565b600435906001600160a01b038216820361245557565b602435906001600160a01b038216820361245557565b602060408183019282815284518094520192019060005b81811061371b5750505090565b825184526020938401939092019160010161370e565b6004359060ff8216820361245557565b6010821015613751570190600090565b634e487b7160e01b600052603260045260246000fd5b60609060031901126124555760043560ff81168103612455579060243560ff81168103612455579060443590565b600e5481101561375157600e60005260206000200190600090565b600d5481101561375157600d60005260206000200190600090565b80548210156137515760005260206000200190600090565b6040600319820112612455576004356001600160401b038111612455578161380d9160040161348f565b90929091602435906001600160401b0382116124555761382f9160040161348f565b9091565b9060c06003198301126124555760043591602435906001600160401b038211612455576138629160040161348f565b909160443560ff81168103612455579060643560ff81168103612455579060843561ffff81168103612455579060a43590565b9094939260609260808301968352602083015260408201520152565b61024081019081106001600160401b038211176138cd57604052565b634e487b7160e01b600052604160045260246000fd5b61010081019081106001600160401b038211176138cd57604052565b601f909101601f19168101906001600160401b038211908210176138cd57604052565b6001600160401b0381116138cd5760051b60200190565b60405190613946826138b1565b816000815260006020820152600060408201526000606082015260006080820152600060a0820152600060c0820152600060e08201526102806040519061398d81836138ff565b3682376101008201526102206060916040516139a984826138ff565b8336823761012082015260006101408201526000610160820152600061018082015260006101a082015260006101c082015260006101e082015260006102008201520152565b91908110156137515760051b0190565b8051156137515760200190565b80518210156137515760209160051b010190565b60038210156134cc5752565b9060ff60405192548181168452818160081c166020850152818160101c166040850152818160181c166060850152818160201c166080850152818160281c1660a0850152818160301c1660c0850152818160381c1660e0850152818160401c16610100850152818160481c16610120850152818160501c16610140850152818160581c16610160850152818160601c16610180850152818160681c166101a0850152818160701c166101c0850152818160781c166101e0850152818160801c16610200850152818160881c16610220850152818160901c1661024085015260981c16610260830152613b20610280836138ff565b565b9060ff60405192548181168452818160081c16602085015260101c166040830152613b206060836138ff565b906040519182815491828252602082019060005260206000209260005b818110613b80575050613b20925003836138ff565b8454835260019485019487945060209093019201613b6b565b15613ba057565b60405162461bcd60e51b815260206004820152600d60248201526c726f756e64206d697373696e6760981b6044820152606490fd5b60405190613be2826138e3565b600060e0838281528260208201528260408201528260608201528260808201528260a08201528260c08201520152565b90604051613c1f816138e3565b60e060038294805460018060a01b038116855260018060401b038160a01c16602086015260ff81851c16604086015260ff8160e81c16606086015260f01c608085015260ff60018201541660a0850152600281015460c08501520154910152565b91908201809211613c8d57565b634e487b7160e01b600052601160045260246000fd5b81810292918115918404141715613c8d57565b8054600160401b600160801b03191660409290921b600160401b600160801b0316919091179055565b6001600160401b0391821681529116602082015260400190565b15613d0057565b60405162461bcd60e51b815260206004820152601160248201527073706f74206f7574206f662072616e676560781b6044820152606490fd5b15613d4057565b60405162461bcd60e51b815260206004820152601160248201527068697473206f7574206f662072616e676560781b6044820152606490fd5b81600052601860205260406000209060ff600183015460801c1660038110156134cc57600203613eb4576000526019602052613dc2604060002092613dbd84613c12565b61499f565b15613eaa576001613e4560028454948560f01c9560ff613e0a60038401548260048a015460081c16613df660058b01613a2c565b9160048c1615159261301a60068d01613b22565b94909301549160e81c1691826000526016602052613e2f613046826040600020613741565b9260009480613e9e575b613e8157505050613c80565b9216151580613e78575b613e5b575b5080151591565b60070154613e729190806130a85750600190613ca3565b38613e54565b50811515613e4f565b6130df939450906130d29160005260176020526040600020613741565b50600289161515613e39565b5050600090600090565b505050600090600090565b8115613ec9570490565b634e487b7160e01b600052601260045260246000fd5b15613ee657565b60405162461bcd60e51b815260206004820152600f60248201526e0d8cadccee8d040dad2e6dac2e8c6d608b1b6044820152606490fd5b91908203918211613c8d57565b602081830312612455578051906001600160401b03821161245557019080601f83011215612455578151613f5d81613922565b92613f6b60405194856138ff565b81845260208085019260051b82010192831161245557602001905b828210613f935750505090565b8151815260209182019101613f86565b906020808351928381520192019060005b818110613fc15750505090565b82516001600160a01b0316845260209384019390920191600101613fb4565b6001600160a01b039091168152602081019190915260400190565b6000198114613c8d5760010190565b80549190600160401b8310156138cd5782610694916001613b20950181556137cb565b1561403457565b60405162461bcd60e51b815260206004820152600c60248201526b0cccaca40e8dede40d0d2ced60a31b6044820152606490fd5b1561406f57565b60405162461bcd60e51b815260206004820152600d60248201526c1b9bdd08199a5b985b1a5e9959609a1b6044820152606490fd5b8181106140af575050565b600081556001016140a4565b90600160401b81116138cd578154908083558181106140d957505050565b613b2092600052602060002091820191016140a4565b6001600160a01b03166000908152601e6020526040902080549192909190818410156141a85761413391614124859283613c80565b908082116141a0575b50613f1d565b9061413d82613922565b9261414b60405194856138ff565b828452601f1961415a84613922565b0136602086013760005b838110614172575050505090565b8061418861418260019385613c80565b856137cb565b90549060031b1c6141998288613a0c565b5201614164565b90503861412d565b505050506040516141ba6020826138ff565b60008152600036813790565b81835290916001600160fb1b0383116124555760209260051b809284830137010190565b61ffff600f80921716036141fa57565b6308aacfc360e31b60005260046000fd5b600092916001821661426d575b60028216614259575b60048216614245575b5060081661423457565b9061424290600c5490613c80565b90565b6142529060089294613c80565b929061422a565b9261426790600b5490613c80565b92614221565b600a549350614218565b6000546001600160a01b0316330361428b57565b63118cdaa760e01b6000523360045260246000fd5b9060148110156137515760051b0190565b60ff6000199116019060ff8211613c8d57565b9060038110156137515760051b0190565b9291939060009560009060005b60ff81166014811015614343576142fb60ff91866142a0565b5116600160ff61430a836142b1565b161b881661431f575b5060010160ff166142e2565b9861432990613ffb565b9860ff87161461433a575b38614313565b60019250614334565b505093509491905061435457509050565b60005b60ff811660038110156143a85760ff61437d81614376600194876142c4565b51166142b1565b161b8416614391575b60010160ff16614357565b94600161439f60ff92613ffb565b96915050614386565b5050509050565b60ff600254166143bb57565b63d93c066560e01b60005260046000fd5b6002600154146143dd576002600155565b633ee5aeb560e01b60005260046000fd5b9060038110156134cc57815460ff60801b191660809190911b60ff60801b16179055565b60018201805460801c60ff1693929060038510156134cc57600285146143a857600094156145e8575b506003810190815415614456575b5050613b2091925061558d565b60085485906001600160a01b0316801515806145dc575b6145175750839052601c6020526040852054151580614502575b156144a9575060408483613b20959652601d602052205490555b829138614449565b600019430190438211612952579460406008613b209697015491858152601a602052205460405191602083019340845285604084015260608301526080820152608081526144f860a0826138ff565b51902090556144a1565b50828552601d60205260408520541515614487565b8460208392602460405180968193637363ae1f60e01b83528660048401525af19283156145d157829361457e575b507e5ad2040ac867410a5ddf8877ff0229f6d92669359e59c28426092325ebfc716020600494604051908152a2637b91e42d60e11b8152fd5b92506020833d6020116145c9575b81614599602093836138ff565b81010312611927579151917e5ad2040ac867410a5ddf8877ff0229f6d92669359e59c28426092325ebfc71614545565b3d915061458c565b6040513d84823e3d90fd5b5060028301541561446d565b805460ff60801b1916600160801b179055817fe9f7d7fd0b133404f0ccff737d6f3594748e04bc5507adfaed35835ef98937118580a23861443b565b614659613b20939261464b60405194859263a9059cbb60e01b602085015260248401613fe0565b03601f1981018452836138ff565b615b5a565b8060005260186020526040600020805415801561469e575b61469a57600181015460401c6001600160401b0316421061469a57613b2091614412565b5050565b5060ff600182015460801c1660038110156134cc57600214614676565b9061ff0082549160081b169061ff001916179055565b9060ff809160031b9316831b921b19161790565b9060018060401b036146f960035483613c80565b1690614703615bc1565b61470b615c04565b6040516020929161471c84836138ff565b60008252600036813760405192614732846138b1565b87845260018060401b038616858501528660408501526000606085015260006080850152600060a0850152600060c0850152600060e085015261010084015261012083015260006101408301526000610160830152600061018083015260006101a083015260006101c083015260006101e0830152600061020083015261022082015284600052601882526040600020815181556001810160018060401b0360018060401b0385850151161660018060401b031982541617815561480260018060401b0360408501511682613cb6565b606083015160038110156134cc57614819916143ee565b6080820151600282015560a0820151600382015560c082015160048201805460ff191660ff92831617815560e08401516148549216906146bb565b61010082015160009060005b856014821061498257505050600582015561012082015160009060005b85600382106149655750505060068201556101408201516007820155610160820151600882015561018082015160098201556101a0820151600a8201556101c0820151600b8201556101e0820151600c820155610200820151600d82015561022090910151805192600e90920191906001600160401b0384116138cd57819061490685856140bb565b0191600052806000209060005b8481106149535750505060048590555050604051600080516020615f1c833981519152929091829161494e916001600160401b031683613cdf565b0390a2565b83518382015592810192600101614913565b61497983948360ff600195965116916146d1565b9301910161487d565b61499683948360ff600195965116916146d1565b93019101614860565b60208101516001600160401b03168083106149d75760ff60406149c59301511690613c80565b600019810191908211613c8d57111590565b505050600090565b806000526018602052604060002092600184015460ff8160801c1660038110156134cc57600203614d0b5760018060401b039060401c1662ed4e008101809111613c8d574211614d4d576000838152601960205260409020805490916001600160a01b03918216911603614d1c57614a5a82613dbd83613c12565b15614d0b5781600052601b60205260406000208360005260205260ff60406000205416614cfa5781600052601b6020526040600020836000526020526040600020600160ff198254161790556001810160ff81541680614cde575b505080548060f01c94614af1600384015460ff600484015460081c16614add60058501613a2c565b9160048a1615159261301a60068701613b22565b93909160ff60028301549460e81c1693846000526016602052614b28614b1b856040600020613741565b90549060031b1c82613ca3565b9460009680614cd2575b614cae575b5050614b438585613c80565b6001809916151580614ca5575b614c51575b918188614b78614bbb9582600080516020615efc8339815191529a999896615c41565b9383549060088260f01c1615159182614c3c575b5081614c30575b50614c1d575b505081614bc0575b546040516001600160a01b03909116989094859485613895565b0390a4565b60018060a01b03815416600052602080526040600020614be1838254613c80565b905580546001600160a01b031660009081526022602052604090208054614c0790613ffb565b9055614c1582602454613c80565b602455614ba1565b600e614c29920161400a565b3888614b99565b60099150101538614b93565b600991925060ff9060e81c1610159038614b8c565b975091614bbb9183886007600080516020615efc83398151915298979601548015600014614c995750614b78614c8a60015b809d613ca3565b93955050509193949550614b55565b614c8a614b7891614c83565b50801515614b50565b614cca92965060005260176020526130d2846040600020613741565b933880614b37565b5060028a161515614b32565b614ce960ff916142b1565b1660ff198254161790553880614ab5565b630c8d9eab60e31b60005260046000fd5b633562af9d60e11b60005260046000fd5b60405162461bcd60e51b81526020600482015260096024820152683737ba1037bbb732b960b91b6044820152606490fd5b6341524ecf60e11b60005260046000fd5b80600052601860205260406000205415614e54575b614d7c8161465e565b80600052601860205260016040600020015460ff8160801c1660038110156134cc57159081614e3e575b50614242576004549081600052601860205260406000205415614e36575b50614dce8161465e565b80600052601860205260ff60016040600020015460801c1660038110156134cc571580614e0f575b6142425760018101809111613c8d5761424242826146e5565b506000818152601860205260409081902060010154901c6001600160401b03164210614df6565b905038614dc4565b60401c6001600160401b03164210905038614da6565b60005b60018110614e655750614d73565b614e6f8183613c80565b80600052601860205260406000205415614e8d575b50600101614e57565b6000198101818111613c8d576000908152601860205260409081902060010154901c6001600160401b0316428110156151725750425b6003546001600160401b039182169190614edd9083613c80565b1690614ee7615bc1565b614eef615c04565b60405160209291614f0084836138ff565b60008252600036813760405192614f16846138b1565b87845285858501528660408501526000606085015260006080850152600060a0850152600060c0850152600060e085015261010084015261012083015260006101408301526000610160830152600061018083015260006101a083015260006101c083015260006101e0830152600061020083015261022082015284600052601882526040600020815181556001810160018060401b0360018060401b0385850151161660018060401b0319825416178155614fde60018060401b0360408501511682613cb6565b606083015160038110156134cc57614ff5916143ee565b6080820151600282015560a0820151600382015560c082015160048201805460ff191660ff92831617815560e08401516150309216906146bb565b610100820151600090815b8560148210615155575050506005820155610120820151600090815b85600382106151385750505060068201556101408201516007820155610160820151600882015561018082015160098201556101a0820151600a8201556101c0820151600b8201556101e0820151600c820155610200820151600d82015561022090910151805192600e90920191906001600160401b0384116138cd5781906150e085856140bb565b0191600052806000209060005b8481106151265750505050506001939291600080516020615f1c8339815191529161511d60405192839283613cdf565b0390a290614e84565b835183820155928101926001016150ed565b61514c83948360ff600195965116916146d1565b93019101615057565b61516983948360ff600195965116916146d1565b9301910161503b565b614ec3565b60005b60ff8316811061518957505050565b6151938183613c80565b806000526018602052604060002054156151b1575b5060010161517a565b6000198101818111613c8d576000908152601860205260409081902060010154901c6001600160401b0316428110156154af5750425b6003546001600160401b03906151ff90838316613c80565b1690615209615bc1565b615211615c04565b6040516020929161522284836138ff565b60008252600036813760405192615238846138b1565b87845260018060401b038616858501528660408501526000606085015260006080850152600060a0850152600060c0850152600060e085015261010084015261012083015260006101408301526000610160830152600061018083015260006101a083015260006101c083015260006101e08301526000610200830152610220820152846000526018825260406000208151815560018060401b0360018060401b0384840151161660018060401b031960018301541617600182015561530d60018060401b0360408401511660018301613cb6565b606082015160038110156134cc5761532890600183016143ee565b6080820151600282015560a0820151600382015560c082015160048201805460ff191660ff92831617815560e08401516153639216906146bb565b610100820151600090815b8560148210615492575050506005820155610120820151600090815b85600382106154755750505060068201556101408201516007820155610160820151600882015561018082015160098201556101a0820151600a8201556101c0820151600b8201556101e0820151600c820155610200820151600d82015561022090910151805192600e90920191906001600160401b0384116138cd57819061541385856140bb565b0191600052806000209060005b84811061546357505050505091600080516020615f1c83398151915260ff9492600194615459604051928392888060401b031683613cdf565b0390a291506151a8565b83518382015592810192600101615420565b61548983948360ff600195965116916146d1565b9301910161538a565b6154a683948360ff600195965116916146d1565b9301910161536e565b6151e7565b91929060ff6000941681036155235790916000915b8083106154d557505050565b909291936154e48583866139ef565b3560ff8116808203612455578015908115615534575b506155235760ff61550c6001926142b1565b161b808216615523576001911794019192906154c9565b631d2fd6ad60e11b60005260046000fd5b6050915011386154fa565b6040516323b872dd60e01b60208201526001600160a01b039283166024820152929091166044830152606480830193909352918152613b20916146596084836138ff565b8115613ec9570690565b908160005260186020526040600020916003830154928315615b2657600181019060ff825460801c1660038110156134cc576002146143a857604051610280956155d787836138ff565b8636833760405195610a006155ec81896138ff565b36883760005b60ff8116605081101561562757600181019160ff8311613c8d5760ff928361561c6001948d615d24565b9116905201166155f2565b5050919395969490929460005b60ff811660148110156156e857604080516020810188815260ff85169282019290925261566e81606081015b03601f1981018352826138ff565b51902091816050039160ff8311613c8d576156e060ff6156d7838f6156a261569c859a8660019b1690615583565b83613c80565b6156d1856156b08585615d24565b511691866156be8286615d24565b51166156ca8686615d24565b5283615d24565b52615d24565b5116918a6142a0565b520116615634565b50509396509390948660009060005b60148110615b07575050600583015560048201805460ff191660ff60148606811691821783556157339161572b908b6142a0565b5116826146bb565b61573c84615d35565b600784019081556060936040519161575486846138ff565b85368437600098895b60ff8b16601481101561578c5760ff9160018f61578085614376849682946142a0565b161b179b01169961575d565b50989b909294969a9193959799506107809b8c6157ac6040519e8f6138ff565b368e3760009a60018e5b60ff82169060508211615844578d600160ff6157d1866142b1565b161b161561580c575b50509060ff9d6157f660509e9d9c9b9a99989796959493615e99565b9192939495969798999a9b9c9d509d508e6157b6565b919d9c9b9a9998979695949392916158238e615e99565b9d60ff1661583091615eaa565b52909192939495969798999a9b388f6157da565b5050509295989a50929598509295996005604051916020830193845260408084015282015264706c75733360d81b60808201526080815261588660a0826138ff565b519020603c9990959060005b60ff811690600382101561593d57908c91818a6040516158c9816156608660208301958690815260ff909116602082015260400190565b51902093039260ff8411613c8d578f8360ff8f93600196615935946158f861569c61592d9486809d1690615583565b615927856159068585615eaa565b511691866159148286615eaa565b51166159208686615eaa565b5283615eaa565b52615eaa565b5116926142c4565b520116615892565b5050949a50945094909589979298509060009160005b60038110615ad657505060060155805460ff60801b1916600160811b17905554905460405193909260ff9290921691906000855b60148210615ab9575050508301526102a08201527f7a1a4d7e1f853bde9ea898de81ccfe2567585af3eb0bfe687475b1ff8eec4e91906102c090a281600052601a602052604060002060005b8154811080615aad575b15615aa7576159ec81836137cb565b90549060031b1c9081600052601960205260018060a01b03604060002054169182600052602660205260ff6040600020541680615a82575b615a39575b50615a349150613ffb565b6159d3565b303b1561245557615a34926040519163a48f066d60e01b83528760048401526024830152604482015260008160648183305af115615a29576000615a7c916138ff565b38615a29565b5085600052601b60205260406000208160005260205260ff6040600020541615615a24565b50509050565b5062030d405a116159dd565b825160ff1681528997506020928301926001929092019101615987565b91928194959697989950615af46020918460ff6001955116916146d1565b94019101908a9897969594939291615953565b90916020615b1d6001928460ff875116916146d1565b930191016156f7565b60405162461bcd60e51b815260206004820152600c60248201526b73656564206d697373696e6760a01b6044820152606490fd5b906000602091828151910182855af115615bb5576000513d615bac57506001600160a01b0381163b155b615b8b5750565b635274afe760e01b60009081526001600160a01b0391909116600452602490fd5b60011415615b84565b6040513d6000823e3d90fd5b60405190610280615bd281846138ff565b3683378160005b60ff81166014811015615bff5760ff916000615bf7600193866142a0565b520116615bd9565b505050565b604051906060615c1481846138ff565b3683378160005b60ff81166003811015615bff5760ff916000615c39600193866142c4565b520116615c1b565b92918015615d1c5760098401908154948515615cf057858211615ce95781925b615c6c848098613f1d565b9055600084815260196020526040902054615cb29084906001600160a01b03167f0000000000000000000000000000000000000000000000000000000000000000614624565b818310615cc0575b50505050565b600080516020615f7c83398151915291604091549382519182526020820152a338808080615cba565b8592615c61565b60409193949550600080516020615f7c83398151915292505492815190815260006020820152a3600090565b506000925050565b9060508110156137515760051b0190565b600d54908115615e1d5760008091600e545b808410615e025750615d9c92506040516020810191825260408082015260116060820152706d756c7469706c6965722d637573746f6d60781b608082015260808152615d9460a0826138ff565b519020615583565b600090815b838310615dca575050506000198101908111613c8d57615dc0906137b0565b90549060031b1c90565b615de490615dd784613795565b90549060031b1c90613c80565b91828210615df55760010191615da1565b915050615dc091506137b0565b9091615e13600191615dd786613795565b9301929190615d47565b6064915060405160208101918252604080820152600a60608201526936bab63a34b83634b2b960b11b608082015260808152615e5a60a0826138ff565b51902006603c8110615e935760558110615e8d57605f8110615e8757606311615e8257600a90565b600590565b50600390565b50600290565b50600190565b60ff1660ff8114613c8d5760010190565b90603c8110156137515760051b019056febb7b4a454dc3493923482f07822329ed19e8244eff582cc204f8554c3620c3fdd7b6990105719101dabeb77144f2a3385c8033acd3af97e9423a695e81ad1eb5f0c5530862e9fcfa7ebbce4bd4344ad74ec0dd820319df07ce8b1130270f3de8b9574e0faab8124549420ceb05e8203d89eacae04d747d51d12d373b600dbe9b8be0079c531659141344cd1fd0a4f28419497f9722a3daafe3b4186f6b6457e0ecc7a5b32957f4be7b9653484d7f9aec9d5b017fa0dbbff4899ec4cb9df0334f68baffa75719c6abf244ca6a3760e5bfb793ce43443454a7234f2aec1bd5fc45a2646970667358221220c52eafff991ca697bd1b87955bb6e3f0b1a003cc80e3135855e51e1ee76a11b164736f6c634300081c0033",
  "linkReferences": {},
  "deployedLinkReferences": {}
}