{
  "_format": "hh-sol-artifact-1",
  "contractName": "SuperStakeLottery6of55",
  "sourceName": "contracts/SuperStakeLottery6of55V2.sol",
  "abi": [
    {
      "inputs": [
        {
          "internalType": "address",
          "name": "_morbiusTokenAddress",
          "type": "address"
        },
        {
          "internalType": "address",
          "name": "_wplsTokenAddress",
          "type": "address"
        },
        {
          "internalType": "address",
          "name": "_pulseXRouterAddress",
          "type": "address"
        },
        {
          "internalType": "uint256",
          "name": "_initialRoundDuration",
          "type": "uint256"
        },
        {
          "internalType": "uint256",
          "name": "_megaMillionsInterval",
          "type": "uint256"
        }
      ],
      "stateMutability": "nonpayable",
      "type": "constructor"
    },
    {
      "inputs": [
        {
          "internalType": "address",
          "name": "owner",
          "type": "address"
        }
      ],
      "name": "OwnableInvalidOwner",
      "type": "error"
    },
    {
      "inputs": [
        {
          "internalType": "address",
          "name": "account",
          "type": "address"
        }
      ],
      "name": "OwnableUnauthorizedAccount",
      "type": "error"
    },
    {
      "inputs": [],
      "name": "ReentrancyGuardReentrantCall",
      "type": "error"
    },
    {
      "inputs": [
        {
          "internalType": "address",
          "name": "token",
          "type": "address"
        }
      ],
      "name": "SafeERC20FailedOperation",
      "type": "error"
    },
    {
      "anonymous": false,
      "inputs": [
        {
          "indexed": true,
          "internalType": "uint256",
          "name": "roundId",
          "type": "uint256"
        },
        {
          "indexed": false,
          "internalType": "uint256",
          "name": "bracket",
          "type": "uint256"
        },
        {
          "indexed": false,
          "internalType": "uint256",
          "name": "winnerCount",
          "type": "uint256"
        },
        {
          "indexed": false,
          "internalType": "uint256",
          "name": "poolAmount",
          "type": "uint256"
        },
        {
          "indexed": false,
          "internalType": "uint256",
          "name": "payoutPerWinner",
          "type": "uint256"
        }
      ],
      "name": "BracketResults",
      "type": "event"
    },
    {
      "anonymous": false,
      "inputs": [
        {
          "indexed": true,
          "internalType": "uint256",
          "name": "roundId",
          "type": "uint256"
        },
        {
          "indexed": false,
          "internalType": "uint256",
          "name": "bankAmount",
          "type": "uint256"
        },
        {
          "indexed": false,
          "internalType": "uint256",
          "name": "toBracket6",
          "type": "uint256"
        },
        {
          "indexed": false,
          "internalType": "uint256",
          "name": "toBracket5",
          "type": "uint256"
        }
      ],
      "name": "MegaMillionsTriggered",
      "type": "event"
    },
    {
      "anonymous": false,
      "inputs": [
        {
          "indexed": true,
          "internalType": "address",
          "name": "previousOwner",
          "type": "address"
        },
        {
          "indexed": true,
          "internalType": "address",
          "name": "newOwner",
          "type": "address"
        }
      ],
      "name": "OwnershipTransferred",
      "type": "event"
    },
    {
      "anonymous": false,
      "inputs": [
        {
          "indexed": false,
          "internalType": "uint256",
          "name": "oldDuration",
          "type": "uint256"
        },
        {
          "indexed": false,
          "internalType": "uint256",
          "name": "newDuration",
          "type": "uint256"
        }
      ],
      "name": "RoundDurationUpdated",
      "type": "event"
    },
    {
      "anonymous": false,
      "inputs": [
        {
          "indexed": true,
          "internalType": "uint256",
          "name": "roundId",
          "type": "uint256"
        },
        {
          "indexed": false,
          "internalType": "uint8[6]",
          "name": "winningNumbers",
          "type": "uint8[6]"
        },
        {
          "indexed": false,
          "internalType": "uint256",
          "name": "totalMorbius",
          "type": "uint256"
        },
        {
          "indexed": false,
          "internalType": "uint256",
          "name": "totalTickets",
          "type": "uint256"
        },
        {
          "indexed": false,
          "internalType": "uint256",
          "name": "uniquePlayers",
          "type": "uint256"
        }
      ],
      "name": "RoundFinalized",
      "type": "event"
    },
    {
      "anonymous": false,
      "inputs": [
        {
          "indexed": true,
          "internalType": "uint256",
          "name": "roundId",
          "type": "uint256"
        },
        {
          "indexed": false,
          "internalType": "uint256",
          "name": "closingBlock",
          "type": "uint256"
        },
        {
          "indexed": false,
          "internalType": "uint256",
          "name": "totalTickets",
          "type": "uint256"
        },
        {
          "indexed": false,
          "internalType": "uint256",
          "name": "totalMorbius",
          "type": "uint256"
        }
      ],
      "name": "RoundLocked",
      "type": "event"
    },
    {
      "anonymous": false,
      "inputs": [
        {
          "indexed": true,
          "internalType": "uint256",
          "name": "roundId",
          "type": "uint256"
        },
        {
          "indexed": false,
          "internalType": "uint256",
          "name": "startTime",
          "type": "uint256"
        },
        {
          "indexed": false,
          "internalType": "uint256",
          "name": "endTime",
          "type": "uint256"
        },
        {
          "indexed": false,
          "internalType": "bool",
          "name": "isMegaMillionsRound",
          "type": "bool"
        }
      ],
      "name": "RoundStarted",
      "type": "event"
    },
    {
      "anonymous": false,
      "inputs": [
        {
          "indexed": true,
          "internalType": "address",
          "name": "player",
          "type": "address"
        },
        {
          "indexed": true,
          "internalType": "uint256",
          "name": "roundId",
          "type": "uint256"
        },
        {
          "indexed": false,
          "internalType": "uint256",
          "name": "ticketCount",
          "type": "uint256"
        },
        {
          "indexed": false,
          "internalType": "uint256",
          "name": "freeTicketsUsed",
          "type": "uint256"
        },
        {
          "indexed": false,
          "internalType": "uint256",
          "name": "morbiusSpent",
          "type": "uint256"
        }
      ],
      "name": "TicketsPurchased",
      "type": "event"
    },
    {
      "anonymous": false,
      "inputs": [
        {
          "indexed": true,
          "internalType": "address",
          "name": "player",
          "type": "address"
        },
        {
          "indexed": false,
          "internalType": "uint256[]",
          "name": "roundIds",
          "type": "uint256[]"
        },
        {
          "indexed": false,
          "internalType": "uint256[]",
          "name": "ticketCounts",
          "type": "uint256[]"
        },
        {
          "indexed": false,
          "internalType": "uint256",
          "name": "morbiusSpent",
          "type": "uint256"
        }
      ],
      "name": "TicketsPurchasedForRounds",
      "type": "event"
    },
    {
      "anonymous": false,
      "inputs": [
        {
          "indexed": true,
          "internalType": "uint256",
          "name": "roundId",
          "type": "uint256"
        },
        {
          "indexed": false,
          "internalType": "uint256",
          "name": "bracket",
          "type": "uint256"
        },
        {
          "indexed": false,
          "internalType": "uint256",
          "name": "amount",
          "type": "uint256"
        },
        {
          "indexed": false,
          "internalType": "string",
          "name": "destination",
          "type": "string"
        }
      ],
      "name": "UnclaimedPrizeRolledOver",
      "type": "event"
    },
    {
      "anonymous": false,
      "inputs": [
        {
          "indexed": true,
          "internalType": "address",
          "name": "player",
          "type": "address"
        },
        {
          "indexed": false,
          "internalType": "uint256",
          "name": "wplsSpent",
          "type": "uint256"
        },
        {
          "indexed": false,
          "internalType": "uint256",
          "name": "morbiusReceived",
          "type": "uint256"
        }
      ],
      "name": "WPLSSwappedForTickets",
      "type": "event"
    },
    {
      "anonymous": false,
      "inputs": [
        {
          "indexed": true,
          "internalType": "address",
          "name": "player",
          "type": "address"
        },
        {
          "indexed": true,
          "internalType": "uint256",
          "name": "roundId",
          "type": "uint256"
        },
        {
          "indexed": false,
          "internalType": "uint256",
          "name": "amount",
          "type": "uint256"
        }
      ],
      "name": "WinningsClaimed",
      "type": "event"
    },
    {
      "inputs": [
        {
          "internalType": "uint256",
          "name": "",
          "type": "uint256"
        }
      ],
      "name": "BRACKET_PERCENTAGES",
      "outputs": [
        {
          "internalType": "uint256",
          "name": "",
          "type": "uint256"
        }
      ],
      "stateMutability": "view",
      "type": "function"
    },
    {
      "inputs": [],
      "name": "BURN_ADDRESS",
      "outputs": [
        {
          "internalType": "address",
          "name": "",
          "type": "address"
        }
      ],
      "stateMutability": "view",
      "type": "function"
    },
    {
      "inputs": [],
      "name": "BURN_PCT",
      "outputs": [
        {
          "internalType": "uint256",
          "name": "",
          "type": "uint256"
        }
      ],
      "stateMutability": "view",
      "type": "function"
    },
    {
      "inputs": [],
      "name": "MAX_FUTURE_ROUND_OFFSET",
      "outputs": [
        {
          "internalType": "uint256",
          "name": "",
          "type": "uint256"
        }
      ],
      "stateMutability": "view",
      "type": "function"
    },
    {
      "inputs": [],
      "name": "MAX_NUMBER",
      "outputs": [
        {
          "internalType": "uint8",
          "name": "",
          "type": "uint8"
        }
      ],
      "stateMutability": "view",
      "type": "function"
    },
    {
      "inputs": [],
      "name": "MEGA_BANK_PCT",
      "outputs": [
        {
          "internalType": "uint256",
          "name": "",
          "type": "uint256"
        }
      ],
      "stateMutability": "view",
      "type": "function"
    },
    {
      "inputs": [],
      "name": "MIN_NUMBER",
      "outputs": [
        {
          "internalType": "uint8",
          "name": "",
          "type": "uint8"
        }
      ],
      "stateMutability": "view",
      "type": "function"
    },
    {
      "inputs": [],
      "name": "MORBIUS_TOKEN",
      "outputs": [
        {
          "internalType": "contract IERC20",
          "name": "",
          "type": "address"
        }
      ],
      "stateMutability": "view",
      "type": "function"
    },
    {
      "inputs": [],
      "name": "NUMBERS_PER_TICKET",
      "outputs": [
        {
          "internalType": "uint8",
          "name": "",
          "type": "uint8"
        }
      ],
      "stateMutability": "view",
      "type": "function"
    },
    {
      "inputs": [],
      "name": "ROLLOVER_TO_BURN_PCT",
      "outputs": [
        {
          "internalType": "uint256",
          "name": "",
          "type": "uint256"
        }
      ],
      "stateMutability": "view",
      "type": "function"
    },
    {
      "inputs": [],
      "name": "ROLLOVER_TO_MEGA_PCT",
      "outputs": [
        {
          "internalType": "uint256",
          "name": "",
          "type": "uint256"
        }
      ],
      "stateMutability": "view",
      "type": "function"
    },
    {
      "inputs": [],
      "name": "ROLLOVER_TO_NEXT_ROUND_PCT",
      "outputs": [
        {
          "internalType": "uint256",
          "name": "",
          "type": "uint256"
        }
      ],
      "stateMutability": "view",
      "type": "function"
    },
    {
      "inputs": [],
      "name": "TICKET_PRICE",
      "outputs": [
        {
          "internalType": "uint256",
          "name": "",
          "type": "uint256"
        }
      ],
      "stateMutability": "view",
      "type": "function"
    },
    {
      "inputs": [],
      "name": "TOTAL_PCT",
      "outputs": [
        {
          "internalType": "uint256",
          "name": "",
          "type": "uint256"
        }
      ],
      "stateMutability": "view",
      "type": "function"
    },
    {
      "inputs": [],
      "name": "WINNERS_POOL_PCT",
      "outputs": [
        {
          "internalType": "uint256",
          "name": "",
          "type": "uint256"
        }
      ],
      "stateMutability": "view",
      "type": "function"
    },
    {
      "inputs": [],
      "name": "WPLS_SWAP_BUFFER_PCT",
      "outputs": [
        {
          "internalType": "uint256",
          "name": "",
          "type": "uint256"
        }
      ],
      "stateMutability": "view",
      "type": "function"
    },
    {
      "inputs": [],
      "name": "WPLS_TOKEN",
      "outputs": [
        {
          "internalType": "contract IERC20",
          "name": "",
          "type": "address"
        }
      ],
      "stateMutability": "view",
      "type": "function"
    },
    {
      "inputs": [],
      "name": "blockDelay",
      "outputs": [
        {
          "internalType": "uint256",
          "name": "",
          "type": "uint256"
        }
      ],
      "stateMutability": "view",
      "type": "function"
    },
    {
      "inputs": [],
      "name": "ticketPriceMorbius",
      "outputs": [
        {
          "internalType": "uint256",
          "name": "",
          "type": "uint256"
        }
      ],
      "stateMutability": "view",
      "type": "function"
    },
    {
      "inputs": [],
      "name": "ticketPricePls",
      "outputs": [
        {
          "internalType": "uint256",
          "name": "",
          "type": "uint256"
        }
      ],
      "stateMutability": "view",
      "type": "function"
    },
    {
      "inputs": [
        {
          "internalType": "uint8[6][]",
          "name": "ticketNumbers",
          "type": "uint8[6][]"
        }
      ],
      "name": "buyTickets",
      "outputs": [],
      "stateMutability": "nonpayable",
      "type": "function"
    },
    {
      "inputs": [
        {
          "internalType": "uint8[6][][]",
          "name": "ticketGroups",
          "type": "uint8[6][][]"
        },
        {
          "internalType": "uint256[]",
          "name": "roundOffsets",
          "type": "uint256[]"
        }
      ],
      "name": "buyTicketsForRounds",
      "outputs": [],
      "stateMutability": "nonpayable",
      "type": "function"
    },
    {
      "inputs": [
        {
          "internalType": "uint8[6][]",
          "name": "ticketNumbers",
          "type": "uint8[6][]"
        }
      ],
      "name": "buyTicketsWithPLS",
      "outputs": [],
      "stateMutability": "payable",
      "type": "function"
    },
    {
      "inputs": [
        {
          "internalType": "uint8[6][]",
          "name": "ticketNumbers",
          "type": "uint8[6][]"
        }
      ],
      "name": "buyTicketsWithWPLS",
      "outputs": [],
      "stateMutability": "nonpayable",
      "type": "function"
    },
    {
      "inputs": [
        {
          "internalType": "uint8[6][]",
          "name": "ticketNumbers",
          "type": "uint8[6][]"
        },
        {
          "internalType": "uint256",
          "name": "extraBufferBp",
          "type": "uint256"
        }
      ],
      "name": "buyTicketsWithWPLSAndBuffer",
      "outputs": [],
      "stateMutability": "nonpayable",
      "type": "function"
    },
    {
      "inputs": [
        {
          "internalType": "uint256",
          "name": "roundId",
          "type": "uint256"
        }
      ],
      "name": "claimWinnings",
      "outputs": [],
      "stateMutability": "nonpayable",
      "type": "function"
    },
    {
      "inputs": [
        {
          "internalType": "uint256",
          "name": "",
          "type": "uint256"
        },
        {
          "internalType": "address",
          "name": "",
          "type": "address"
        }
      ],
      "name": "claimableWinnings",
      "outputs": [
        {
          "internalType": "uint256",
          "name": "",
          "type": "uint256"
        }
      ],
      "stateMutability": "view",
      "type": "function"
    },
    {
      "inputs": [],
      "name": "currentRoundId",
      "outputs": [
        {
          "internalType": "uint256",
          "name": "",
          "type": "uint256"
        }
      ],
      "stateMutability": "view",
      "type": "function"
    },
    {
      "inputs": [],
      "name": "currentRoundStartTime",
      "outputs": [
        {
          "internalType": "uint256",
          "name": "",
          "type": "uint256"
        }
      ],
      "stateMutability": "view",
      "type": "function"
    },
    {
      "inputs": [],
      "name": "currentRoundState",
      "outputs": [
        {
          "internalType": "enum SuperStakeLottery6of55.RoundState",
          "name": "",
          "type": "uint8"
        }
      ],
      "stateMutability": "view",
      "type": "function"
    },
    {
      "inputs": [],
      "name": "currentRoundTotalMorbius",
      "outputs": [
        {
          "internalType": "uint256",
          "name": "",
          "type": "uint256"
        }
      ],
      "stateMutability": "view",
      "type": "function"
    },
    {
      "inputs": [],
      "name": "currentRoundTotalTickets",
      "outputs": [
        {
          "internalType": "uint256",
          "name": "",
          "type": "uint256"
        }
      ],
      "stateMutability": "view",
      "type": "function"
    },
    {
      "inputs": [],
      "name": "finalizeRound",
      "outputs": [],
      "stateMutability": "nonpayable",
      "type": "function"
    },
    {
      "inputs": [],
      "name": "getBracketConfig",
      "outputs": [
        {
          "internalType": "uint256[6]",
          "name": "bracketPercents",
          "type": "uint256[6]"
        },
        {
          "internalType": "uint256",
          "name": "winnersPoolPercent",
          "type": "uint256"
        },
        {
          "internalType": "uint256",
          "name": "burnPercent",
          "type": "uint256"
        },
        {
          "internalType": "uint256",
          "name": "megaBankPercent",
          "type": "uint256"
        }
      ],
      "stateMutability": "view",
      "type": "function"
    },
    {
      "inputs": [
        {
          "internalType": "uint256",
          "name": "roundId",
          "type": "uint256"
        },
        {
          "internalType": "address",
          "name": "player",
          "type": "address"
        }
      ],
      "name": "getClaimableWinnings",
      "outputs": [
        {
          "internalType": "uint256",
          "name": "",
          "type": "uint256"
        }
      ],
      "stateMutability": "view",
      "type": "function"
    },
    {
      "inputs": [],
      "name": "getCurrentRoundInfo",
      "outputs": [
        {
          "internalType": "uint256",
          "name": "roundId",
          "type": "uint256"
        },
        {
          "internalType": "uint256",
          "name": "startTime",
          "type": "uint256"
        },
        {
          "internalType": "uint256",
          "name": "endTime",
          "type": "uint256"
        },
        {
          "internalType": "uint256",
          "name": "totalMorbius",
          "type": "uint256"
        },
        {
          "internalType": "uint256",
          "name": "totalTickets",
          "type": "uint256"
        },
        {
          "internalType": "uint256",
          "name": "uniquePlayers",
          "type": "uint256"
        },
        {
          "internalType": "uint256",
          "name": "timeRemaining",
          "type": "uint256"
        },
        {
          "internalType": "bool",
          "name": "isMegaMillionsRound",
          "type": "bool"
        },
        {
          "internalType": "enum SuperStakeLottery6of55.RoundState",
          "name": "state",
          "type": "uint8"
        }
      ],
      "stateMutability": "view",
      "type": "function"
    },
    {
      "inputs": [],
      "name": "getCurrentRoundTotals",
      "outputs": [
        {
          "internalType": "uint256",
          "name": "roundId",
          "type": "uint256"
        },
        {
          "internalType": "uint256",
          "name": "totalMorbius",
          "type": "uint256"
        },
        {
          "internalType": "uint256",
          "name": "totalTickets",
          "type": "uint256"
        },
        {
          "internalType": "uint256",
          "name": "uniquePlayers",
          "type": "uint256"
        },
        {
          "internalType": "uint256",
          "name": "rolloverBalance",
          "type": "uint256"
        },
        {
          "internalType": "uint256",
          "name": "megaMorbiusBalance",
          "type": "uint256"
        },
        {
          "internalType": "enum SuperStakeLottery6of55.RoundState",
          "name": "state",
          "type": "uint8"
        }
      ],
      "stateMutability": "view",
      "type": "function"
    },
    {
      "inputs": [],
      "name": "getMegaMillionsBank",
      "outputs": [
        {
          "internalType": "uint256",
          "name": "",
          "type": "uint256"
        }
      ],
      "stateMutability": "view",
      "type": "function"
    },
    {
      "inputs": [
        {
          "internalType": "uint256",
          "name": "roundId",
          "type": "uint256"
        }
      ],
      "name": "getPendingForRound",
      "outputs": [
        {
          "internalType": "uint256",
          "name": "morbiusAmount",
          "type": "uint256"
        },
        {
          "internalType": "uint256",
          "name": "ticketCount",
          "type": "uint256"
        }
      ],
      "stateMutability": "view",
      "type": "function"
    },
    {
      "inputs": [
        {
          "internalType": "address",
          "name": "player",
          "type": "address"
        }
      ],
      "name": "getPlayerLifetime",
      "outputs": [
        {
          "internalType": "uint256",
          "name": "ticketsBought",
          "type": "uint256"
        },
        {
          "internalType": "uint256",
          "name": "totalSpent",
          "type": "uint256"
        },
        {
          "internalType": "uint256",
          "name": "totalClaimed",
          "type": "uint256"
        },
        {
          "internalType": "uint256",
          "name": "totalClaimable",
          "type": "uint256"
        }
      ],
      "stateMutability": "view",
      "type": "function"
    },
    {
      "inputs": [
        {
          "internalType": "address",
          "name": "player",
          "type": "address"
        },
        {
          "internalType": "uint256",
          "name": "start",
          "type": "uint256"
        },
        {
          "internalType": "uint256",
          "name": "count",
          "type": "uint256"
        }
      ],
      "name": "getPlayerRoundHistory",
      "outputs": [
        {
          "internalType": "uint256[]",
          "name": "roundIds",
          "type": "uint256[]"
        },
        {
          "internalType": "uint256[]",
          "name": "ticketsBoughtPerRound",
          "type": "uint256[]"
        },
        {
          "internalType": "uint256[]",
          "name": "claimablePerRound",
          "type": "uint256[]"
        }
      ],
      "stateMutability": "view",
      "type": "function"
    },
    {
      "inputs": [
        {
          "internalType": "uint256",
          "name": "roundId",
          "type": "uint256"
        },
        {
          "internalType": "address",
          "name": "player",
          "type": "address"
        }
      ],
      "name": "getPlayerTickets",
      "outputs": [
        {
          "components": [
            {
              "internalType": "address",
              "name": "player",
              "type": "address"
            },
            {
              "internalType": "uint8[6]",
              "name": "numbers",
              "type": "uint8[6]"
            },
            {
              "internalType": "uint256",
              "name": "ticketId",
              "type": "uint256"
            },
            {
              "internalType": "bool",
              "name": "isFreeTicket",
              "type": "bool"
            },
            {
              "internalType": "bool",
              "name": "isHouseTicket",
              "type": "bool"
            }
          ],
          "internalType": "struct SuperStakeLottery6of55.Ticket[]",
          "name": "",
          "type": "tuple[]"
        }
      ],
      "stateMutability": "view",
      "type": "function"
    },
    {
      "inputs": [],
      "name": "getRolloverState",
      "outputs": [
        {
          "internalType": "uint256",
          "name": "rolloverBalance",
          "type": "uint256"
        },
        {
          "internalType": "uint256",
          "name": "megaMorbiusBalance",
          "type": "uint256"
        }
      ],
      "stateMutability": "view",
      "type": "function"
    },
    {
      "inputs": [
        {
          "internalType": "uint256",
          "name": "roundId",
          "type": "uint256"
        }
      ],
      "name": "getRound",
      "outputs": [
        {
          "components": [
            {
              "internalType": "uint256",
              "name": "roundId",
              "type": "uint256"
            },
            {
              "internalType": "uint256",
              "name": "startTime",
              "type": "uint256"
            },
            {
              "internalType": "uint256",
              "name": "endTime",
              "type": "uint256"
            },
            {
              "internalType": "uint256",
              "name": "closingBlock",
              "type": "uint256"
            },
            {
              "internalType": "uint8[6]",
              "name": "winningNumbers",
              "type": "uint8[6]"
            },
            {
              "internalType": "uint256",
              "name": "totalMorbiusCollected",
              "type": "uint256"
            },
            {
              "internalType": "uint256",
              "name": "totalTickets",
              "type": "uint256"
            },
            {
              "internalType": "uint256",
              "name": "uniquePlayers",
              "type": "uint256"
            },
            {
              "components": [
                {
                  "internalType": "uint256",
                  "name": "matchCount",
                  "type": "uint256"
                },
                {
                  "internalType": "uint256",
                  "name": "poolAmount",
                  "type": "uint256"
                },
                {
                  "internalType": "uint256",
                  "name": "winnerCount",
                  "type": "uint256"
                },
                {
                  "internalType": "uint256",
                  "name": "payoutPerWinner",
                  "type": "uint256"
                },
                {
                  "internalType": "uint256[]",
                  "name": "winningTicketIds",
                  "type": "uint256[]"
                }
              ],
              "internalType": "struct SuperStakeLottery6of55.BracketWinners[6]",
              "name": "brackets",
              "type": "tuple[6]"
            },
            {
              "internalType": "uint256",
              "name": "megaBankContribution",
              "type": "uint256"
            },
            {
              "internalType": "bool",
              "name": "isMegaMillionsRound",
              "type": "bool"
            },
            {
              "internalType": "enum SuperStakeLottery6of55.RoundState",
              "name": "state",
              "type": "uint8"
            }
          ],
          "internalType": "struct SuperStakeLottery6of55.Round",
          "name": "",
          "type": "tuple"
        }
      ],
      "stateMutability": "view",
      "type": "function"
    },
    {
      "inputs": [
        {
          "internalType": "uint256",
          "name": "roundId",
          "type": "uint256"
        }
      ],
      "name": "getRoundHistoryTotals",
      "outputs": [
        {
          "internalType": "uint256",
          "name": "totalMorbius",
          "type": "uint256"
        },
        {
          "internalType": "uint256",
          "name": "totalTickets",
          "type": "uint256"
        },
        {
          "internalType": "uint256",
          "name": "winnersPoolTotal",
          "type": "uint256"
        },
        {
          "internalType": "uint256",
          "name": "burnTotal",
          "type": "uint256"
        },
        {
          "internalType": "uint256",
          "name": "megaTotal",
          "type": "uint256"
        },
        {
          "internalType": "uint256",
          "name": "totalUnclaimed",
          "type": "uint256"
        }
      ],
      "stateMutability": "view",
      "type": "function"
    },
    {
      "inputs": [],
      "name": "getTotalMorbiusClaimableAll",
      "outputs": [
        {
          "internalType": "uint256",
          "name": "",
          "type": "uint256"
        }
      ],
      "stateMutability": "view",
      "type": "function"
    },
    {
      "inputs": [],
      "name": "getTotalMorbiusEverClaimed",
      "outputs": [
        {
          "internalType": "uint256",
          "name": "",
          "type": "uint256"
        }
      ],
      "stateMutability": "view",
      "type": "function"
    },
    {
      "inputs": [],
      "name": "getTotalMorbiusEverCollected",
      "outputs": [
        {
          "internalType": "uint256",
          "name": "",
          "type": "uint256"
        }
      ],
      "stateMutability": "view",
      "type": "function"
    },
    {
      "inputs": [],
      "name": "getTotalTicketsEver",
      "outputs": [
        {
          "internalType": "uint256",
          "name": "",
          "type": "uint256"
        }
      ],
      "stateMutability": "view",
      "type": "function"
    },
    {
      "inputs": [
        {
          "internalType": "uint256",
          "name": "roundId",
          "type": "uint256"
        }
      ],
      "name": "getUnclaimedForRound",
      "outputs": [
        {
          "internalType": "uint256[]",
          "name": "poolAmounts",
          "type": "uint256[]"
        },
        {
          "internalType": "uint256[]",
          "name": "winnerCounts",
          "type": "uint256[]"
        },
        {
          "internalType": "uint256[]",
          "name": "paidPerBracket",
          "type": "uint256[]"
        },
        {
          "internalType": "uint256[]",
          "name": "unclaimedPerBracket",
          "type": "uint256[]"
        },
        {
          "internalType": "uint256",
          "name": "totalUnclaimed",
          "type": "uint256"
        },
        {
          "internalType": "uint256",
          "name": "winnersPoolTotal",
          "type": "uint256"
        },
        {
          "internalType": "uint256",
          "name": "burnTotal",
          "type": "uint256"
        },
        {
          "internalType": "uint256",
          "name": "megaTotal",
          "type": "uint256"
        }
      ],
      "stateMutability": "view",
      "type": "function"
    },
    {
      "inputs": [
        {
          "internalType": "uint256",
          "name": "",
          "type": "uint256"
        },
        {
          "internalType": "address",
          "name": "",
          "type": "address"
        }
      ],
      "name": "hasClaimed",
      "outputs": [
        {
          "internalType": "bool",
          "name": "",
          "type": "bool"
        }
      ],
      "stateMutability": "view",
      "type": "function"
    },
    {
      "inputs": [
        {
          "internalType": "uint256",
          "name": "",
          "type": "uint256"
        },
        {
          "internalType": "address",
          "name": "",
          "type": "address"
        }
      ],
      "name": "hasEnteredRound",
      "outputs": [
        {
          "internalType": "bool",
          "name": "",
          "type": "bool"
        }
      ],
      "stateMutability": "view",
      "type": "function"
    },
    {
      "inputs": [],
      "name": "houseTicketEnabled",
      "outputs": [
        {
          "internalType": "bool",
          "name": "",
          "type": "bool"
        }
      ],
      "stateMutability": "view",
      "type": "function"
    },
    {
      "inputs": [],
      "name": "houseTicketLastRound",
      "outputs": [
        {
          "internalType": "uint256",
          "name": "",
          "type": "uint256"
        }
      ],
      "stateMutability": "view",
      "type": "function"
    },
    {
      "inputs": [
        {
          "internalType": "uint256",
          "name": "",
          "type": "uint256"
        }
      ],
      "name": "houseTicketNumbers",
      "outputs": [
        {
          "internalType": "uint8",
          "name": "",
          "type": "uint8"
        }
      ],
      "stateMutability": "view",
      "type": "function"
    },
    {
      "inputs": [],
      "name": "houseTicketUseFixed",
      "outputs": [
        {
          "internalType": "bool",
          "name": "",
          "type": "bool"
        }
      ],
      "stateMutability": "view",
      "type": "function"
    },
    {
      "inputs": [],
      "name": "megaMillionsInterval",
      "outputs": [
        {
          "internalType": "uint256",
          "name": "",
          "type": "uint256"
        }
      ],
      "stateMutability": "view",
      "type": "function"
    },
    {
      "inputs": [],
      "name": "megaMorbiusBank",
      "outputs": [
        {
          "internalType": "uint256",
          "name": "",
          "type": "uint256"
        }
      ],
      "stateMutability": "view",
      "type": "function"
    },
    {
      "inputs": [],
      "name": "nextTicketId",
      "outputs": [
        {
          "internalType": "uint256",
          "name": "",
          "type": "uint256"
        }
      ],
      "stateMutability": "view",
      "type": "function"
    },
    {
      "inputs": [],
      "name": "owner",
      "outputs": [
        {
          "internalType": "address",
          "name": "",
          "type": "address"
        }
      ],
      "stateMutability": "view",
      "type": "function"
    },
    {
      "inputs": [
        {
          "internalType": "uint256",
          "name": "",
          "type": "uint256"
        }
      ],
      "name": "pendingRoundMorbius",
      "outputs": [
        {
          "internalType": "uint256",
          "name": "",
          "type": "uint256"
        }
      ],
      "stateMutability": "view",
      "type": "function"
    },
    {
      "inputs": [
        {
          "internalType": "uint256",
          "name": "",
          "type": "uint256"
        }
      ],
      "name": "pendingRoundTickets",
      "outputs": [
        {
          "internalType": "uint256",
          "name": "",
          "type": "uint256"
        }
      ],
      "stateMutability": "view",
      "type": "function"
    },
    {
      "inputs": [
        {
          "internalType": "address",
          "name": "",
          "type": "address"
        }
      ],
      "name": "playerOutstandingClaimable",
      "outputs": [
        {
          "internalType": "uint256",
          "name": "",
          "type": "uint256"
        }
      ],
      "stateMutability": "view",
      "type": "function"
    },
    {
      "inputs": [
        {
          "internalType": "uint256",
          "name": "",
          "type": "uint256"
        },
        {
          "internalType": "address",
          "name": "",
          "type": "address"
        },
        {
          "internalType": "uint256",
          "name": "",
          "type": "uint256"
        }
      ],
      "name": "playerTicketIds",
      "outputs": [
        {
          "internalType": "uint256",
          "name": "",
          "type": "uint256"
        }
      ],
      "stateMutability": "view",
      "type": "function"
    },
    {
      "inputs": [
        {
          "internalType": "address",
          "name": "",
          "type": "address"
        }
      ],
      "name": "playerTotals",
      "outputs": [
        {
          "internalType": "uint256",
          "name": "ticketsBought",
          "type": "uint256"
        },
        {
          "internalType": "uint256",
          "name": "totalSpent",
          "type": "uint256"
        },
        {
          "internalType": "uint256",
          "name": "totalClaimed",
          "type": "uint256"
        }
      ],
      "stateMutability": "view",
      "type": "function"
    },
    {
      "inputs": [],
      "name": "pulseXRouter",
      "outputs": [
        {
          "internalType": "contract IPulseXRouter",
          "name": "",
          "type": "address"
        }
      ],
      "stateMutability": "view",
      "type": "function"
    },
    {
      "inputs": [],
      "name": "renounceOwnership",
      "outputs": [],
      "stateMutability": "nonpayable",
      "type": "function"
    },
    {
      "inputs": [],
      "name": "rolloverReserve",
      "outputs": [
        {
          "internalType": "uint256",
          "name": "",
          "type": "uint256"
        }
      ],
      "stateMutability": "view",
      "type": "function"
    },
    {
      "inputs": [],
      "name": "roundDuration",
      "outputs": [
        {
          "internalType": "uint256",
          "name": "",
          "type": "uint256"
        }
      ],
      "stateMutability": "view",
      "type": "function"
    },
    {
      "inputs": [
        {
          "internalType": "uint256",
          "name": "",
          "type": "uint256"
        },
        {
          "internalType": "uint256",
          "name": "",
          "type": "uint256"
        }
      ],
      "name": "roundPlayers",
      "outputs": [
        {
          "internalType": "address",
          "name": "",
          "type": "address"
        }
      ],
      "stateMutability": "view",
      "type": "function"
    },
    {
      "inputs": [
        {
          "internalType": "uint256",
          "name": "",
          "type": "uint256"
        },
        {
          "internalType": "uint256",
          "name": "",
          "type": "uint256"
        }
      ],
      "name": "roundTickets",
      "outputs": [
        {
          "internalType": "address",
          "name": "player",
          "type": "address"
        },
        {
          "internalType": "uint256",
          "name": "ticketId",
          "type": "uint256"
        },
        {
          "internalType": "bool",
          "name": "isFreeTicket",
          "type": "bool"
        },
        {
          "internalType": "bool",
          "name": "isHouseTicket",
          "type": "bool"
        }
      ],
      "stateMutability": "view",
      "type": "function"
    },
    {
      "inputs": [
        {
          "internalType": "uint256",
          "name": "",
          "type": "uint256"
        }
      ],
      "name": "rounds",
      "outputs": [
        {
          "internalType": "uint256",
          "name": "roundId",
          "type": "uint256"
        },
        {
          "internalType": "uint256",
          "name": "startTime",
          "type": "uint256"
        },
        {
          "internalType": "uint256",
          "name": "endTime",
          "type": "uint256"
        },
        {
          "internalType": "uint256",
          "name": "closingBlock",
          "type": "uint256"
        },
        {
          "internalType": "uint256",
          "name": "totalMorbiusCollected",
          "type": "uint256"
        },
        {
          "internalType": "uint256",
          "name": "totalTickets",
          "type": "uint256"
        },
        {
          "internalType": "uint256",
          "name": "uniquePlayers",
          "type": "uint256"
        },
        {
          "internalType": "uint256",
          "name": "megaBankContribution",
          "type": "uint256"
        },
        {
          "internalType": "bool",
          "name": "isMegaMillionsRound",
          "type": "bool"
        },
        {
          "internalType": "enum SuperStakeLottery6of55.RoundState",
          "name": "state",
          "type": "uint8"
        }
      ],
      "stateMutability": "view",
      "type": "function"
    },
    {
      "inputs": [],
      "name": "totalMorbiusClaimableOutstanding",
      "outputs": [
        {
          "internalType": "uint256",
          "name": "",
          "type": "uint256"
        }
      ],
      "stateMutability": "view",
      "type": "function"
    },
    {
      "inputs": [],
      "name": "totalMorbiusEverClaimed",
      "outputs": [
        {
          "internalType": "uint256",
          "name": "",
          "type": "uint256"
        }
      ],
      "stateMutability": "view",
      "type": "function"
    },
    {
      "inputs": [],
      "name": "totalMorbiusEverCollected",
      "outputs": [
        {
          "internalType": "uint256",
          "name": "",
          "type": "uint256"
        }
      ],
      "stateMutability": "view",
      "type": "function"
    },
    {
      "inputs": [],
      "name": "totalTicketsEver",
      "outputs": [
        {
          "internalType": "uint256",
          "name": "",
          "type": "uint256"
        }
      ],
      "stateMutability": "view",
      "type": "function"
    },
    {
      "inputs": [
        {
          "internalType": "address",
          "name": "newOwner",
          "type": "address"
        }
      ],
      "name": "transferOwnership",
      "outputs": [],
      "stateMutability": "nonpayable",
      "type": "function"
    },
    {
      "inputs": [
        {
          "internalType": "uint256",
          "name": "_newDelay",
          "type": "uint256"
        }
      ],
      "name": "updateBlockDelay",
      "outputs": [],
      "stateMutability": "nonpayable",
      "type": "function"
    },
    {
      "inputs": [
        {
          "internalType": "uint256",
          "name": "_newInterval",
          "type": "uint256"
        }
      ],
      "name": "updateMegaMillionsInterval",
      "outputs": [],
      "stateMutability": "nonpayable",
      "type": "function"
    },
    {
      "inputs": [
        {
          "internalType": "uint256",
          "name": "_newDuration",
          "type": "uint256"
        }
      ],
      "name": "updateRoundDuration",
      "outputs": [],
      "stateMutability": "nonpayable",
      "type": "function"
    }
  ],
  "bytecode": "0x60e080604052346107965760a081615783803803809161001f828561079b565b83398101031261079657610032816107be565b9061003f602082016107be565b61004b604083016107be565b608060608401519301519333156107805760008054336001600160a01b03198216811783556040519290916001600160a01b0316907f8be0079c531659141344cd1fd0a4f28419497f9722a3daafe3b4186f6b6457e09080a36001805560c081016001600160401b0381118282101761044257604052610190815261025860208201526103e860408201526105dc60608201526107d0608082015261119460a082015260005b600681106107675750506000600855600160ff19602454161760245560ff196026541660265560018060a01b0316918215610722576001600160a01b03169081156106dd576001600160a01b031691821561069857831561065357841561060e5760805260a05260c052600955600f5561016c600a546107d2565b80600a5542600b5560ff19600c5416600c55610199600e54826000526010602052604060002054906107e1565b6012556000600e55806000526011602052604060002054601355600052601060205260006040812055600a54600052601160205260006040812055600a54600f5480156105f85781069060ff602454166102af575b507f1e58c8162f15acbb59be3a32ba321d4967134f85f9f56020eb61a595258b66fc6060600a5492600b5490610226600954836107e1565b6040519283526020830152156040820152a2604051614e35908161094e82396080518181816106c601528181610aa8015281816116e101528181611d95015281816120ed015281816126e9015281816136460152613bde015260a051818181611562015281816116aa01526120b6015260c0518181816108f00152818161172401526121300152f35b60405160006102bf60c08361079b565b60c036833760ff60265416806105e1575b156104585750506102e76102e26107ee565b610893565b60145460405190919060a081016001600160401b0381118282101761044257604052308152602081019182526040810192835260608101926000845260808201926001845285600052601a602052604060002080549068010000000000000000821015610442576001820180825582101561042c5760005260206000209060021b019260018060a01b0390511660018060a01b03198454161783555160009060005b6006811061040857505090829160016003940155516002820155019151151560ff8019845416911617825551151561ff0082549160081b169061ff0019161790556103d56014546107d2565b601455601354600181018091116103f257601355602755386101ee565b634e487b7160e01b600052601160045260246000fd5b9091602060019160ff8551169060ff8560031b92831b921b19161793019101610389565b634e487b7160e01b600052603260045260246000fd5b634e487b7160e01b600052604160045260246000fd5b929190601454604051602081019142835284604083015244606083015260808201526080815261048960a08261079b565b51902060405161070061049c818361079b565b36823785905b600682106104be575050506104b991929350610893565b6102e7565b90929193948695879660015b15610533575b50879560405160208101918252866040820152886060820152606081526104f860808261079b565b51902096603788066001810180911161051f5760ff6105189116916107d2565b97966104ca565b634e487b7160e01b8a52601160045260248afd5b61054060ff82168561083e565b511515806105d7575b6104d05760ff91975097949197959293951690610566828561083e565b5161059257600161058483829461057d858b61084f565b528661083e565b5201909195949392956104a2565b60405162461bcd60e51b815260206004820152601760248201527f524e47206661696c656420686f757365207469636b65740000000000000000006044820152606490fd5b5060648810610549565b506105f26105ed6107ee565b610860565b156102d0565b634e487b7160e01b600052601260045260246000fd5b60405162461bcd60e51b815260206004820152601e60248201527f4d65676120696e74657276616c206d75737420626520706f73697469766500006044820152606490fd5b60405162461bcd60e51b815260206004820152601960248201527f4475726174696f6e206d75737420626520706f736974697665000000000000006044820152606490fd5b60405162461bcd60e51b815260206004820152601660248201527f496e76616c696420726f757465722061646472657373000000000000000000006044820152606490fd5b60405162461bcd60e51b815260206004820152601460248201527f496e76616c69642057504c5320616464726573730000000000000000000000006044820152606490fd5b60405162461bcd60e51b815260206004820152601760248201527f496e76616c6964204d6f726269757320616464726573730000000000000000006044820152606490fd5b600190602061ffff8451169301928160020155016100f1565b631e4fbdf760e01b600052600060045260246000fd5b600080fd5b601f909101601f19168101906001600160401b0382119082101761044257604052565b51906001600160a01b038216820361079657565b60001981146103f25760010190565b919082018092116103f257565b6040519060ff6025548181168452818160081c166020850152818160101c166040850152818160181c166060850152818160201c16608085015260281c1660a083015261083c60c08361079b565b565b90603881101561042c5760051b0190565b90600681101561042c5760051b0190565b60005b60068110610872575050600190565b60ff61087e828461084f565b511661088c57600101610863565b5050600090565b60c06040516108a2828261079b565b369037600560005b8181106108b657505090565b90919260005b8284038481116103f2578110156109415760ff6108d9828761084f565b511690600181018082116103f25760019260ff6108f6838a61084f565b511610610905575b50016108bc565b600061092f60ff610916848b61084f565b51169260ff610925868c61084f565b511692508961084f565b5261093a828861084f565b52386108fe565b509291906001016108aa56fe6080604052600436101561001257600080fd5b60003560e01c80630aadbd1614612ac757806315f2306314612a5b5780631a95f15f14612a375780631b48959f146107cb5780631e8203251461296a578063235189681461294d5780632361a26d146125065780632a9924c61461243a5780632f93e0c8146106925780633119ca42146124e1578063380dd901146124c357806338436230146124a557806343d284a41461243f5780634464e5cf1461243a5780634992c958146124005780634af6c47a146123dd5780634fdeff1014611fca578063549de0ce14611fac5780635600526614611a585780636031a52f14611f8e578063625a7ee51461064a57806364ce342b14611f70578063671eea0114611f26578063677bd9ff14611c9d5780636ae4c9c114610b785780636ff55eaf14611c42578063715018a614611be95780637169c71114611b7d57806373f9afd514611b3f578063747dff4214611a9c5780637587f06714611a975780637befee1714611a765780637f81490e14611a5857806380e8bfab1461159157806381ebdc0f1461154c5780638458a00c1461153057806385693860146114e3578063873f6f9e146114965780638c65c81f146113fa5780638d2cdc34146111c05780638da5cb5b146111975780638f1327c014610e9a57806393a322b614610cce57806396f5acbe14610ca25780639bfd649414610bb45780639cbe5efd14610b96578063a28afcfa14610b78578063a2e0ecda146109b0578063aaed56f914610984578063adf599561461091f578063aec9b6f4146108da578063b333149e1461062c578063b3b08fa314610871578063b4bb477d1461080c578063b9981bb9146107e9578063bc5fff2e146107cb578063c07ce8921461072f578063c41d287414610712578063c7d7f3f1146106f5578063d040f7ca146106b0578063d04b637d14610692578063d2f9892b1461064a578063d418bae21461062c578063d44dad291461060e578063d98f6088146105f0578063dcbad98f146105d2578063dd8ab8f9146105b6578063ddfaf5c51461058e578063e9337b4b146104ee578063e941abfa146104b5578063ed9c7d8d14610498578063f2fde38b1461040f578063f563724d146103e3578063f7cb789a146103c5578063fab14e8e146103a9578063fccc28131461038c5763fea9b5721461036b57600080fd5b3461038757600036600319011261038757602060405160378152f35b600080fd5b3461038757600036600319011261038757602060405161dead8152f35b3461038757600036600319011261038757602060405160068152f35b34610387576000366003190112610387576020600954604051908152f35b346103875760203660031901126103875760043560005260116020526020604060002054604051908152f35b3461038757602036600319011261038757610428612b84565b6104306132af565b6001600160a01b0316801561048257600080546001600160a01b03198116831782556001600160a01b0316907f8be0079c531659141344cd1fd0a4f28419497f9722a3daafe3b4186f6b6457e09080a3005b631e4fbdf760e01b600052600060045260246000fd5b34610387576000366003190112610387576020604051612b5c8152f35b34610387576020366003190112610387576001600160a01b036104d6612b84565b16600052602080526020604060002054604051908152f35b346103875760203660031901126103875760043561050a6132af565b80156105495760407ff778ba9bcbe1fdf3ea184e76a442294f5f7e51b32d06ad176168d3b5ac8df55b91600954908060095582519182526020820152a1005b60405162461bcd60e51b815260206004820152601960248201527f4475726174696f6e206d75737420626520706f736974697665000000000000006044820152606490fd5b3461038757600036600319011261038757602060ff600c54166105b46040518092612b31565bf35b3461038757600036600319011261038757602060405160018152f35b34610387576000366003190112610387576020601254604051908152f35b34610387576000366003190112610387576020600854604051908152f35b34610387576000366003190112610387576020602754604051908152f35b34610387576000366003190112610387576020601754604051908152f35b3461038757604036600319011261038757610663612b6e565b600435600052601e60205260406000209060018060a01b03166000526020526020604060002054604051908152f35b34610387576000366003190112610387576020601654604051908152f35b34610387576000366003190112610387576040517f00000000000000000000000000000000000000000000000000000000000000006001600160a01b03168152602090f35b34610387576000366003190112610387576020604051611b588152f35b346103875760003660031901126103875760206040516127108152f35b346103875760003660031901126103875760c0806040516107508282612ce4565b36903760405160026000825b600682106107b5575050506107718282612ce4565b604051906000825b6006821061079f5761012084611770878201526107d060e08201526107d0610100820152f35b6020806001928551815201930191019091610779565b600160208192855481520193019101909161075c565b34610387576000366003190112610387576020600d54604051908152f35b3461038757600036600319011261038757602060ff602454166040519015158152f35b3461038757606036600319011261038757610825612b6e565b60443590600435600052601b60205260406000209060018060a01b0316600052602052604060002080548210156103875760209161086291612bb0565b90549060031b1c604051908152f35b34610387576060366003190112610387576108ba6108c86108d66108a3610896612b84565b6044359060243590613161565b919390604051958695606087526060870190612c0f565b908582036020870152612c0f565b908382036040850152612c0f565b0390f35b34610387576000366003190112610387576040517f00000000000000000000000000000000000000000000000000000000000000006001600160a01b03168152602090f35b34610387576020366003190112610387576001600160a01b03610940612b84565b166000908152602160209081526040808320805460018201546002909201548480529483902054835191825293810191909152908101929092526060820152608090f35b346103875760203660031901126103875760043560068110156103875760209060020154604051908152f35b34610387576020366003190112610387576004356001600160401b038111610387576109e0903690600401612b3e565b6109e86132d8565b6109f06132fa565b610b63575b60ff600c54166003811015610b4d57610a0e9015612de3565b801591610a1b8315612e20565b610a286064831115612e6c565b683635c9adc5dea00000820292828404683635c9adc5dea00000141715610b3757610a5e9083610aa0575b82600a549133614706565b600a54916040519182526000602083015260408201527f89c44c51a219608fe582e36358eeb570c24ec81f0e3d91398702ecd5a00adfee60603392a360018055005b610acc8430337f0000000000000000000000000000000000000000000000000000000000000000614551565b610ad884601254612d4e565b601255610ae784601654612d4e565b601655610af683601554612d4e565b6015553360005260216020526040600020610b12848254612d4e565b90553360005260216020526001604060002001610b30858254612d4e565b9055610a53565b634e487b7160e01b600052601160045260246000fd5b634e487b7160e01b600052602160045260246000fd5b610b6b61330f565b610b73614238565b6109f5565b34610387576000366003190112610387576020601554604051908152f35b34610387576000366003190112610387576020600a54604051908152f35b34610387576020366003190112610387576000600435600052601960205260406000209060058201549060068301546117708302831584820461177014811715610b37576107d08502908582046107d0141715610b3757612710900491600860009601955b60068110610c4e575060c0955090612710916040519586526020860152046040840152806060840152608083015260a0820152f35b610c58818861314d565b506001610c6e6003830154600284015490612dd0565b910154818111610c83575b5050600101610c19565b95610c94610c9a9260019498612ff3565b90612d4e565b949088610c79565b346103875760203660031901126103875760043560005260106020526020604060002054604051908152f35b346103875760203660031901126103875760006004356000526019602052604060002060e09160405191610d028484612ce4565b60068352601f198401938436602086013760405194610d218287612ce4565b6006865280366020880137604051610d398382612ce4565b600681528136602083013760405191610d528484612ce4565b600683523660208401376005840154966117708802978015818a0461177014811715610b37576107d082029182046107d0141715610b3757612710900494600090600801815b60068310610e0f5750505061271092610de8610100989993610dda610df694610dcc6040519d8d8f9e8f9081520190612c0f565b8c810360208e015290612c0f565b908a820360408c0152612c0f565b9088820360608a0152612c0f565b9460808701520460a08501528160c08501528301520390f35b909197610e886001918a610e6381610e5a8f60038391610e2f838d61314d565b5090610e408b830154988992612d78565b528c610e526002830154948592612d78565b520154612dd0565b9182918b612d78565b5280821115610e9157610e7591612ff3565b905b81610e828d8b612d78565b52612d4e565b98019190610d98565b50508390610e77565b3461038757602036600319011261038757604051610eb781612cad565b6000815260006020820152600060408201526000606082015260c090604051610ee08382612ce4565b823682376080820152600060a0820152600082820152600060e0820152604051610f0a8382612ce4565b60005b83811061115f575081610160916101006000940152826101208201528261014082015201526004356000526019602052604060002060405190610f4f82612cad565b805482526001810154926020830193845260028201549160408401928352600381015460608501908152610f8560048301613100565b926080860193845260058301549060a08701918252600684015490870190815260078401549160e0880192835260405193610fbf85612cc9565b600886016000865b6006821061110d57505050610100890194855260276026870154966101208b0197885201549660ff6101408b019881811615158a5260081c16916101608b01996003841015610b4d5798936110548c97938c97938f9a9689526040519c8d9b60208d528c602061024082019d519101525160408d01525160608c01525160808b01525160a08a0190612be4565b5161016088015251610180870152516101a0860152516102206101c08601529461030085019360005b600681106110aa5750506108d693949550516101e086015251151561020085015251610220840190612b31565b9193955091936020806110f960019361023f198c820301875260a060808c5180518452858101518685015260408101516040850152606081015160608501520151918160808201520190612c0f565b98019301910190879593919694929661107d565b6005602060019260405161112081612c7c565b865481528487015483820152600287015460408201526003870154606082015261114c60048801613056565b6080820152815201930191019091610fc7565b60209060405161116e81612c7c565b600081526000838201526000604082015260006060820152606060808201528184015201610f0d565b34610387576000366003190112610387576000546040516001600160a01b039091168152602090f35b34610387576040366003190112610387576004356111dc612b6e565b81600052601b602052604060002060018060a01b0382166000526020526112066040600020613056565b9182519061121382612d05565b916112216040519384612ce4565b808352611230601f1991612d05565b0160005b8181106113aa5750506000908152601a6020526040812080546001600160a01b0390941694825b858110806113a0575b1561131957866112748285612bc8565b50546001600160a01b031614611293575b61128e906130a3565b61125b565b9261131161128e916112a58686612bc8565b5060ff6003604051926112b784612c7c565b80546001600160a01b031684526112d060018201613100565b60208501526002810154604085015201548181161515606084015260081c16151560808201526113008289612d78565b5261130b8188612d78565b506130a3565b939050611285565b8460405180916020820160208352815180915260206040840192019060005b818110611346575050500390f35b91935091602061014060019260808751858060a01b0381511683526113718582015186850190612be4565b604081015160e08401526060810151151561010084015201511515610120820152019401910191849392611338565b5081518410611264565b6020906040969596516113bc81612c7c565b6000815260405160c06113cf8183612ce4565b3682378382015260006040820152600060608201526000608082015282828701015201949394611234565b3461038757602036600319011261038757600435600052601960205261014060406000206105b48154916001810154906002810154600382015460058301546006840154916007850154936027602687015496015496604051998a5260208a015260408901526060880152608087015260a086015260c085015260e084015260ff8116151561010084015260ff61012084019160081c16612b31565b34610387576040366003190112610387576114af612b6e565b600435600052601f60205260406000209060018060a01b0316600052602052602060ff604060002054166040519015158152f35b34610387576040366003190112610387576114fc612b6e565b600435600052601c60205260406000209060018060a01b0316600052602052602060ff604060002054166040519015158152f35b34610387576000366003190112610387576020604051600a8152f35b34610387576000366003190112610387576040517f00000000000000000000000000000000000000000000000000000000000000006001600160a01b03168152602090f35b34610387576040366003190112610387576004356001600160401b038111610387576115c1903690600401612b3e565b602435916115cd6132d8565b6115d56132fa565b611a43575b60ff600c54166003811015610b4d576115f39015612de3565b8115926116008415612e20565b61160d6064841115612e6c565b6127108111611a0557683635c9adc5dea00000830293838504683635c9adc5dea00000141715610b37578315908115611652575b5050610a5e9082600a549133614706565b6a092e8434aaaf80e1800000840291858304612b5c141715610b375761271001908161271011610b3757612710918261168b9204612dd0565b04906040519161169c606084612ce4565b6002835260403660208501377f0000000000000000000000000000000000000000000000000000000000000000906001600160a01b038216806116de86612d5b565b527f00000000000000000000000000000000000000000000000000000000000000006001600160a01b0316908161171487612d68565b526040516307c0329d60e21b81527f00000000000000000000000000000000000000000000000000000000000000006001600160a01b03169360009082908190611763908b9060048401612f87565b0381875afa90811561195c5761179191611785916000916119ea575b50612d5b565b51809530903390614551565b60405163095ea7b360e01b81526001600160a01b03841660048201526024810185905290602090829060449082906000905af1801561195c576119bd575b506040516370a0823160e01b815230600482015294602086602481855afa95861561195c57600096611989575b5061012c4201804211610b375761183093600092836040518097819582946338ed173960e01b845230908c60048601612fb9565b03925af190811561195c57602492602092611968575b506040516370a0823160e01b815230600482015292839182905afa90811561195c57600091611928575b50610a5e9361187e91612ff3565b61188a86821015613000565b61189681601254612d4e565b6012556118a581601654612d4e565b6016556118b485601554612d4e565b60155533600052602160205260406000206118d0868254612d4e565b905533600052602160205260016040600020016118ee828254612d4e565b905560405191825260208201527fe6c59f5a592e6b8bc9f9531fb60a628be44498cfef9790c8ab07f6bb5c2d475860403392a29084611641565b90506020813d602011611954575b8161194360209383612ce4565b810103126103875751610a5e611870565b3d9150611936565b6040513d6000823e3d90fd5b611984903d806000833e61197c8183612ce4565b810190612ed1565b611846565b9095506020813d6020116119b5575b816119a560209383612ce4565b81010312610387575194886117fc565b3d9150611998565b6119de9060203d6020116119e3575b6119d68183612ce4565b810190612fa1565b6117cf565b503d6119cc565b6119ff91503d806000833e61197c8183612ce4565b8b61177f565b60405162461bcd60e51b815260206004820152601660248201527545787472612062756666657220746f6f206c6172676560501b6044820152606490fd5b611a4b61330f565b611a53614238565b6115da565b34610387576000366003190112610387576020601854604051908152f35b3461038757602036600319011261038757611a8f6132af565b600435600855005b612ac7565b3461038757600036600319011261038757610120600a546105b4600b54611ac560095482612d4e565b6012546013546000868152601d602052604090205490428411611b2f576000925b611af2600f548961304c565b159460ff600c541696604051998a5260208a015260408901526060880152608087015260a086015260c085015260e0840152610100830190612b31565b611b394285612ff3565b92611ae6565b346103875760203660031901126103875760406004358060005260106020528160002054906000526011602052816000205482519182526020820152f35b3461038757611b8b36612b9a565b90600052601a6020526040600020805482101561038757608091611bae91612bc8565b5060ff60018060a01b0382541691600360028201549101549060405193845260208401528181161515604084015260081c1615156060820152f35b3461038757600036600319011261038757611c026132af565b600080546001600160a01b0319811682556001600160a01b03167f8be0079c531659141344cd1fd0a4f28419497f9722a3daafe3b4186f6b6457e08280a3005b34610387576020366003190112610387576001600160a01b03611c63612b84565b166000526021602052604060002080546108d660026001840154930154604051938493846040919493926060820195825260208201520152565b3461038757602036600319011261038757600435611cb96132d8565b80600052601960205260ff60276040600020015460081c166003811015610b4d57600203611eeb576000818152601f6020908152604080832033845290915290205460ff16611eb4576000818152601e6020908152604080832033845290915290205415611e7c576000818152601e602090815260408083203380855290835281842054858552601f8452828520828652845293829020805460ff19166001179055905163a9059cbb60e01b92810192909252602482015260448101829052611db990611d9381606481015b03601f198101835282612ce4565b7f0000000000000000000000000000000000000000000000000000000000000000614cb7565b60185481808210611e7357611dcd91612ff3565b601855611ddc81601754612d4e565b6017553360005260216020526002604060002001611dfb828254612d4e565b90553360005260208052806040600020541015600014611e6c573360005260208052611e2c81604060002054612ff3565b33600052602080526040600020556040519081527f7472e24de4628e34b41a2aa1688ed4b46a9145b2de1cf93d74902473ccc1740d60203392a360018055005b6000611e2c565b50506000611dcd565b60405162461bcd60e51b815260206004820152601060248201526f4e6f7468696e6720746f20636c61696d60801b6044820152606490fd5b60405162461bcd60e51b815260206004820152600f60248201526e105b1c9958591e4818db185a5b5959608a1b6044820152606490fd5b60405162461bcd60e51b8152602060048201526013602482015272149bdd5b99081b9bdd08199a5b985b1a5e9959606a1b6044820152606490fd5b3461038757611f3436612b9a565b90600052601d6020526040600020805482101561038757602091611f5791612bb0565b905460405160039290921b1c6001600160a01b03168152f35b34610387576000366003190112610387576020600e54604051908152f35b34610387576000366003190112610387576020601454604051908152f35b34610387576000366003190112610387576020601354604051908152f35b34610387576020366003190112610387576004356001600160401b03811161038757611ffa903690600401612b3e565b6120026132d8565b61200a6132fa565b6123c8575b60ff600c54166003811015610b4d576120289015612de3565b8015916120358315612e20565b6120426064831115612e6c565b683635c9adc5dea00000820292828404683635c9adc5dea00000141715610b3757821590811561207d575b610a5e915082600a549133614706565b6a092e8434aaaf80e1800000830291848304612b5c141715610b3757604051916120a8606084612ce4565b6002835260403660208501377f0000000000000000000000000000000000000000000000000000000000000000906001600160a01b038216806120ea86612d5b565b527f00000000000000000000000000000000000000000000000000000000000000006001600160a01b0316908161212087612d68565b526040516307c0329d60e21b81527f00000000000000000000000000000000000000000000000000000000000000006001600160a01b03169360009082908190612174908b90612710900460048401612f87565b0381875afa90811561195c5761219591611785916000916119ea5750612d5b565b60405163095ea7b360e01b81526001600160a01b03841660048201526024810185905290602090829060449082906000905af1801561195c576123ab575b506040516370a0823160e01b815230600482015294602086602481855afa95861561195c57600096612377575b5061012c4201804211610b375761223493600092836040518097819582946338ed173960e01b845230908c60048601612fb9565b03925af190811561195c5760249260209261235e575b506040516370a0823160e01b815230600482015292839182905afa90811561195c5760009161232a575b50610a5e9361228291612ff3565b61228e86821015613000565b61229a81601254612d4e565b6012556122a981601654612d4e565b6016556122b885601554612d4e565b60155533600052602160205260406000206122d4868254612d4e565b905533600052602160205260016040600020016122f2828254612d4e565b905560405191825260208201527fe6c59f5a592e6b8bc9f9531fb60a628be44498cfef9790c8ab07f6bb5c2d475860403392a261206d565b90506020813d602011612356575b8161234560209383612ce4565b810103126103875751610a5e612274565b3d9150612338565b612372903d806000833e61197c8183612ce4565b61224a565b9095506020813d6020116123a3575b8161239360209383612ce4565b8101031261038757519488612200565b3d9150612386565b6123c39060203d6020116119e3576119d68183612ce4565b6121d3565b6123d061330f565b6123d8614238565b61200f565b3461038757600036600319011261038757602060ff602654166040519015158152f35b346103875760203660031901126103875760043560068110156103875760209060ff8160051c6025015460f86040519360031b161c168152f35b612b14565b346103875760003660031901126103875760e0600a546105b460125460135483600052601d602052604060002054600e5490600d549260ff600c541694604051978852602088015260408701526060860152608085015260a084015260c0830190612b31565b34610387576000366003190112610387576020600f54604051908152f35b34610387576000366003190112610387576020600b54604051908152f35b34610387576000366003190112610387576040600e54600d5482519182526020820152f35b34610387576040366003190112610387576004356001600160401b03811161038757612536903690600401612ae4565b6024356001600160401b03811161038757612555903690600401612ae4565b9261255e6132d8565b6125666132fa565b612938575b612576831515612c43565b838303612901576000928361258a82612d1c565b9361259483612d1c565b968291600a54905b8584106127a257505050506125b2811515612c43565b6101f4811161276a57846126e1575b5060005b81811061262857847fbe50c24f28f34ee5642d05a6451b5e44fa60ec0c67182921dae227c02a2f2c6c856126168961260860405193606085526060850190612c0f565b908382036020850152612c0f565b9260408201528033930390a260018055005b6126328185612d78565b519061263e8188612d78565b51916126568161264f848789612d8c565b9033614706565b600a54810361269b5750683635c9adc5dea00000820291808304683635c9adc5dea000001490151715610b3757612691600192601254612d4e565b6012555b016125c5565b91683635c9adc5dea00000810290808204683635c9adc5dea000001490151715610b375760019260005260106020526126da6040600020918254612d4e565b9055612695565b61270d8530337f0000000000000000000000000000000000000000000000000000000000000000614551565b61271985601654612d4e565b60165561272881601554612d4e565b6015553360005260216020526127446040600020918254612d4e565b90553360005260216020526001604060002001612762858254612d4e565b9055856125c1565b60405162461bcd60e51b815260206004820152601060248201526f546f6f206d616e79207469636b65747360801b6044820152606490fd5b9091929793838910156128eb578860051b820135600a81116128b3576127c89084612d4e565b6127d28a8a612d78565b526127de898789612d8c565b8092915015612879576064821161283457816127ff9181610e828d8f612d78565b94683635c9adc5dea000008202918204683635c9adc5dea0000003610b375760019161282a91612d4e565b980192919061259c565b60405162461bcd60e51b815260206004820152601960248201527f4d617820313030207469636b657473207065722067726f7570000000000000006044820152606490fd5b60405162461bcd60e51b81526020600482015260126024820152710456d707479207469636b65742067726f75760741b6044820152606490fd5b60405162461bcd60e51b815260206004820152601060248201526f4f666673657420746f6f206c6172676560801b6044820152606490fd5b634e487b7160e01b600052603260045260246000fd5b60405162461bcd60e51b815260206004820152600f60248201526e098cadccee8d040dad2e6dac2e8c6d608b1b6044820152606490fd5b61294061330f565b612948614238565b61256b565b346103875760003660031901126103875760206040516117708152f35b34610387576000366003190112610387576129836132d8565b61298b6132fa565b156129fe5760ff600c54166003811015610b4d576129b9576129ab61330f565b6129b3614238565b60018055005b60405162461bcd60e51b815260206004820152601760248201527f526f756e6420616c72656164792066696e616c697a65640000000000000000006044820152606490fd5b60405162461bcd60e51b8152602060048201526011602482015270149bdd5b99081b9bdd08195e1c1a5c9959607a1b6044820152606490fd5b34610387576000366003190112610387576020604051683635c9adc5dea000008152f35b3461038757602036600319011261038757600435612a776132af565b8015612a8257600f55005b60405162461bcd60e51b815260206004820152601960248201527f496e74657276616c206d75737420626520706f736974697665000000000000006044820152606490fd5b346103875760003660031901126103875760206040516107d08152f35b9181601f84011215610387578235916001600160401b038311610387576020808501948460051b01011161038757565b346103875760003660031901126103875760206040516105dc8152f35b906003821015610b4d5752565b9181601f84011215610387578235916001600160401b0383116103875760208085019460c0850201011161038757565b602435906001600160a01b038216820361038757565b600435906001600160a01b038216820361038757565b6040906003190112610387576004359060243590565b80548210156128eb5760005260206000200190600090565b80548210156128eb5760005260206000209060021b0190600090565b906000905b60068210612bf657505050565b60208060019260ff865116815201930191019091612be9565b906020808351928381520192019060005b818110612c2d5750505090565b8251845260209384019390920191600101612c20565b15612c4a57565b60405162461bcd60e51b815260206004820152600a6024820152694e6f207469636b65747360b01b6044820152606490fd5b60a081019081106001600160401b03821117612c9757604052565b634e487b7160e01b600052604160045260246000fd5b61018081019081106001600160401b03821117612c9757604052565b60c081019081106001600160401b03821117612c9757604052565b90601f801991011681019081106001600160401b03821117612c9757604052565b6001600160401b038111612c975760051b60200190565b90612d2682612d05565b612d336040519182612ce4565b8281528092612d44601f1991612d05565b0190602036910137565b91908201809211610b3757565b8051156128eb5760200190565b8051600110156128eb5760400190565b80518210156128eb5760209160051b010190565b91908110156128eb5760051b81013590601e19813603018212156103875701908135916001600160401b0383116103875760200160c0830236038113610387579190565b81810292918115918404141715610b3757565b15612dea57565b60405162461bcd60e51b815260206004820152600e60248201526d2937bab732103737ba1037b832b760911b6044820152606490fd5b15612e2757565b60405162461bcd60e51b815260206004820152601a60248201527f4d75737420627579206174206c656173742031207469636b65740000000000006044820152606490fd5b15612e7357565b60405162461bcd60e51b815260206004820152601660248201527509ac2f04062606040e8d2c6d6cae8e640e0cae440e8f60531b6044820152606490fd5b8115612ebb570490565b634e487b7160e01b600052601260045260246000fd5b602081830312610387578051906001600160401b03821161038757019080601f83011215610387578151612f0481612d05565b92612f126040519485612ce4565b81845260208085019260051b82010192831161038757602001905b828210612f3a5750505090565b8151815260209182019101612f2d565b906020808351928381520192019060005b818110612f685750505090565b82516001600160a01b0316845260209384019390920191600101612f5b565b604090612f9e939281528160208201520190612f4a565b90565b90816020910312610387575180151581036103875790565b90608092612fdf919695949683526000602084015260a0604084015260a0830190612f4a565b6001600160a01b0390951660608201520152565b91908203918211610b3757565b1561300757565b60405162461bcd60e51b815260206004820152601f60248201527f496e73756666696369656e74204d6f72626975732061667465722073776170006044820152606490fd5b8115612ebb570690565b906040519182815491828252602082019060005260206000209260005b81811061308a57505061308892500383612ce4565b565b8454835260019485019487945060209093019201613073565b6000198114610b375760010190565b6040519060ff6025548181168452818160081c166020850152818160101c166040850152818160181c166060850152818160201c16608085015260281c1660a083015261308860c083612ce4565b9060ff60405192548181168452818160081c166020850152818160101c166040850152818160181c166060850152818160201c16608085015260281c1660a083015261308860c083612ce4565b9060068110156128eb576005020190600090565b6001600160a01b031660008181526022602052604090205490928183101561325e576131a191613192849283612d4e565b90808211613256575b50612ff3565b926131ab84612d1c565b936131b581612d1c565b936131bf82612d1c565b9360005b8381106131d05750505050565b6001908360005260226020526131f460406000206131ee8386612d4e565b90612bb0565b90549060031b1c80613206838c612d78565b5280600052601b602052604080600020600090878252602052205461322b838b612d78565b52600052601e602052604080600020600090868252602052205461324f8289612d78565b52016131c3565b90503861319b565b505050506020604051916132728284612ce4565b600083526000368137604051926132898385612ce4565b600084526000368137604051926132a08185612ce4565b60008452506000368137929190565b6000546001600160a01b031633036132c357565b63118cdaa760e01b6000523360045260246000fd5b6002600154146132e9576002600155565b633ee5aeb560e01b60005260046000fd5b613309600b5460095490612d4e565b42101590565b60ff600c54166003811015610b4d576133289015612de3565b600a54600160ff19600c541617600c55601354817f5560ea6ec9581887f514857cbc28b3578c01c85ed8e7821988aed8b41764a7896133826012546040519182918643846040919493926060820195825260208201520152565b0390a215613ee75760c08060405161339a8282612ce4565b369037600854804311600014613ee0576133b49043612ff3565b60125460135460405191602083019340845243406040840152856060840152608083015260a082015242838201528281526133f060e082612ce4565b519020604051906134018383612ce4565b82368337604051906107006134168184612ce4565b3683376000915b60068310613dd35750505061343190614d12565b9082600052601a602052604060002060e090604051906134518383612ce4565b82368337604051906134638483612ce4565b60005b848110613dc55750805460015b6006811115613d9e5750906000905b828210613c07575050506001905b600682111561382057505050600084815260196020526040812060040184825b600681106137f257505055601254600085815260196020818152604080842060058101959095556013546006860155601d82529092205491526007820155848155600b54600182015542600282015543600390910155600f54613513908561304c565b156137e4575b83600052601a602052604060002060005b600681106136705750506012546107d08102908082046107d01490151715610b3757612710900480613640575b506012546107d08102908082046107d01490151715610b3757612710900461358181600d54612d4e565b600d558460005260196020526026604060002001556135a8600260ff19600c541617600c55565b836000526019602052602760406000200161020061ff0019825416179055601254906013549185600052601d6020526040600020549360405195866000905b60068210613627575050508501528301526101008201527fa9cc37513915a78ee814de52f7f030c2a34453b7adfeeefb714b19d96a9b027f9061012090a2565b60208060019260ff8651168152019301910190916135e7565b61366a907f0000000000000000000000000000000000000000000000000000000000000000614a30565b38613557565b85600052601960205261368a81600860406000200161314d565b50600281015461369e575b5060010161352a565b9396949591929060009560048601925b83548810156137d2576136c18885612bb0565b90549060031b1c9860005b87548110156137c2578a60026136e2838b612bc8565b500154146136f2576001016136cc565b6001929991949a5060ff600361370b83969e968b612bc8565b50015460081c161561373957506137286003890154600d54612d4e565b600d555b01969890989791976136ae565b61379a60038a01805489600052601e60205261378060408c61375f878360002092612bc8565b505460a08a901b8a9003166000908152602091909152208054909290612d4e565b905561378f8154601854612d4e565b601855549189612bc8565b50838060a01b03905416600052602080526137bb6040600020918254612d4e565b905561372c565b509298509660019099919961372c565b94939796509794506001915090613695565b6137ed84614b53565b613519565b909260206138176001928460ff885116919060ff809160031b9316831b921b19161790565b940191016134b0565b929460129792979691949654926000198601918683119485610b375760068410156128eb576138576127109160018a015490612dd0565b0498613863888c614b33565b51156139d15761387c613876898d614b33565b51612d1c565b9860006138898a8e614b33565b518110156138ca57906138898a60018f979695948e6138be828f816138b1886138b793614b33565b51612d78565b5192612d78565b52019293949596614b33565b50969499939097929a958092996138e18589614b33565b51906138f76138f0878b614b33565b5188612eb1565b6040519261390484612c7c565b8784528860208501526040840152606083015260808201528b6000526019602052600860406000200191610b375761393f836139459361314d565b90614b44565b61394f8387614b33565b51938a6000526019602052600860406000200192610b37576139cb946139c3600361399c7fdb21cff4ba65516b5b7e172f3a62c1edcf1d5097aa66571946bf605a1cd870c7958f9761314d565b50015460405193849388859094939260609260808301968352602083015260408201520152565b0390a26130a3565b90613490565b96919994509694929791611b588302831590848104611b5814821715610b375761271090046105dc8502918583046105dc141715610b37576127108b92049082613a2483613a1f848a612ff3565b612ff3565b92613a3183600e54612d4e565b600e5580151580613bd8575b827f400f6e85f92319bae9eb34d274967789e5febf76211951392da486e917c4cdcb60a08715159687613bc4575b604051908c8252602082015260606040820152601460608201527313995e1d149bdd5b9915da5b9b995c9cd41bdbdb60621b6080820152a2613b71575b5050613b17575b50506040519060196020613ac38185612ce4565b60008452600036813760405193613ad985612c7c565b858552600082860152600060408601526000606086015260808501528b60005252613b1260086040600020019261393f8360009561314d565b613945565b60a07f400f6e85f92319bae9eb34d274967789e5febf76211951392da486e917c4cdcb9160405190868252602082015260606040820152600b60608201526a4d6567614d6f726269757360a81b6080820152a28838613aaf565b60a07f400f6e85f92319bae9eb34d274967789e5febf76211951392da486e917c4cdcb91604051908982526020820152606060408201526004606082015263213ab93760e11b6080820152a28238613aa8565b613bd089600d54612d4e565b600d55613a6b565b613c02827f0000000000000000000000000000000000000000000000000000000000000000614a30565b613a3d565b9497969590929391613c256001613c1e8689612bc8565b5001613100565b9960009889938a9b5b60068d1080613d94575b15613d1e5790919293948d908b8e5b82600681109283613cf7575b50505015613c7857908b613c6c8f9897969594936130a3565b91929394959697613c47565b99959c908b90828c600681109384613ccf575b50505050613caa575b613c9d906130a3565b9b93929190989498613c2e565b989a60ff1660ff8114610b3757613cc76001613c9d92019c6130a3565b999050613c94565b60ff939450613ce3613ceb93928592614b22565b511693614b22565b5116148e828c8e613c8b565b60ff929350613d0a613d13928492614b22565b51169285614b22565b5116118e828e613c53565b98959796929c50989960ff919b5060019394501680613d41575b50019091613482565b6002613d4d8387612bc8565b500154613d6f613d5d8389614b33565b51613d68848b614b33565b5190612d78565b52613d8d613d86613d80838a614b33565b516130a3565b9188614b33565b5238613d38565b5060068610613c38565b613dc090613dab83612d1c565b613db58287614b33565b5261130b8186614b33565b613473565b606083820152602001613466565b919590939460009560009660015b15613e4d575b50600095604051613e1281611d858b8d60208401968791606093918352602083015260408201520190565b519020966037880660018101809111613e395760ff613e329116916130a3565b9796613de1565b634e487b7160e01b88526011600452602488fd5b613e5a60ff821686614b11565b51151580613ed6575b613de75760ff91969493989297501690613e7d8284614b11565b51613ea4576001613e9b838294613e94858a614b22565b5285614b11565b5201919061341d565b60405162461bcd60e51b815260206004820152600a602482015269149391c819985a5b195960b21b6044820152606490fd5b5060648810613e63565b50436133b4565b600b5490604051613ef781612cc9565b6000815260006020820152600060408201526000606082015260006080820152600060a082015260405192613f2b84612cc9565b6020604051613f3a8282612ce4565b60008152600036813760405190613f5082612c7c565b60018252600083830152600060408301526000606083015260808201528552604051613f7c8282612ce4565b60008152600036813760405190613f9282612c7c565b600282526000838301526000604083015260006060830152608082015281860152604051613fc08282612ce4565b60008152600036813760405190613fd682612c7c565b600382526000838301526000604083015260006060830152608082015260408601526040516140058282612ce4565b6000815260003681376040519061401b82612c7c565b6004825260008383015260006040830152600060608301526080820152606086015260405161404a8282612ce4565b6000815260003681376040519061406082612c7c565b6005825260008383015260006040830152600060608301526080820152608086015260405161408f8282612ce4565b600081526000368137604051906140a582612c7c565b600682526000838301526000604083015260006060830152608082015260a08601526140d3600f548561304c565b1594604051936140e285612cad565b858552828501938452604085019042825260608601904382526080870190815260a08701906000825260c08801926000845260e0890194600086526101008a019687526101208a019860008a526101408b019c8d526101608b019b60028d526000526019895260406000209a518b555160018b01555160028a01555160038901555160009060005b87600682106142135750505060048801555160058701555160068601555160078501555160088401916000915b600683106141f657505050506141c7916027915160268201550192511515839060ff801983541691151516179055565b516003811015610b4d5761ff0082549160081b169061ff001916179055613088600260ff19600c541617600c55565b600582826142076001945188614a62565b01940192019192614197565b82519293919260019260ff600386901b81811b199092169216901b179301910161416a565b614243600a546130a3565b600a5542600b5560ff19600c5416600c55600e54614273600a549182600052601060205260406000205490612d4e565b6012556000600e55806000526011602052604060002054601355600052601060205260006040812055600a54600052601160205260006040812055600a546142bd600f548261304c565b159060ff60245416614315575b507f1e58c8162f15acbb59be3a32ba321d4967134f85f9f56020eb61a595258b66fc6060600a5492600b549061430260095483612d4e565b60405192835260208301526040820152a2565b604051600061432560c083612ce4565b60c036833760ff602654168061453a575b156143b657505061438e61435061434b6130b2565b614d12565b6014546040519161436083612c7c565b30835260208301526040820152600060608201526001608082015282600052601a60205260406000206145f0565b6143996014546130a3565b60145560135460018101809111610b3757601355602755386142ca565b60145460405160208101914283528560408301524460608301526080820152608081526143e460a082612ce4565b519020604051906107006143f88184612ce4565b368337825b6006811061441a575050505061441561438e91614d12565b614350565b929690959194879492908560015b15614493575b50889760405161445881611d858a8a60208401968791606093918352602083015260408201520190565b51902095603787066001810180911161447f5760ff6144789116916130a3565b9698614428565b634e487b7160e01b8b52601160045260248bfd5b6144a060ff821689614b11565b51151580614530575b61442e5760ff919794965098949197929816906144c68285614b11565b516144eb5760016144e48382946144dd858b614b22565b5286614b11565b52016143fd565b60405162461bcd60e51b815260206004820152601760248201527f524e47206661696c656420686f757365207469636b65740000000000000000006044820152606490fd5b50606487106144a9565b5061454b6145466130b2565b614dcc565b15614336565b6040516323b872dd60e01b60208201526001600160a01b03928316602482015292909116604483015260648083019390935291815261308891614595608483612ce4565b614cb7565b91908110156128eb5760c0020190565b604051906145b960c083612ce4565b819060c081019036821161038757915b8183106145d65750505090565b823560ff81168103610387578152602092830192016145c9565b8054600160401b811015612c975761460d91600182018155612bc8565b6146bb57815181546001600160a01b0319166001600160a01b03919091161781556020820151600090815b6006811061468d575050816003916001608094015560408401516002820155019161467560608201511515849060ff801983541691151516179055565b0151815461ff00191690151560081b61ff0016179055565b909160206146b26001928460ff875116919060ff809160031b9316831b921b19161790565b93019101614638565b634e487b7160e01b600052600060045260246000fd5b8054600160401b811015612c97576146ee91600182018155612bb0565b819291549060031b91821b91600019901b1916179055565b9092919260005b84811061488557505081600052601c602052604060002060018060a01b03821660005260205260ff60406000205416156147e7575b60018060a01b031680600052602360205260406000208260005260205260ff60406000205416156147a6575b50600a54810361478a575061478590601354612d4e565b601355565b60005260116020526147a26040600020918254612d4e565b9055565b8060005260236020526040600020826000526020526040600020600160ff1982541617905560005260226020526147e18160406000206146d1565b3861476e565b81600052601d60205260406000208054600160401b811015612c975761481291600182018155612bb0565b81549060031b9060018060a01b038416821b9160018060a01b03901b191617905581600052601c602052604060002060018060a01b0382166000526020526040600020600160ff19825416179055816000526019602052600760406000200180549060018201809211610b375755614742565b61489861489382878561459a565b6145aa565b60005b60068110614941575050806149016148bc61434b6148936001958a8861459a565b601454604051916148cc83612c7c565b858060a01b038816835260208301526040820152600060608201526000608082015286600052601a60205260406000206145f0565b84600052601b60205261492d604080600020600090858060a01b038816825260205220601454906146d1565b6149386014546130a3565b6014550161470d565b600160ff61494f8385614b22565b5116101580614a18575b156149dd5760018101808211610b37575b6006811061497b575060010161489b565b60ff6149878385614b22565b511660ff6149958386614b22565b5116146149a45760010161496a565b60405162461bcd60e51b81526020600482015260116024820152704475706c6963617465206e756d6265727360781b6044820152606490fd5b60405162461bcd60e51b81526020600482015260136024820152724e756d626572206f7574206f662072616e676560681b6044820152606490fd5b50603760ff614a278385614b22565b51161115614959565b90613088916040519163a9059cbb60e01b602084015261dead6024840152604483015260448252614595606483612ce4565b60046080918351815560208401516001820155604084015160028201556060840151600382015501910151908151916001600160401b038311612c9757600160401b8311612c97578154838355808410614ae8575b5060200190600052602060002060005b838110614ad45750505050565b600190602084519401938184015501614ac7565b8260005283602060002091820191015b818110614b055750614ab7565b60008155600101614af8565b9060388110156128eb5760051b0190565b9060068110156128eb5760051b0190565b9060078110156128eb5760051b0190565b91906146bb5761308891614a62565b600d548015614cb3576050810290808204605003610b3757614b9a60647f7be8c315110e2da6c51053142fa83bf10ee1aedeaef5bfce79c3c7d76b0ae3a593048092612ff3565b8360005260196020526022604060002001614bb6838254612d4e565b9055836000526019602052601d604060002001614bd4828254612d4e565b9055836000526019602052602360406000200154614c7a575b836000526019602052601e60406000200154614c41575b600084815260196020908152604091829020602701805460ff19166001179055600d54825190815290810193909352820152606090a26000600d55565b6000848152601960205260409020601d810154601e90910154614c6391612eb1565b846000526019602052601f60406000200155614c04565b60008481526019602052604090206022810154602390910154614c9c91612eb1565b846000526019602052602460406000200155614bed565b5050565b906000602091828151910182855af11561195c576000513d614d0957506001600160a01b0381163b155b614ce85750565b635274afe760e01b60009081526001600160a01b0391909116600452602490fd5b60011415614ce1565b60c0604051614d218282612ce4565b369037600560005b818110614d3557505090565b90919260005b614d458385612ff3565b811015614dc05760ff614d588287614b22565b51169060018101808211610b375760019260ff614d75838a614b22565b511610614d84575b5001614d3b565b6000614dae60ff614d95848b614b22565b51169260ff614da4868c614b22565b5116925089614b22565b52614db98288614b22565b5238614d7d565b50929190600101614d29565b60005b60068110614dde575050600190565b60ff614dea8284614b22565b5116614df857600101614dcf565b505060009056fea2646970667358221220f4bc514169717170be9547d2a7a53414e4afc57926ea2f8564d0932d7ffd6bfa64736f6c634300081c0033",
  "linkReferences": {},
  "deployedLinkReferences": {}
}