{
  "_format": "hh-sol-artifact-1",
  "contractName": "SuperStakeLottery6of55",
  "sourceName": "contracts/SuperStakeLottery6of55V2.sol",
  "abi": [
    {
      "inputs": [
        {
          "internalType": "address",
          "name": "_morbiusTokenAddress",
          "type": "address"
        },
        {
          "internalType": "address",
          "name": "_wplsTokenAddress",
          "type": "address"
        },
        {
          "internalType": "address",
          "name": "_pulseXRouterAddress",
          "type": "address"
        },
        {
          "internalType": "uint256",
          "name": "_initialRoundDuration",
          "type": "uint256"
        },
        {
          "internalType": "uint256",
          "name": "_megaMillionsInterval",
          "type": "uint256"
        },
        {
          "internalType": "address",
          "name": "_keeperWallet",
          "type": "address"
        },
        {
          "internalType": "address",
          "name": "_deployerWallet",
          "type": "address"
        }
      ],
      "stateMutability": "nonpayable",
      "type": "constructor"
    },
    {
      "inputs": [
        {
          "internalType": "address",
          "name": "owner",
          "type": "address"
        }
      ],
      "name": "OwnableInvalidOwner",
      "type": "error"
    },
    {
      "inputs": [
        {
          "internalType": "address",
          "name": "account",
          "type": "address"
        }
      ],
      "name": "OwnableUnauthorizedAccount",
      "type": "error"
    },
    {
      "inputs": [],
      "name": "ReentrancyGuardReentrantCall",
      "type": "error"
    },
    {
      "inputs": [
        {
          "internalType": "address",
          "name": "token",
          "type": "address"
        }
      ],
      "name": "SafeERC20FailedOperation",
      "type": "error"
    },
    {
      "anonymous": false,
      "inputs": [
        {
          "indexed": true,
          "internalType": "uint256",
          "name": "roundId",
          "type": "uint256"
        },
        {
          "indexed": false,
          "internalType": "uint256",
          "name": "bracket",
          "type": "uint256"
        },
        {
          "indexed": false,
          "internalType": "uint256",
          "name": "winnerCount",
          "type": "uint256"
        },
        {
          "indexed": false,
          "internalType": "uint256",
          "name": "poolAmount",
          "type": "uint256"
        },
        {
          "indexed": false,
          "internalType": "uint256",
          "name": "payoutPerWinner",
          "type": "uint256"
        }
      ],
      "name": "BracketResults",
      "type": "event"
    },
    {
      "anonymous": false,
      "inputs": [
        {
          "indexed": false,
          "internalType": "uint256",
          "name": "amount",
          "type": "uint256"
        }
      ],
      "name": "BurnExecuted",
      "type": "event"
    },
    {
      "anonymous": false,
      "inputs": [
        {
          "indexed": false,
          "internalType": "uint256",
          "name": "oldThreshold",
          "type": "uint256"
        },
        {
          "indexed": false,
          "internalType": "uint256",
          "name": "newThreshold",
          "type": "uint256"
        }
      ],
      "name": "BurnThresholdUpdated",
      "type": "event"
    },
    {
      "anonymous": false,
      "inputs": [
        {
          "indexed": true,
          "internalType": "uint256",
          "name": "roundId",
          "type": "uint256"
        },
        {
          "indexed": false,
          "internalType": "uint256",
          "name": "bankAmount",
          "type": "uint256"
        },
        {
          "indexed": false,
          "internalType": "uint256",
          "name": "toBracket6",
          "type": "uint256"
        },
        {
          "indexed": false,
          "internalType": "uint256",
          "name": "toBracket5",
          "type": "uint256"
        }
      ],
      "name": "MegaMillionsTriggered",
      "type": "event"
    },
    {
      "anonymous": false,
      "inputs": [
        {
          "indexed": true,
          "internalType": "uint256",
          "name": "roundId",
          "type": "uint256"
        },
        {
          "indexed": false,
          "internalType": "uint8[6]",
          "name": "winningNumbers",
          "type": "uint8[6]"
        },
        {
          "indexed": false,
          "internalType": "uint256",
          "name": "drawBlock",
          "type": "uint256"
        }
      ],
      "name": "NumbersDrawn",
      "type": "event"
    },
    {
      "anonymous": false,
      "inputs": [
        {
          "indexed": true,
          "internalType": "address",
          "name": "previousOwner",
          "type": "address"
        },
        {
          "indexed": true,
          "internalType": "address",
          "name": "newOwner",
          "type": "address"
        }
      ],
      "name": "OwnershipTransferred",
      "type": "event"
    },
    {
      "anonymous": false,
      "inputs": [
        {
          "indexed": false,
          "internalType": "uint256",
          "name": "oldDuration",
          "type": "uint256"
        },
        {
          "indexed": false,
          "internalType": "uint256",
          "name": "newDuration",
          "type": "uint256"
        }
      ],
      "name": "RoundDurationUpdated",
      "type": "event"
    },
    {
      "anonymous": false,
      "inputs": [
        {
          "indexed": true,
          "internalType": "uint256",
          "name": "roundId",
          "type": "uint256"
        },
        {
          "indexed": false,
          "internalType": "uint8[6]",
          "name": "winningNumbers",
          "type": "uint8[6]"
        },
        {
          "indexed": false,
          "internalType": "uint256",
          "name": "totalMorbius",
          "type": "uint256"
        },
        {
          "indexed": false,
          "internalType": "uint256",
          "name": "totalTickets",
          "type": "uint256"
        },
        {
          "indexed": false,
          "internalType": "uint256",
          "name": "uniquePlayers",
          "type": "uint256"
        }
      ],
      "name": "RoundFinalized",
      "type": "event"
    },
    {
      "anonymous": false,
      "inputs": [
        {
          "indexed": true,
          "internalType": "uint256",
          "name": "roundId",
          "type": "uint256"
        },
        {
          "indexed": false,
          "internalType": "uint256",
          "name": "startTime",
          "type": "uint256"
        },
        {
          "indexed": false,
          "internalType": "uint256",
          "name": "endTime",
          "type": "uint256"
        },
        {
          "indexed": false,
          "internalType": "bool",
          "name": "isMegaMillionsRound",
          "type": "bool"
        }
      ],
      "name": "RoundStarted",
      "type": "event"
    },
    {
      "anonymous": false,
      "inputs": [
        {
          "indexed": false,
          "internalType": "uint256",
          "name": "morbiusPrice",
          "type": "uint256"
        },
        {
          "indexed": false,
          "internalType": "uint256",
          "name": "plsPrice",
          "type": "uint256"
        }
      ],
      "name": "TicketPricesUpdated",
      "type": "event"
    },
    {
      "anonymous": false,
      "inputs": [
        {
          "indexed": true,
          "internalType": "address",
          "name": "player",
          "type": "address"
        },
        {
          "indexed": true,
          "internalType": "uint256",
          "name": "roundId",
          "type": "uint256"
        },
        {
          "indexed": false,
          "internalType": "uint256",
          "name": "ticketCount",
          "type": "uint256"
        },
        {
          "indexed": false,
          "internalType": "uint256",
          "name": "freeTicketsUsed",
          "type": "uint256"
        },
        {
          "indexed": false,
          "internalType": "uint256",
          "name": "morbiusSpent",
          "type": "uint256"
        }
      ],
      "name": "TicketsPurchased",
      "type": "event"
    },
    {
      "anonymous": false,
      "inputs": [
        {
          "indexed": true,
          "internalType": "address",
          "name": "player",
          "type": "address"
        },
        {
          "indexed": false,
          "internalType": "uint256[]",
          "name": "roundIds",
          "type": "uint256[]"
        },
        {
          "indexed": false,
          "internalType": "uint256[]",
          "name": "ticketCounts",
          "type": "uint256[]"
        },
        {
          "indexed": false,
          "internalType": "uint256",
          "name": "morbiusSpent",
          "type": "uint256"
        }
      ],
      "name": "TicketsPurchasedForRounds",
      "type": "event"
    },
    {
      "anonymous": false,
      "inputs": [
        {
          "indexed": true,
          "internalType": "uint256",
          "name": "roundId",
          "type": "uint256"
        },
        {
          "indexed": false,
          "internalType": "uint256",
          "name": "bracket",
          "type": "uint256"
        },
        {
          "indexed": false,
          "internalType": "uint256",
          "name": "amount",
          "type": "uint256"
        },
        {
          "indexed": false,
          "internalType": "string",
          "name": "destination",
          "type": "string"
        }
      ],
      "name": "UnclaimedPrizeRolledOver",
      "type": "event"
    },
    {
      "anonymous": false,
      "inputs": [
        {
          "indexed": true,
          "internalType": "address",
          "name": "player",
          "type": "address"
        },
        {
          "indexed": false,
          "internalType": "uint256",
          "name": "wplsSpent",
          "type": "uint256"
        },
        {
          "indexed": false,
          "internalType": "uint256",
          "name": "morbiusReceived",
          "type": "uint256"
        }
      ],
      "name": "WPLSSwappedForTickets",
      "type": "event"
    },
    {
      "anonymous": false,
      "inputs": [
        {
          "indexed": true,
          "internalType": "address",
          "name": "player",
          "type": "address"
        },
        {
          "indexed": true,
          "internalType": "uint256",
          "name": "roundId",
          "type": "uint256"
        },
        {
          "indexed": false,
          "internalType": "uint256",
          "name": "amount",
          "type": "uint256"
        }
      ],
      "name": "WinningsClaimed",
      "type": "event"
    },
    {
      "inputs": [
        {
          "internalType": "uint256",
          "name": "",
          "type": "uint256"
        }
      ],
      "name": "BRACKET_PERCENTAGES",
      "outputs": [
        {
          "internalType": "uint256",
          "name": "",
          "type": "uint256"
        }
      ],
      "stateMutability": "view",
      "type": "function"
    },
    {
      "inputs": [],
      "name": "BURN_ADDRESS",
      "outputs": [
        {
          "internalType": "address",
          "name": "",
          "type": "address"
        }
      ],
      "stateMutability": "view",
      "type": "function"
    },
    {
      "inputs": [],
      "name": "BURN_PCT",
      "outputs": [
        {
          "internalType": "uint256",
          "name": "",
          "type": "uint256"
        }
      ],
      "stateMutability": "view",
      "type": "function"
    },
    {
      "inputs": [],
      "name": "DEPLOYER_FEE_PCT",
      "outputs": [
        {
          "internalType": "uint256",
          "name": "",
          "type": "uint256"
        }
      ],
      "stateMutability": "view",
      "type": "function"
    },
    {
      "inputs": [],
      "name": "KEEPER_FEE_PCT",
      "outputs": [
        {
          "internalType": "uint256",
          "name": "",
          "type": "uint256"
        }
      ],
      "stateMutability": "view",
      "type": "function"
    },
    {
      "inputs": [],
      "name": "MAX_FUTURE_ROUND_OFFSET",
      "outputs": [
        {
          "internalType": "uint256",
          "name": "",
          "type": "uint256"
        }
      ],
      "stateMutability": "view",
      "type": "function"
    },
    {
      "inputs": [],
      "name": "MAX_NUMBER",
      "outputs": [
        {
          "internalType": "uint8",
          "name": "",
          "type": "uint8"
        }
      ],
      "stateMutability": "view",
      "type": "function"
    },
    {
      "inputs": [],
      "name": "MEGA_BANK_PCT",
      "outputs": [
        {
          "internalType": "uint256",
          "name": "",
          "type": "uint256"
        }
      ],
      "stateMutability": "view",
      "type": "function"
    },
    {
      "inputs": [],
      "name": "MIN_NUMBER",
      "outputs": [
        {
          "internalType": "uint8",
          "name": "",
          "type": "uint8"
        }
      ],
      "stateMutability": "view",
      "type": "function"
    },
    {
      "inputs": [],
      "name": "MORBIUS_TOKEN",
      "outputs": [
        {
          "internalType": "contract IERC20",
          "name": "",
          "type": "address"
        }
      ],
      "stateMutability": "view",
      "type": "function"
    },
    {
      "inputs": [],
      "name": "NUMBERS_PER_TICKET",
      "outputs": [
        {
          "internalType": "uint8",
          "name": "",
          "type": "uint8"
        }
      ],
      "stateMutability": "view",
      "type": "function"
    },
    {
      "inputs": [],
      "name": "ROLLOVER_TO_BURN_PCT",
      "outputs": [
        {
          "internalType": "uint256",
          "name": "",
          "type": "uint256"
        }
      ],
      "stateMutability": "view",
      "type": "function"
    },
    {
      "inputs": [],
      "name": "ROLLOVER_TO_MEGA_PCT",
      "outputs": [
        {
          "internalType": "uint256",
          "name": "",
          "type": "uint256"
        }
      ],
      "stateMutability": "view",
      "type": "function"
    },
    {
      "inputs": [],
      "name": "ROLLOVER_TO_NEXT_ROUND_PCT",
      "outputs": [
        {
          "internalType": "uint256",
          "name": "",
          "type": "uint256"
        }
      ],
      "stateMutability": "view",
      "type": "function"
    },
    {
      "inputs": [],
      "name": "TICKET_PRICE_DEFAULT",
      "outputs": [
        {
          "internalType": "uint256",
          "name": "",
          "type": "uint256"
        }
      ],
      "stateMutability": "view",
      "type": "function"
    },
    {
      "inputs": [],
      "name": "TOTAL_PCT",
      "outputs": [
        {
          "internalType": "uint256",
          "name": "",
          "type": "uint256"
        }
      ],
      "stateMutability": "view",
      "type": "function"
    },
    {
      "inputs": [],
      "name": "WINNERS_POOL_PCT",
      "outputs": [
        {
          "internalType": "uint256",
          "name": "",
          "type": "uint256"
        }
      ],
      "stateMutability": "view",
      "type": "function"
    },
    {
      "inputs": [],
      "name": "WPLS_SWAP_BUFFER_PCT",
      "outputs": [
        {
          "internalType": "uint256",
          "name": "",
          "type": "uint256"
        }
      ],
      "stateMutability": "view",
      "type": "function"
    },
    {
      "inputs": [],
      "name": "WPLS_TOKEN",
      "outputs": [
        {
          "internalType": "contract IWrappedPulse",
          "name": "",
          "type": "address"
        }
      ],
      "stateMutability": "view",
      "type": "function"
    },
    {
      "inputs": [],
      "name": "burnThreshold",
      "outputs": [
        {
          "internalType": "uint256",
          "name": "",
          "type": "uint256"
        }
      ],
      "stateMutability": "view",
      "type": "function"
    },
    {
      "inputs": [
        {
          "internalType": "uint8[6][]",
          "name": "ticketNumbers",
          "type": "uint8[6][]"
        }
      ],
      "name": "buyTickets",
      "outputs": [],
      "stateMutability": "nonpayable",
      "type": "function"
    },
    {
      "inputs": [
        {
          "internalType": "uint8[6][][]",
          "name": "ticketGroups",
          "type": "uint8[6][][]"
        },
        {
          "internalType": "uint256[]",
          "name": "roundOffsets",
          "type": "uint256[]"
        }
      ],
      "name": "buyTicketsForRounds",
      "outputs": [],
      "stateMutability": "nonpayable",
      "type": "function"
    },
    {
      "inputs": [
        {
          "internalType": "uint8[6][]",
          "name": "ticketNumbers",
          "type": "uint8[6][]"
        }
      ],
      "name": "buyTicketsWithPLS",
      "outputs": [],
      "stateMutability": "payable",
      "type": "function"
    },
    {
      "inputs": [
        {
          "internalType": "uint8[6][]",
          "name": "ticketNumbers",
          "type": "uint8[6][]"
        }
      ],
      "name": "buyTicketsWithWPLS",
      "outputs": [],
      "stateMutability": "nonpayable",
      "type": "function"
    },
    {
      "inputs": [
        {
          "internalType": "uint8[6][]",
          "name": "ticketNumbers",
          "type": "uint8[6][]"
        },
        {
          "internalType": "uint256",
          "name": "extraBufferBp",
          "type": "uint256"
        }
      ],
      "name": "buyTicketsWithWPLSAndBuffer",
      "outputs": [],
      "stateMutability": "nonpayable",
      "type": "function"
    },
    {
      "inputs": [
        {
          "internalType": "uint256",
          "name": "roundId",
          "type": "uint256"
        }
      ],
      "name": "claimWinnings",
      "outputs": [],
      "stateMutability": "nonpayable",
      "type": "function"
    },
    {
      "inputs": [
        {
          "internalType": "uint256[]",
          "name": "roundIds",
          "type": "uint256[]"
        }
      ],
      "name": "claimWinningsMultiple",
      "outputs": [],
      "stateMutability": "nonpayable",
      "type": "function"
    },
    {
      "inputs": [
        {
          "internalType": "uint256",
          "name": "",
          "type": "uint256"
        },
        {
          "internalType": "address",
          "name": "",
          "type": "address"
        }
      ],
      "name": "claimableWinnings",
      "outputs": [
        {
          "internalType": "uint256",
          "name": "",
          "type": "uint256"
        }
      ],
      "stateMutability": "view",
      "type": "function"
    },
    {
      "inputs": [],
      "name": "currentRoundId",
      "outputs": [
        {
          "internalType": "uint256",
          "name": "",
          "type": "uint256"
        }
      ],
      "stateMutability": "view",
      "type": "function"
    },
    {
      "inputs": [],
      "name": "currentRoundStartTime",
      "outputs": [
        {
          "internalType": "uint256",
          "name": "",
          "type": "uint256"
        }
      ],
      "stateMutability": "view",
      "type": "function"
    },
    {
      "inputs": [],
      "name": "currentRoundState",
      "outputs": [
        {
          "internalType": "enum SuperStakeLottery6of55.RoundState",
          "name": "",
          "type": "uint8"
        }
      ],
      "stateMutability": "view",
      "type": "function"
    },
    {
      "inputs": [],
      "name": "currentRoundTotalCollectedFromPlayers",
      "outputs": [
        {
          "internalType": "uint256",
          "name": "",
          "type": "uint256"
        }
      ],
      "stateMutability": "view",
      "type": "function"
    },
    {
      "inputs": [],
      "name": "currentRoundTotalMorbius",
      "outputs": [
        {
          "internalType": "uint256",
          "name": "",
          "type": "uint256"
        }
      ],
      "stateMutability": "view",
      "type": "function"
    },
    {
      "inputs": [],
      "name": "currentRoundTotalTickets",
      "outputs": [
        {
          "internalType": "uint256",
          "name": "",
          "type": "uint256"
        }
      ],
      "stateMutability": "view",
      "type": "function"
    },
    {
      "inputs": [],
      "name": "deployerWallet",
      "outputs": [
        {
          "internalType": "address",
          "name": "",
          "type": "address"
        }
      ],
      "stateMutability": "view",
      "type": "function"
    },
    {
      "inputs": [],
      "name": "finalizeRound",
      "outputs": [],
      "stateMutability": "nonpayable",
      "type": "function"
    },
    {
      "inputs": [],
      "name": "flushBurn",
      "outputs": [],
      "stateMutability": "nonpayable",
      "type": "function"
    },
    {
      "inputs": [],
      "name": "getBracketConfig",
      "outputs": [
        {
          "internalType": "uint256[6]",
          "name": "bracketPercents",
          "type": "uint256[6]"
        },
        {
          "internalType": "uint256",
          "name": "winnersPoolPercent",
          "type": "uint256"
        },
        {
          "internalType": "uint256",
          "name": "burnPercent",
          "type": "uint256"
        },
        {
          "internalType": "uint256",
          "name": "megaBankPercent",
          "type": "uint256"
        },
        {
          "internalType": "uint256",
          "name": "keeperFeePercent",
          "type": "uint256"
        },
        {
          "internalType": "uint256",
          "name": "deployerFeePercent",
          "type": "uint256"
        }
      ],
      "stateMutability": "view",
      "type": "function"
    },
    {
      "inputs": [
        {
          "internalType": "uint256",
          "name": "roundId",
          "type": "uint256"
        },
        {
          "internalType": "address",
          "name": "player",
          "type": "address"
        }
      ],
      "name": "getClaimableWinnings",
      "outputs": [
        {
          "internalType": "uint256",
          "name": "",
          "type": "uint256"
        }
      ],
      "stateMutability": "view",
      "type": "function"
    },
    {
      "inputs": [],
      "name": "getCurrentRoundInfo",
      "outputs": [
        {
          "internalType": "uint256",
          "name": "roundId",
          "type": "uint256"
        },
        {
          "internalType": "uint256",
          "name": "startTime",
          "type": "uint256"
        },
        {
          "internalType": "uint256",
          "name": "endTime",
          "type": "uint256"
        },
        {
          "internalType": "uint256",
          "name": "totalMorbius",
          "type": "uint256"
        },
        {
          "internalType": "uint256",
          "name": "totalTickets",
          "type": "uint256"
        },
        {
          "internalType": "uint256",
          "name": "uniquePlayers",
          "type": "uint256"
        },
        {
          "internalType": "uint256",
          "name": "timeRemaining",
          "type": "uint256"
        },
        {
          "internalType": "bool",
          "name": "isMegaMillionsRound",
          "type": "bool"
        },
        {
          "internalType": "enum SuperStakeLottery6of55.RoundState",
          "name": "state",
          "type": "uint8"
        }
      ],
      "stateMutability": "view",
      "type": "function"
    },
    {
      "inputs": [],
      "name": "getCurrentRoundTotals",
      "outputs": [
        {
          "internalType": "uint256",
          "name": "roundId",
          "type": "uint256"
        },
        {
          "internalType": "uint256",
          "name": "totalMorbius",
          "type": "uint256"
        },
        {
          "internalType": "uint256",
          "name": "totalTickets",
          "type": "uint256"
        },
        {
          "internalType": "uint256",
          "name": "uniquePlayers",
          "type": "uint256"
        },
        {
          "internalType": "uint256",
          "name": "rolloverBalance",
          "type": "uint256"
        },
        {
          "internalType": "uint256",
          "name": "megaMorbiusBalance",
          "type": "uint256"
        },
        {
          "internalType": "enum SuperStakeLottery6of55.RoundState",
          "name": "state",
          "type": "uint8"
        }
      ],
      "stateMutability": "view",
      "type": "function"
    },
    {
      "inputs": [],
      "name": "getMegaMillionsBank",
      "outputs": [
        {
          "internalType": "uint256",
          "name": "",
          "type": "uint256"
        }
      ],
      "stateMutability": "view",
      "type": "function"
    },
    {
      "inputs": [
        {
          "internalType": "uint256",
          "name": "roundId",
          "type": "uint256"
        }
      ],
      "name": "getPendingForRound",
      "outputs": [
        {
          "internalType": "uint256",
          "name": "morbiusAmount",
          "type": "uint256"
        },
        {
          "internalType": "uint256",
          "name": "ticketCount",
          "type": "uint256"
        }
      ],
      "stateMutability": "view",
      "type": "function"
    },
    {
      "inputs": [
        {
          "internalType": "address",
          "name": "player",
          "type": "address"
        }
      ],
      "name": "getPlayerLifetime",
      "outputs": [
        {
          "internalType": "uint256",
          "name": "ticketsBought",
          "type": "uint256"
        },
        {
          "internalType": "uint256",
          "name": "totalSpent",
          "type": "uint256"
        },
        {
          "internalType": "uint256",
          "name": "totalClaimed",
          "type": "uint256"
        },
        {
          "internalType": "uint256",
          "name": "totalClaimable",
          "type": "uint256"
        }
      ],
      "stateMutability": "view",
      "type": "function"
    },
    {
      "inputs": [
        {
          "internalType": "address",
          "name": "player",
          "type": "address"
        },
        {
          "internalType": "uint256",
          "name": "start",
          "type": "uint256"
        },
        {
          "internalType": "uint256",
          "name": "count",
          "type": "uint256"
        }
      ],
      "name": "getPlayerRoundHistory",
      "outputs": [
        {
          "internalType": "uint256[]",
          "name": "roundIds",
          "type": "uint256[]"
        },
        {
          "internalType": "uint256[]",
          "name": "ticketsBoughtPerRound",
          "type": "uint256[]"
        },
        {
          "internalType": "uint256[]",
          "name": "claimablePerRound",
          "type": "uint256[]"
        }
      ],
      "stateMutability": "view",
      "type": "function"
    },
    {
      "inputs": [
        {
          "internalType": "uint256",
          "name": "roundId",
          "type": "uint256"
        },
        {
          "internalType": "address",
          "name": "player",
          "type": "address"
        }
      ],
      "name": "getPlayerTickets",
      "outputs": [
        {
          "components": [
            {
              "internalType": "address",
              "name": "player",
              "type": "address"
            },
            {
              "internalType": "uint8[6]",
              "name": "numbers",
              "type": "uint8[6]"
            },
            {
              "internalType": "uint256",
              "name": "ticketId",
              "type": "uint256"
            },
            {
              "internalType": "bool",
              "name": "isFreeTicket",
              "type": "bool"
            },
            {
              "internalType": "bool",
              "name": "isHouseTicket",
              "type": "bool"
            }
          ],
          "internalType": "struct SuperStakeLottery6of55.Ticket[]",
          "name": "",
          "type": "tuple[]"
        }
      ],
      "stateMutability": "view",
      "type": "function"
    },
    {
      "inputs": [],
      "name": "getRolloverState",
      "outputs": [
        {
          "internalType": "uint256",
          "name": "rolloverBalance",
          "type": "uint256"
        },
        {
          "internalType": "uint256",
          "name": "megaMorbiusBalance",
          "type": "uint256"
        }
      ],
      "stateMutability": "view",
      "type": "function"
    },
    {
      "inputs": [
        {
          "internalType": "uint256",
          "name": "roundId",
          "type": "uint256"
        }
      ],
      "name": "getRound",
      "outputs": [
        {
          "components": [
            {
              "internalType": "uint256",
              "name": "roundId",
              "type": "uint256"
            },
            {
              "internalType": "uint256",
              "name": "startTime",
              "type": "uint256"
            },
            {
              "internalType": "uint256",
              "name": "endTime",
              "type": "uint256"
            },
            {
              "internalType": "uint256",
              "name": "closingBlock",
              "type": "uint256"
            },
            {
              "internalType": "uint256",
              "name": "drawBlock",
              "type": "uint256"
            },
            {
              "internalType": "uint8[6]",
              "name": "winningNumbers",
              "type": "uint8[6]"
            },
            {
              "internalType": "uint256",
              "name": "totalMorbiusCollected",
              "type": "uint256"
            },
            {
              "internalType": "uint256",
              "name": "totalTickets",
              "type": "uint256"
            },
            {
              "internalType": "uint256",
              "name": "uniquePlayers",
              "type": "uint256"
            },
            {
              "components": [
                {
                  "internalType": "uint256",
                  "name": "matchCount",
                  "type": "uint256"
                },
                {
                  "internalType": "uint256",
                  "name": "poolAmount",
                  "type": "uint256"
                },
                {
                  "internalType": "uint256",
                  "name": "winnerCount",
                  "type": "uint256"
                },
                {
                  "internalType": "uint256",
                  "name": "payoutPerWinner",
                  "type": "uint256"
                },
                {
                  "internalType": "uint256[]",
                  "name": "winningTicketIds",
                  "type": "uint256[]"
                }
              ],
              "internalType": "struct SuperStakeLottery6of55.BracketWinners[6]",
              "name": "brackets",
              "type": "tuple[6]"
            },
            {
              "internalType": "uint256",
              "name": "megaBankContribution",
              "type": "uint256"
            },
            {
              "internalType": "bool",
              "name": "isMegaMillionsRound",
              "type": "bool"
            },
            {
              "internalType": "enum SuperStakeLottery6of55.RoundState",
              "name": "state",
              "type": "uint8"
            }
          ],
          "internalType": "struct SuperStakeLottery6of55.Round",
          "name": "",
          "type": "tuple"
        }
      ],
      "stateMutability": "view",
      "type": "function"
    },
    {
      "inputs": [
        {
          "internalType": "uint256",
          "name": "roundId",
          "type": "uint256"
        }
      ],
      "name": "getRoundHistoryTotals",
      "outputs": [
        {
          "internalType": "uint256",
          "name": "totalMorbius",
          "type": "uint256"
        },
        {
          "internalType": "uint256",
          "name": "totalTickets",
          "type": "uint256"
        },
        {
          "internalType": "uint256",
          "name": "winnersPoolTotal",
          "type": "uint256"
        },
        {
          "internalType": "uint256",
          "name": "burnTotal",
          "type": "uint256"
        },
        {
          "internalType": "uint256",
          "name": "megaTotal",
          "type": "uint256"
        },
        {
          "internalType": "uint256",
          "name": "totalUnclaimed",
          "type": "uint256"
        }
      ],
      "stateMutability": "view",
      "type": "function"
    },
    {
      "inputs": [],
      "name": "getTotalMorbiusClaimableAll",
      "outputs": [
        {
          "internalType": "uint256",
          "name": "",
          "type": "uint256"
        }
      ],
      "stateMutability": "view",
      "type": "function"
    },
    {
      "inputs": [],
      "name": "getTotalMorbiusEverClaimed",
      "outputs": [
        {
          "internalType": "uint256",
          "name": "",
          "type": "uint256"
        }
      ],
      "stateMutability": "view",
      "type": "function"
    },
    {
      "inputs": [],
      "name": "getTotalMorbiusEverCollected",
      "outputs": [
        {
          "internalType": "uint256",
          "name": "",
          "type": "uint256"
        }
      ],
      "stateMutability": "view",
      "type": "function"
    },
    {
      "inputs": [],
      "name": "getTotalTicketsEver",
      "outputs": [
        {
          "internalType": "uint256",
          "name": "",
          "type": "uint256"
        }
      ],
      "stateMutability": "view",
      "type": "function"
    },
    {
      "inputs": [
        {
          "internalType": "uint256",
          "name": "roundId",
          "type": "uint256"
        }
      ],
      "name": "getUnclaimedForRound",
      "outputs": [
        {
          "internalType": "uint256[]",
          "name": "poolAmounts",
          "type": "uint256[]"
        },
        {
          "internalType": "uint256[]",
          "name": "winnerCounts",
          "type": "uint256[]"
        },
        {
          "internalType": "uint256[]",
          "name": "paidPerBracket",
          "type": "uint256[]"
        },
        {
          "internalType": "uint256[]",
          "name": "unclaimedPerBracket",
          "type": "uint256[]"
        },
        {
          "internalType": "uint256",
          "name": "totalUnclaimed",
          "type": "uint256"
        },
        {
          "internalType": "uint256",
          "name": "winnersPoolTotal",
          "type": "uint256"
        },
        {
          "internalType": "uint256",
          "name": "burnTotal",
          "type": "uint256"
        },
        {
          "internalType": "uint256",
          "name": "megaTotal",
          "type": "uint256"
        }
      ],
      "stateMutability": "view",
      "type": "function"
    },
    {
      "inputs": [
        {
          "internalType": "uint256",
          "name": "",
          "type": "uint256"
        },
        {
          "internalType": "address",
          "name": "",
          "type": "address"
        }
      ],
      "name": "hasClaimed",
      "outputs": [
        {
          "internalType": "bool",
          "name": "",
          "type": "bool"
        }
      ],
      "stateMutability": "view",
      "type": "function"
    },
    {
      "inputs": [
        {
          "internalType": "uint256",
          "name": "",
          "type": "uint256"
        },
        {
          "internalType": "address",
          "name": "",
          "type": "address"
        }
      ],
      "name": "hasEnteredRound",
      "outputs": [
        {
          "internalType": "bool",
          "name": "",
          "type": "bool"
        }
      ],
      "stateMutability": "view",
      "type": "function"
    },
    {
      "inputs": [],
      "name": "houseTicketEnabled",
      "outputs": [
        {
          "internalType": "bool",
          "name": "",
          "type": "bool"
        }
      ],
      "stateMutability": "view",
      "type": "function"
    },
    {
      "inputs": [],
      "name": "houseTicketLastRound",
      "outputs": [
        {
          "internalType": "uint256",
          "name": "",
          "type": "uint256"
        }
      ],
      "stateMutability": "view",
      "type": "function"
    },
    {
      "inputs": [
        {
          "internalType": "uint256",
          "name": "",
          "type": "uint256"
        }
      ],
      "name": "houseTicketNumbers",
      "outputs": [
        {
          "internalType": "uint8",
          "name": "",
          "type": "uint8"
        }
      ],
      "stateMutability": "view",
      "type": "function"
    },
    {
      "inputs": [],
      "name": "houseTicketUseFixed",
      "outputs": [
        {
          "internalType": "bool",
          "name": "",
          "type": "bool"
        }
      ],
      "stateMutability": "view",
      "type": "function"
    },
    {
      "inputs": [],
      "name": "keeperWallet",
      "outputs": [
        {
          "internalType": "address",
          "name": "",
          "type": "address"
        }
      ],
      "stateMutability": "view",
      "type": "function"
    },
    {
      "inputs": [],
      "name": "megaMillionsInterval",
      "outputs": [
        {
          "internalType": "uint256",
          "name": "",
          "type": "uint256"
        }
      ],
      "stateMutability": "view",
      "type": "function"
    },
    {
      "inputs": [],
      "name": "megaMorbiusBank",
      "outputs": [
        {
          "internalType": "uint256",
          "name": "",
          "type": "uint256"
        }
      ],
      "stateMutability": "view",
      "type": "function"
    },
    {
      "inputs": [],
      "name": "nextTicketId",
      "outputs": [
        {
          "internalType": "uint256",
          "name": "",
          "type": "uint256"
        }
      ],
      "stateMutability": "view",
      "type": "function"
    },
    {
      "inputs": [],
      "name": "owner",
      "outputs": [
        {
          "internalType": "address",
          "name": "",
          "type": "address"
        }
      ],
      "stateMutability": "view",
      "type": "function"
    },
    {
      "inputs": [],
      "name": "pendingBurnMorbius",
      "outputs": [
        {
          "internalType": "uint256",
          "name": "",
          "type": "uint256"
        }
      ],
      "stateMutability": "view",
      "type": "function"
    },
    {
      "inputs": [
        {
          "internalType": "uint256",
          "name": "",
          "type": "uint256"
        }
      ],
      "name": "pendingRoundMorbius",
      "outputs": [
        {
          "internalType": "uint256",
          "name": "",
          "type": "uint256"
        }
      ],
      "stateMutability": "view",
      "type": "function"
    },
    {
      "inputs": [
        {
          "internalType": "uint256",
          "name": "",
          "type": "uint256"
        }
      ],
      "name": "pendingRoundTickets",
      "outputs": [
        {
          "internalType": "uint256",
          "name": "",
          "type": "uint256"
        }
      ],
      "stateMutability": "view",
      "type": "function"
    },
    {
      "inputs": [
        {
          "internalType": "address",
          "name": "",
          "type": "address"
        }
      ],
      "name": "playerOutstandingClaimable",
      "outputs": [
        {
          "internalType": "uint256",
          "name": "",
          "type": "uint256"
        }
      ],
      "stateMutability": "view",
      "type": "function"
    },
    {
      "inputs": [
        {
          "internalType": "uint256",
          "name": "",
          "type": "uint256"
        },
        {
          "internalType": "address",
          "name": "",
          "type": "address"
        },
        {
          "internalType": "uint256",
          "name": "",
          "type": "uint256"
        }
      ],
      "name": "playerTicketIds",
      "outputs": [
        {
          "internalType": "uint256",
          "name": "",
          "type": "uint256"
        }
      ],
      "stateMutability": "view",
      "type": "function"
    },
    {
      "inputs": [
        {
          "internalType": "address",
          "name": "",
          "type": "address"
        }
      ],
      "name": "playerTotals",
      "outputs": [
        {
          "internalType": "uint256",
          "name": "ticketsBought",
          "type": "uint256"
        },
        {
          "internalType": "uint256",
          "name": "totalSpent",
          "type": "uint256"
        },
        {
          "internalType": "uint256",
          "name": "totalClaimed",
          "type": "uint256"
        }
      ],
      "stateMutability": "view",
      "type": "function"
    },
    {
      "inputs": [],
      "name": "pulseXRouter",
      "outputs": [
        {
          "internalType": "contract IPulseXRouter",
          "name": "",
          "type": "address"
        }
      ],
      "stateMutability": "view",
      "type": "function"
    },
    {
      "inputs": [],
      "name": "renounceOwnership",
      "outputs": [],
      "stateMutability": "nonpayable",
      "type": "function"
    },
    {
      "inputs": [],
      "name": "rolloverReserve",
      "outputs": [
        {
          "internalType": "uint256",
          "name": "",
          "type": "uint256"
        }
      ],
      "stateMutability": "view",
      "type": "function"
    },
    {
      "inputs": [],
      "name": "roundDuration",
      "outputs": [
        {
          "internalType": "uint256",
          "name": "",
          "type": "uint256"
        }
      ],
      "stateMutability": "view",
      "type": "function"
    },
    {
      "inputs": [
        {
          "internalType": "uint256",
          "name": "",
          "type": "uint256"
        },
        {
          "internalType": "uint256",
          "name": "",
          "type": "uint256"
        }
      ],
      "name": "roundPlayers",
      "outputs": [
        {
          "internalType": "address",
          "name": "",
          "type": "address"
        }
      ],
      "stateMutability": "view",
      "type": "function"
    },
    {
      "inputs": [
        {
          "internalType": "uint256",
          "name": "",
          "type": "uint256"
        },
        {
          "internalType": "uint256",
          "name": "",
          "type": "uint256"
        }
      ],
      "name": "roundTickets",
      "outputs": [
        {
          "internalType": "address",
          "name": "player",
          "type": "address"
        },
        {
          "internalType": "uint256",
          "name": "ticketId",
          "type": "uint256"
        },
        {
          "internalType": "bool",
          "name": "isFreeTicket",
          "type": "bool"
        },
        {
          "internalType": "bool",
          "name": "isHouseTicket",
          "type": "bool"
        }
      ],
      "stateMutability": "view",
      "type": "function"
    },
    {
      "inputs": [
        {
          "internalType": "uint256",
          "name": "",
          "type": "uint256"
        }
      ],
      "name": "rounds",
      "outputs": [
        {
          "internalType": "uint256",
          "name": "roundId",
          "type": "uint256"
        },
        {
          "internalType": "uint256",
          "name": "startTime",
          "type": "uint256"
        },
        {
          "internalType": "uint256",
          "name": "endTime",
          "type": "uint256"
        },
        {
          "internalType": "uint256",
          "name": "closingBlock",
          "type": "uint256"
        },
        {
          "internalType": "uint256",
          "name": "drawBlock",
          "type": "uint256"
        },
        {
          "internalType": "uint256",
          "name": "totalMorbiusCollected",
          "type": "uint256"
        },
        {
          "internalType": "uint256",
          "name": "totalTickets",
          "type": "uint256"
        },
        {
          "internalType": "uint256",
          "name": "uniquePlayers",
          "type": "uint256"
        },
        {
          "internalType": "uint256",
          "name": "megaBankContribution",
          "type": "uint256"
        },
        {
          "internalType": "bool",
          "name": "isMegaMillionsRound",
          "type": "bool"
        },
        {
          "internalType": "enum SuperStakeLottery6of55.RoundState",
          "name": "state",
          "type": "uint8"
        }
      ],
      "stateMutability": "view",
      "type": "function"
    },
    {
      "inputs": [],
      "name": "ticketPriceMorbius",
      "outputs": [
        {
          "internalType": "uint256",
          "name": "",
          "type": "uint256"
        }
      ],
      "stateMutability": "view",
      "type": "function"
    },
    {
      "inputs": [],
      "name": "ticketPricePls",
      "outputs": [
        {
          "internalType": "uint256",
          "name": "",
          "type": "uint256"
        }
      ],
      "stateMutability": "view",
      "type": "function"
    },
    {
      "inputs": [],
      "name": "totalMorbiusClaimableOutstanding",
      "outputs": [
        {
          "internalType": "uint256",
          "name": "",
          "type": "uint256"
        }
      ],
      "stateMutability": "view",
      "type": "function"
    },
    {
      "inputs": [],
      "name": "totalMorbiusEverClaimed",
      "outputs": [
        {
          "internalType": "uint256",
          "name": "",
          "type": "uint256"
        }
      ],
      "stateMutability": "view",
      "type": "function"
    },
    {
      "inputs": [],
      "name": "totalMorbiusEverCollected",
      "outputs": [
        {
          "internalType": "uint256",
          "name": "",
          "type": "uint256"
        }
      ],
      "stateMutability": "view",
      "type": "function"
    },
    {
      "inputs": [],
      "name": "totalTicketsEver",
      "outputs": [
        {
          "internalType": "uint256",
          "name": "",
          "type": "uint256"
        }
      ],
      "stateMutability": "view",
      "type": "function"
    },
    {
      "inputs": [
        {
          "internalType": "address",
          "name": "newOwner",
          "type": "address"
        }
      ],
      "name": "transferOwnership",
      "outputs": [],
      "stateMutability": "nonpayable",
      "type": "function"
    },
    {
      "inputs": [
        {
          "internalType": "uint256",
          "name": "newThreshold",
          "type": "uint256"
        }
      ],
      "name": "updateBurnThreshold",
      "outputs": [],
      "stateMutability": "nonpayable",
      "type": "function"
    },
    {
      "inputs": [
        {
          "internalType": "uint256",
          "name": "_newInterval",
          "type": "uint256"
        }
      ],
      "name": "updateMegaMillionsInterval",
      "outputs": [],
      "stateMutability": "nonpayable",
      "type": "function"
    },
    {
      "inputs": [
        {
          "internalType": "uint256",
          "name": "_newDuration",
          "type": "uint256"
        }
      ],
      "name": "updateRoundDuration",
      "outputs": [],
      "stateMutability": "nonpayable",
      "type": "function"
    },
    {
      "inputs": [
        {
          "internalType": "uint256",
          "name": "newMorbiusPrice",
          "type": "uint256"
        },
        {
          "internalType": "uint256",
          "name": "newPlsPrice",
          "type": "uint256"
        }
      ],
      "name": "updateTicketPrices",
      "outputs": [],
      "stateMutability": "nonpayable",
      "type": "function"
    }
  ],
  "bytecode": "0x60e080604052346108b75760e08161643c803803809161001f82856108bc565b8339810103126108b757610032816108df565b61003e602083016108df565b9161004b604082016108df565b9060608101519060808101519261007060c061006960a085016108df565b93016108df565b9433156108a15760008054336001600160a01b03198216811783556040519290916001600160a01b0316907f8be0079c531659141344cd1fd0a4f28419497f9722a3daafe3b4186f6b6457e09080a36001805560c081016001600160401b038111828210176104d957604052610190815261025860208201526103e860408201526105dc60608201526107d0608082015261119460a082015260005b6006811061088857505069152d02c7e14af6800000601955600160ff19602a541617602a5560ff19602c5416602c5560018060a01b0316958615610843576001600160a01b03169081156107fe576001600160a01b03169182156107b957831561077457841561072f576001600160a01b03169485156106ea576001600160a01b03169586156106a55760805260a05260c052600a5560125560018060a01b0319600854161760085560018060a01b03196009541617600955683635c9adc5dea00000600e55683635c9adc5dea00000600f556101ea600b546108f3565b80600b5542600c5560ff19600d5416600d5561021760115482600052601360205260406000205490610902565b60155560006016556000601155806000526014602052604060002054601755600052601360205260006040812055600b54600052601460205260006040812055600b54601254801561068f5781069060ff602a5416610347575b507f1e58c8162f15acbb59be3a32ba321d4967134f85f9f56020eb61a595258b66fc6060600b5492600c54906102a9600a5483610902565b6040519283526020830152156040820152a26040516159cd9081610a6f823960805181818161071001528181610b6c0152818161197901528181611f84015281816123dc0152818161269801528181612b93015281816131cc0152615504015260a05181818161181a01528181611943015281816126620152612b5d015260c0518181816109d0015281816119bc015281816126db0152612bd60152f35b604051600061035760c0836108bc565b60c036833760ff602c541680610678575b156104ef57505061037f61037a61090f565b6109b4565b60185460405190919060a081016001600160401b038111828210176104d957604052308152602081019182526040810192835260608101926000845260808201926001845285600052602080526040600020805490680100000000000000008210156104d957600182018082558210156104c35760005260206000209060021b019260018060a01b0390511660018060a01b03198454161783555160009060005b6006811061049f57505090829160016003940155516002820155019151151560ff8019845416911617825551151561ff0082549160081b169061ff00191617905561046c6018546108f3565b6018556017546001810180911161048957601755602d5538610271565b634e487b7160e01b600052601160045260246000fd5b9091602060019160ff8551169060ff8560031b92831b921b19161793019101610420565b634e487b7160e01b600052603260045260246000fd5b634e487b7160e01b600052604160045260246000fd5b929190601854604051602081019142835284604083015244606083015260808201526080815261052060a0826108bc565b51902060405161070061053381836108bc565b36823785905b6006821061055557505050610550919293506109b4565b61037f565b90929193948695879660015b156105ca575b508795604051602081019182528660408201528860608201526060815261058f6080826108bc565b5190209660378806600181018091116105b65760ff6105af9116916108f3565b9796610561565b634e487b7160e01b8a52601160045260248afd5b6105d760ff82168561095f565b5115158061066e575b6105675760ff919750979491979592939516906105fd828561095f565b5161062957600161061b838294610614858b610970565b528661095f565b520190919594939295610539565b60405162461bcd60e51b815260206004820152601760248201527f524e47206661696c656420686f757365207469636b65740000000000000000006044820152606490fd5b50606488106105e0565b5061068961068461090f565b610981565b15610368565b634e487b7160e01b600052601260045260246000fd5b60405162461bcd60e51b815260206004820152601860248201527f496e76616c6964206465706c6f796572206164647265737300000000000000006044820152606490fd5b60405162461bcd60e51b815260206004820152601660248201527f496e76616c6964206b65657065722061646472657373000000000000000000006044820152606490fd5b60405162461bcd60e51b815260206004820152601e60248201527f4d65676120696e74657276616c206d75737420626520706f73697469766500006044820152606490fd5b60405162461bcd60e51b815260206004820152601960248201527f4475726174696f6e206d75737420626520706f736974697665000000000000006044820152606490fd5b60405162461bcd60e51b815260206004820152601660248201527f496e76616c696420726f757465722061646472657373000000000000000000006044820152606490fd5b60405162461bcd60e51b815260206004820152601460248201527f496e76616c69642057504c5320616464726573730000000000000000000000006044820152606490fd5b60405162461bcd60e51b815260206004820152601760248201527f496e76616c6964204d6f726269757320616464726573730000000000000000006044820152606490fd5b600190602061ffff84511693019281600201550161010c565b631e4fbdf760e01b600052600060045260246000fd5b600080fd5b601f909101601f19168101906001600160401b038211908210176104d957604052565b51906001600160a01b03821682036108b757565b60001981146104895760010190565b9190820180921161048957565b6040519060ff602b548181168452818160081c166020850152818160101c166040850152818160181c166060850152818160201c16608085015260281c1660a083015261095d60c0836108bc565b565b9060388110156104c35760051b0190565b9060068110156104c35760051b0190565b60005b60068110610993575050600190565b60ff61099f8284610970565b51166109ad57600101610984565b5050600090565b60c06040516109c382826108bc565b369037600560005b8181106109d757505090565b90919260005b82840384811161048957811015610a625760ff6109fa8287610970565b511690600181018082116104895760019260ff610a17838a610970565b511610610a26575b50016109dd565b6000610a5060ff610a37848b610970565b51169260ff610a46868c610970565b5116925089610970565b52610a5b8288610970565b5238610a1f565b509291906001016109cb56fe6080604052600436101561001257600080fd5b6000803560e01c806306a74666146135635780630aadbd1614611d3a57806315f23063146134f957806319decb41146134d05780631b48959f146108a95780631e820325146133fb578063235189681461073f5780632361a26d1461301357806325131c5b1461300e5780632a9924c614612f235780632f93e0c8146106dc5780633119ca4214612fe9578063322d61c114612fcb578063380dd90114612fad5780633843623014612f8f57806343d284a414612f285780634464e5cf14612f2357806346ea19d514612f055780634992c95814612ec95780634af6c47a14612ea65780634c6ed76414612e885780634f6d38d014612e6a5780634fdeff1014612a90578063549de0ce14612a725780635600526614611d1c5780635d60c7be14612a495780635fce253d146125b15780636031a52f14612593578063625a7ee51461069557806364ce342b14612575578063671eea011461252a578063677bd9ff14612312578063685d25311461222d5780636ae4c9c114610d1a5780636e7bae8c14611f215780636ff55eaf14611ed8578063715018a614611e905780637169c71114611e2457806373f9afd514611de8578063747dff4214611d3f5780637587f06714611d3a5780637f81490e14611d1c57806380e8bfab1461184957806381ebdc0f146118045780638458a00c146117e8578063856938601461179c578063871d729f1461177e578063873f6f9e146117325780638c65c81f1461168b5780638d2cdc34146114495780638d949f20146113df5780638da5cb5b146113b85780638f1327c01461107f57806393a322b614610ea357806396f5acbe14610e795780639bfd649414610d7a5780639cbe5efd14610d5c5780639df5066a14610d38578063a28afcfa14610d1a578063a2e0ecda14610a8b578063aaed56f914610a59578063adf59956146109ff578063aec9b6f4146109ba578063b333149e14610677578063b3b08fa314610950578063b4bb477d146108ea578063b9981bb9146108c7578063bc5fff2e146108a9578063c07ce892146107fb578063c2a2321614610761578063c41d287414610744578063c7d7f3f11461073f578063d040f7ca146106fa578063d04b637d146106dc578063d2f9892b14610695578063d418bae214610677578063d44dad2914610659578063dcbad98f1461063b578063dd8ab8f91461061f578063ddfaf5c5146105f7578063e9337b4b14610559578063e941abfa14610520578063ed9c7d8d14610503578063f2fde38b1461048f578063f563724d14610465578063f7cb789a14610447578063fab14e8e1461042b578063fccc28131461040e5763fea9b572146103f057600080fd5b3461040b578060031936011261040b57602060405160378152f35b80fd5b503461040b578060031936011261040b57602060405161dead8152f35b503461040b578060031936011261040b57602060405160068152f35b503461040b578060031936011261040b576020600a54604051908152f35b503461040b57602036600319011261040b5760406020916004358152601483522054604051908152f35b503461040b57602036600319011261040b576104a9613670565b6104b1613e4b565b6001600160a01b031680156104ef5781546001600160a01b03198116821783556001600160a01b03166000805160206159388339815191528380a380f35b631e4fbdf760e01b82526004829052602482fd5b503461040b578060031936011261040b576020604051612b5c8152f35b503461040b57602036600319011261040b576020906040906001600160a01b03610548613670565b168152602683522054604051908152f35b503461040b57602036600319011261040b57600435610576613e4b565b80156105b65760407ff778ba9bcbe1fdf3ea184e76a442294f5f7e51b32d06ad176168d3b5ac8df55b91600a549080600a5582519182526020820152a180f35b60405162461bcd60e51b81526020600482015260196024820152784475726174696f6e206d75737420626520706f73697469766560381b6044820152606490fd5b503461040b578060031936011261040b57602060ff600d541661061d6040518092613607565bf35b503461040b578060031936011261040b57602060405160018152f35b503461040b578060031936011261040b576020601554604051908152f35b503461040b578060031936011261040b576020602d54604051908152f35b503461040b578060031936011261040b576020601d54604051908152f35b503461040b57604036600319011261040b5760406106b161365a565b9160043581526024602052209060018060a01b03166000526020526020604060002054604051908152f35b503461040b578060031936011261040b576020601c54604051908152f35b503461040b578060031936011261040b576040517f00000000000000000000000000000000000000000000000000000000000000006001600160a01b03168152602090f35b61359d565b503461040b578060031936011261040b5760206040516127108152f35b503461040b57602036600319011261040b5760043561077e613e4b565b80156107be5760407fdccd5e5a7174d9072e757e4a3d08cae5ad16b7c3d60bf2ab73abb6a0495d287a91601954908060195582519182526020820152a180f35b60405162461bcd60e51b815260206004820152601560248201527405468726573686f6c64206d757374206265203e203605c1b6044820152606490fd5b503461040b578060031936011261040b5760c0908160405161081d8282613818565b369037604051600282825b60068210610893575050509061083e8383613818565b6040519190825b6006821061087d5761016084611b58878201526103e860e08201526103e86101008201526101f46101208201526101f4610140820152f35b6020806001928551815201930191019091610845565b6001602081928554815201930191019091610828565b503461040b578060031936011261040b576020601054604051908152f35b503461040b578060031936011261040b57602060ff602a54166040519015158152f35b503461040b57606036600319011261040b5761090461365a565b906044359160043582526021602052604082209060018060a01b0316600052602052604060002090815483101561040b576020610941848461369c565b90549060031b1c604051908152f35b503461040b57606036600319011261040b5761099a6109a86109b6610983610976613670565b6044359060243590613cfd565b919390604051958695606087526060870190613727565b908582036020870152613727565b908382036040850152613727565b0390f35b503461040b578060031936011261040b576040517f00000000000000000000000000000000000000000000000000000000000000006001600160a01b03168152602090f35b503461040b57602036600319011261040b576001600160a01b03610a21613670565b169081815260276020526109b6604082209260408454936002600187015496015492815260266020522054906040519485948561375b565b503461040b57602036600319011261040b576004356006811015610a87576020915060020154604051908152f35b5080fd5b503461040b57602036600319011261040b576004356001600160401b038111610a8757610abc90369060040161362a565b610ac4613e74565b610acc613e96565b610d05575b60ff600d54166002811015610cf157610aea901561393f565b610af581151561397c565b610b0260648211156139c5565b610b0e600e548261392c565b9182158015610b6a575b50610b289082600b549133615143565b600b549160405191825283602083015260408201527f89c44c51a219608fe582e36358eeb570c24ec81f0e3d91398702ecd5a00adfee60603392a36001805580f35b7f0000000000000000000000000000000000000000000000000000000000000000610b9785303384614f9d565b6101f485028581046101f414831715610cdd576127109004916103e88602908682046103e8141715610cdd57610b289392610c13929091612710900490610beb82610be681818781818f613b67565b613b67565b9280151580610cc0575b610ca1575b505080151580610c93575b610c7e575b50601554613894565b601555610c2284601654613894565b601655610c3184601c54613894565b601c55610c4083601b54613894565b601b55338552602760205260408520610c5a848254613894565b9055338552602760205260016040862001610c76858254613894565b905590610b18565b610c8a90601054613894565b60105538610c0a565b610c9c82615534565b610c05565b600954610cb9926001600160a01b039091169061546c565b3880610bfa565b600854610cd89083906001600160a01b03168561546c565b610bf5565b634e487b7160e01b87526011600452602487fd5b634e487b7160e01b84526021600452602484fd5b610d0d613ebf565b610d15614c75565b610ad1565b503461040b578060031936011261040b576020601b54604051908152f35b503461040b578060031936011261040b576020604051683635c9adc5dea000008152f35b503461040b578060031936011261040b576020600b54604051908152f35b503461040b57602036600319011261040b57806004358152601f60205260408120916006830154916007840154611b588402908415858304611b5814811715610e65576103e88602908682046103e8141715610e655761271060099104939601955b60068110610e11575060c0955090612710916040519586526020860152046040840152806060840152608083015260a0820152f35b610e1b8188613ce9565b506001610e31600383015460028401549061392c565b910154818111610e46575b5050600101610ddc565b95610e57610e5d9260019498613b67565b90613894565b949038610e3c565b634e487b7160e01b84526011600452602484fd5b503461040b57602036600319011261040b5760406020916004358152601383522054604051908152f35b503461040b57602036600319011261040b57806004358152601f602052604081209160e09160405192610ed68185613818565b60068452601f19810180366020870137604051610ef38382613818565b600681528136602083013760405190610f0c8483613818565b600682528236602084013760405192610f258585613818565b60068452366020850137600688015497611b588902988015818b04611b581481171561106b576103e882029182046103e8141715610cdd5761271090049590600901815b60068310610fe05750505061271092610fb9610100989993610fab610fc794610f9d6040519d8d8f9e8f9081520190613727565b8c810360208e015290613727565b908a820360408c0152613727565b9088820360608a0152613727565b9460808701520460a08501528160c08501528301520390f35b9091976110596001918a6110348161102b8f60038391611000838d613ce9565b50906110118b8301549889926138d4565b528c61102360028301549485926138d4565b52015461392c565b9182918b6138d4565b52808211156110625761104691613b67565b905b816110538d8b6138d4565b52613894565b98019190610f69565b50508390611048565b634e487b7160e01b88526011600452602488fd5b503461040b57602036600319011261040b576040519061109e826137e1565b80825280602083015280604083015280606083015280608083015260c0906040516110c98382613818565b8236823760a084015280828401528060e084015280610100840152604051926110f28385613818565b815b8381106113845750610180818561012085940152826101408201528261016082015201526004358152601f602052604081209160405190611134826137e1565b83548252600184015493602083019485526002810154936040840194855260038201549260608501938452600483015490608086019182526040519061117d8260058701613ca9565b6111878183613818565b60a08701918252600685015481880190815260078601549160e089019283526008870154936101008a01948552604051956111c1876137fd565b600989019c88885b6006821061132f5750508b9c9d506101208c0197885260278a0154996101408d019a8b52602801549a6101608d019b60ff811615158d5260081c60ff169c610180019c600281101561131b578d9b99989796959493929f9d9e9c9a9e526040519e8f9d8e916020835261026083019e5160208401525160408301525190606001525160808d01525160a08c015251908a01611263916136fc565b51610180890152516101a0880152516101c0870152516102406101e087015295610320860194905b600681106112b85750506109b6939495505161020086015251151561022085015251610240840190613607565b91939550919360208061130760019361025f198c820301875260a060808c5180518452858101518685015260408101516040850152606081015160608501520151918160808201520190613727565b98019301910190879593919694929661128b565b634e487b7160e01b8b52602160045260248bfd5b8f6040519061133d826137b0565b8054825260018101546020830152600281015460408301526003810154606083015260040161136b90613c0c565b608082015281526020019e60050190600101909e6111c9565b602090604051611393816137b0565b84815284838201528460408201528460608201526060608082015281870152016110f4565b503461040b578060031936011261040b57546040516001600160a01b039091168152602090f35b503461040b578060031936011261040b576113f8613e74565b601a54601954116114125761140b6154a1565b6001805580f35b60405162461bcd60e51b815260206004820152600f60248201526e10995b1bddc81d1a1c995cda1bdb19608a1b6044820152606490fd5b503461040b57604036600319011261040b5760043561146661365a565b9080835260216020526040832060018060a01b03831660005260205261148f6040600020613c0c565b9283519161149c8361383b565b926114aa6040519485613818565b8084526114b9601f199161383b565b01825b81811061163f5750508152602080526040812080546001600160a01b03909416948290815b86811080611635575b156115ae57876114fa82866136e0565b50546001600160a01b031614611519575b61151490613c59565b6114e1565b936115a66115149161152b87876136e0565b5060ff60036040519261153d846137b0565b80546001600160a01b0316845260405161155a8160018401613ca9565b61156560c082613818565b60208501526002810154604085015201548181161515606084015260081c1615156080820152611595828a6138d4565b526115a081896138d4565b50613c59565b94905061150b565b8583604051918291602083016020845282518091526020604085019301915b8181106115db575050500390f35b91935091602061014060019260808751858060a01b03815116835261160685820151868501906136fc565b604081015160e084015260608101511515610100840152015115156101208201520194019101918493926115cd565b50815185106114ea565b602090604097969751611651816137b0565b85815260405160c06116638183613818565b36823783820152856040820152856060820152856080820152828288010152019594956114bc565b503461040b57602036600319011261040b576040610160916004358152601f6020522061061d81549160018101549060028101546003820154600483015460068401549060078501549260088601549460286027880154970154976040519a8b5260208b015260408a01526060890152608088015260a087015260c086015260e085015261010084015260ff8116151561012084015260ff61014084019160081c16613607565b503461040b57604036600319011261040b57604061174e61365a565b9160043581526025602052209060018060a01b0316600052602052602060ff604060002054166040519015158152f35b503461040b578060031936011261040b576020600f54604051908152f35b503461040b57604036600319011261040b5760406117b861365a565b9160043581526022602052209060018060a01b0316600052602052602060ff604060002054166040519015158152f35b503461040b578060031936011261040b57602060405160648152f35b503461040b578060031936011261040b576040517f00000000000000000000000000000000000000000000000000000000000000006001600160a01b03168152602090f35b503461040b57604036600319011261040b576004356001600160401b038111610a875761187a90369060040161362a565b60243591611886613e74565b61188e613e96565b611d07575b60ff600d54166002811015611cf3576118ac901561393f565b6118b782151561397c565b6118c460648311156139c5565b6127108311611cb5576118d9600e548361392c565b9283159081156118f5575b5050610b289082600b549133615143565b612b5c850291858304612b5c141715611ca15761271001908161271011611ca1576127109182611925920461392c565b0490604051611935606082613818565b6002815260403660208301377f00000000000000000000000000000000000000000000000000000000000000006001600160a01b03169081611976826138b7565b527f00000000000000000000000000000000000000000000000000000000000000006001600160a01b031690816119ac826138c4565b526040516307c0329d60e21b81527f00000000000000000000000000000000000000000000000000000000000000006001600160a01b0316958990829081906119fa90869060048401613ae0565b0381895afa8015611c4f57611a16918a91611c87575b506138b7565b5192611a2484303384614f9d565b6020604051809263095ea7b360e01b8252818c81611a468a8d60048401613b12565b03925af18015611c4f57611c5a575b506040516370a0823160e01b815230600482015294602086602481865afa958615611c4f578996611c1b575b5061012c420191824211611c0757918991611ab79493836040518097819582946338ed173960e01b845230908c60048601613b2d565b03925af1908115611bfc57602492602092611bdc575b506040516370a0823160e01b815230600482015292839182905afa908115611bd1578791611b98575b50610b2893611b0491613b67565b611b1086821015613b74565b611b1c81601554613894565b601555611b2b81601c54613894565b601c55611b3a85601b54613894565b601b55338752602760205260408720611b54868254613894565b9055338752602760205260016040882001611b70828254613894565b9055604051918252602082015260008051602061595883398151915260403392a290386118e4565b90506020813d602011611bc9575b81611bb360209383613818565b81010312611bc45751610b28611af6565b600080fd5b3d9150611ba6565b6040513d89823e3d90fd5b611bf7903d808c833e611bef8183613818565b810190613a2a565b611acd565b6040513d8a823e3d90fd5b634e487b7160e01b8a52601160045260248afd5b9095506020813d602011611c47575b81611c3760209383613818565b81010312611bc457519438611a81565b3d9150611c2a565b6040513d8b823e3d90fd5b611c7b9060203d602011611c80575b611c738183613818565b810190613afa565b611a55565b503d611c69565b611c9b91503d808c833e611bef8183613818565b38611a10565b634e487b7160e01b86526011600452602486fd5b60405162461bcd60e51b815260206004820152601660248201527545787472612062756666657220746f6f206c6172676560501b6044820152606490fd5b634e487b7160e01b85526021600452602485fd5b611d0f613ebf565b611d17614c75565b611893565b503461040b578060031936011261040b576020601e54604051908152f35b613580565b503461040b578060031936011261040b576101209061061d600b5491600c5490611d6b600a5483613894565b9060155490601754868252602360205260408220549184421015600014611dd757925b611d9a60125489613c02565b159460ff600d541696604051998a5260208a015260408901526060880152608087015260a086015260c085015260e0840152610100830190613607565b50611de24285613b67565b92611d8e565b503461040b57602036600319011261040b5760409081600435918281526013602052818120549281526014602052205482519182526020820152f35b503461040b57611e3336613686565b91908152602080526040812090815483101561040b576080611e5584846136e0565b5060ff60018060a01b0382541691600360028201549101549060405193845260208401528181161515604084015260081c1615156060820152f35b503461040b578060031936011261040b57611ea9613e4b565b80546001600160a01b03198116825581906001600160a01b03166000805160206159388339815191528280a380f35b503461040b57602036600319011261040b576040906001600160a01b03611efd613670565b16815260276020522080546109b660026001840154930154604051938493846136ca565b503461040b57602036600319011261040b576004356001600160401b038111610a8757611f529036906004016135ba565b611f5d929192613e74565b80156121e857603281116121a95733928291825b818110611fba5784611fb085611fa881337f000000000000000000000000000000000000000000000000000000000000000061546c565b601d54613894565b601d556001805580f35b611fc5818385613884565b3590818652601f60205260ff602860408820015460081c166002811015612195576001611ff29114613bc0565b818652602560205260ff60408088206000908a8252602052205416612153578186526024602052604080872060009089825260205220541561210e57816001928752602460205261207460408089206000908b825260205220548097838a5260256020526040808b206000908d8252602052208660ff19825416179055613894565b601e54909690818082106121065761208b91613b67565b601e553388526026602052604088205481116121005733885260266020526120b78160408a2054613b67565b338952602660205260408920553388526027602052600260408920016120de828254613894565b905560405190815260008051602061597883398151915260203392a301611f71565b876120b7565b50508761208b565b60405162461bcd60e51b815260206004820152601f60248201527f4e6f7468696e6720746f20636c61696d20666f72207468697320726f756e64006044820152606490fd5b60405162461bcd60e51b815260206004820152601a602482015279105b1c9958591e4818db185a5b5959081d1a1a5cc81c9bdd5b9960321b6044820152606490fd5b634e487b7160e01b87526021600452602487fd5b60405162461bcd60e51b81526020600482015260176024820152764d617820353020726f756e64732070657220636c61696d60481b6044820152606490fd5b60405162461bcd60e51b815260206004820152601f60248201527f4d7573742073706563696679206174206c65617374206f6e6520726f756e64006044820152606490fd5b503461040b5761223c36613686565b612244613e4b565b81156122cd57801561228b57816040917fd881af4269dca5d92eca8711da0c5c270375b14f44c737bd74c5bd0785708cc493600e5580600f5582519182526020820152a180f35b60405162461bcd60e51b815260206004820152601a602482015279504c53207072696365206d75737420626520706f73697469766560301b6044820152606490fd5b60405162461bcd60e51b815260206004820152601e60248201527f4d6f7262697573207072696365206d75737420626520706f73697469766500006044820152606490fd5b503461040b57602036600319011261040b5760043561232f613e74565b808252601f60205260ff602860408420015460081c16600281101561251657600161235a9114613bc0565b808252602560209081526040808420336000908152925290205460ff166124df578082526024602090815260408084203360009081529252902054156124a7578082526024602090815260408084203360008181529184528282205485875260258552838720828452909452919020805460ff191660011790556124009082907f000000000000000000000000000000000000000000000000000000000000000061546c565b601e548180821061249f5761241491613b67565b601e5561242381601d54613894565b601d55338352602760205260026040842001612440828254613894565b905533835260266020526040832054811161249957338352602660205261246b816040852054613b67565b3384526026602052604084205560405190815260008051602061597883398151915260203392a36001805580f35b8261246b565b505082612414565b60405162461bcd60e51b815260206004820152601060248201526f4e6f7468696e6720746f20636c61696d60801b6044820152606490fd5b60405162461bcd60e51b815260206004820152600f60248201526e105b1c9958591e4818db185a5b5959608a1b6044820152606490fd5b634e487b7160e01b83526021600452602483fd5b503461040b5761253936613686565b9190815260236020526040812090815483101561040b57602061255c848461369c565b905460405160039290921b1c6001600160a01b03168152f35b503461040b578060031936011261040b576020601154604051908152f35b503461040b578060031936011261040b576020601854604051908152f35b50602036600319011261040b576004356001600160401b038111610a87576125dd90369060040161362a565b6125e5613e74565b6125ed613e96565b612a34575b60ff600d54166002811015610cf15761260b901561393f565b61261681151561397c565b61262360648211156139c5565b61262f600e548261392c565b91612b5c830290838204612b5c1484151715612a205760405191612654606084613818565b6002835260403660208501377f00000000000000000000000000000000000000000000000000000000000000006001600160a01b03169283612695826138b7565b527f00000000000000000000000000000000000000000000000000000000000000006001600160a01b031690816126cb826138c4565b526040516307c0329d60e21b81527f00000000000000000000000000000000000000000000000000000000000000006001600160a01b03169389908290819061271e908690612710900460048401613ae0565b0381875afa8015611c4f57612739918a91611c8757506138b7565b51948534106129de57803b156129da57604051630d0e30db60e41b815289816004818a865af180156129cf576129bb575b506020604051809263095ea7b360e01b8252818c8161278d8c8b60048401613b12565b03925af18015611c4f5761299e575b506040516370a0823160e01b815230600482015292602084602481865afa938415611c4f57899461296a575b5061012c420191824211611c07579189918783612800979695604051988995869485936338ed173960e01b8552309160048601613b2d565b03925af1908115611bfc57602493602092612952575b506040516370a0823160e01b815230600482015293849182905afa8015611bd157879061291e575b6128489250613b67565b9161285585841015613b74565b8034116128ed575b8261286d610b2894601554613894565b60155561287c81601c54613894565b601c5561288b85601b54613894565b601b553387526027602052604087206128a5868254613894565b90553387526027602052600160408820016128c1828254613894565b9055604051918252602082015260008051602061595883398151915260403392a282600b549133615143565b858080806128fb8534613b67565b818115612915575b3390f161285d576040513d87823e3d90fd5b506108fc612903565b506020823d60201161294a575b8161293860209383613818565b81010312611bc457612848915161283e565b3d915061292b565b612965903d808c833e611bef8183613818565b612816565b9093506020813d602011612996575b8161298660209383613818565b81010312611bc4575192386127c8565b3d9150612979565b6129b69060203d602011611c8057611c738183613818565b61279c565b896129c8919a929a613818565b973861276a565b6040513d8c823e3d90fd5b8880fd5b60405162461bcd60e51b815260206004820152601a602482015279141314c818995b1bddc81cddd85c081c995c5d5a5c995b595b9d60321b6044820152606490fd5b634e487b7160e01b85526011600452602485fd5b612a3c613ebf565b612a44614c75565b6125f2565b503461040b578060031936011261040b576009546040516001600160a01b039091168152602090f35b503461040b578060031936011261040b576020601754604051908152f35b503461040b57602036600319011261040b576004356001600160401b038111610a8757612ac190369060040161362a565b612ac9613e74565b612ad1613e96565b612e55575b60ff600d54166002811015610cf157612aef901561393f565b612afa81151561397c565b612b0760648211156139c5565b612b13600e548261392c565b918215908115612b2e575b610b28915082600b549133615143565b612b5c840291848304612b5c141715612a2057604051612b4f606082613818565b6002815260403660208301377f00000000000000000000000000000000000000000000000000000000000000006001600160a01b03169081612b90826138b7565b527f00000000000000000000000000000000000000000000000000000000000000006001600160a01b03169081612bc6826138c4565b526040516307c0329d60e21b81527f00000000000000000000000000000000000000000000000000000000000000006001600160a01b031695899082908190612c19908690612710900460048401613ae0565b0381895afa8015611c4f57612c34918a91611c8757506138b7565b5192612c4284303384614f9d565b6020604051809263095ea7b360e01b8252818c81612c648a8d60048401613b12565b03925af18015611c4f57612e38575b506040516370a0823160e01b815230600482015294602086602481865afa958615611c4f578996612e04575b5061012c420191824211611c0757918991612cd59493836040518097819582946338ed173960e01b845230908c60048601613b2d565b03925af1908115611bfc57602492602092612dec575b506040516370a0823160e01b815230600482015292839182905afa908115611bd1578791612db4575b50610b2893612d2291613b67565b612d2e86821015613b74565b612d3a81601554613894565b601555612d4981601c54613894565b601c55612d5885601b54613894565b601b55338752602760205260408720612d72868254613894565b9055338752602760205260016040882001612d8e828254613894565b9055604051918252602082015260008051602061595883398151915260403392a2612b1e565b90506020813d602011612de4575b81612dcf60209383613818565b81010312612de05751610b28612d14565b8680fd5b3d9150612dc2565b612dff903d808c833e611bef8183613818565b612ceb565b9095506020813d602011612e30575b81612e2060209383613818565b810103126129da57519438612c9f565b3d9150612e13565b612e509060203d602011611c8057611c738183613818565b612c73565b612e5d613ebf565b612e65614c75565b612ad6565b503461040b578060031936011261040b576020601954604051908152f35b503461040b578060031936011261040b576020600e54604051908152f35b503461040b578060031936011261040b57602060ff602c54166040519015158152f35b503461040b57602036600319011261040b576004356006811015610a87576020915060ff8160051c602b015460f86040519360031b161c168152f35b503461040b578060031936011261040b576020601a54604051908152f35b6135ea565b503461040b578060031936011261040b5760e09061061d600b54916015549060406017549185815260236020522054601154906010549260ff600d541694604051978852602088015260408701526060860152608085015260a084015260c0830190613607565b503461040b578060031936011261040b576020601254604051908152f35b503461040b578060031936011261040b576020600c54604051908152f35b503461040b578060031936011261040b576020601654604051908152f35b503461040b578060031936011261040b57604060115460105482519182526020820152f35b613563565b503461040b57604036600319011261040b576004356001600160401b038111610a87576130449036906004016135ba565b6024356001600160401b0381116133f7576130639036906004016135ba565b909161306d613e74565b613075613e96565b6133e2575b613085811515613777565b8181036133ab5784938461309883613852565b946130a284613852565b948891600b54600e54925b8785106132815750505050506130c4811515613777565b6101f4811161324957856131c4575b50855b82811061313c57505050906131297fbe50c24f28f34ee5642d05a6451b5e44fa60ec0c67182921dae227c02a2f2c6c9261311b60405193606085526060850190613727565b908382036020850152613727565b9260408201528033930390a26001805580f35b80613149600192876138d4565b5161315482876138d4565b519061316c816131658589896138e8565b9033615143565b600b548103613198575061318661318e91600e549061392c565b601554613894565b6015555b016130d6565b906131a690600e549061392c565b90895260136020526131bd60408a20918254613894565b9055613192565b6131f08630337f0000000000000000000000000000000000000000000000000000000000000000614f9d565b6131fc86601c54613894565b601c5561320b81601b54613894565b601b55338752602760205261322560408820918254613894565b9055338652602760205260016040872001613241868254613894565b9055386130d3565b60405162461bcd60e51b815260206004820152601060248201526f546f6f206d616e79207469636b65747360801b6044820152606490fd5b90919293996132918b8386613884565b3560648111613373576132a49084613894565b6132ae8c8c6138d4565b526132ba8b89896138e8565b809791501561333957606487116132f857600191610e57876132e78f6132ed958f6110538e9384926138d4565b9961392c565b9a01939291906130ad565b60405162461bcd60e51b815260206004820152601960248201527804d617820313030207469636b657473207065722067726f757603c1b6044820152606490fd5b60405162461bcd60e51b81526020600482015260126024820152710456d707479207469636b65742067726f75760741b6044820152606490fd5b60405162461bcd60e51b815260206004820152601060248201526f4f666673657420746f6f206c6172676560801b6044820152606490fd5b60405162461bcd60e51b815260206004820152600f60248201526e098cadccee8d040dad2e6dac2e8c6d608b1b6044820152606490fd5b6133ea613ebf565b6133f2614c75565b61307a565b8380fd5b503461040b578060031936011261040b57613414613e74565b61341c613e96565b156134975760ff600d54166002811015613483576134445761343c613ebf565b61140b614c75565b60405162461bcd60e51b8152602060048201526017602482015276149bdd5b9908185b1c9958591e48199a5b985b1a5e9959604a1b6044820152606490fd5b634e487b7160e01b82526021600452602482fd5b60405162461bcd60e51b8152602060048201526011602482015270149bdd5b99081b9bdd08195e1c1a5c9959607a1b6044820152606490fd5b503461040b578060031936011261040b576008546040516001600160a01b039091168152602090f35b503461040b57602036600319011261040b57600435613516613e4b565b80156135225760125580f35b60405162461bcd60e51b8152602060048201526019602482015278496e74657276616c206d75737420626520706f73697469766560381b6044820152606490fd5b34611bc4576000366003190112611bc45760206040516101f48152f35b34611bc4576000366003190112611bc45760206040516103e88152f35b34611bc4576000366003190112611bc4576020604051611b588152f35b9181601f84011215611bc4578235916001600160401b038311611bc4576020808501948460051b010111611bc457565b34611bc4576000366003190112611bc45760206040516105dc8152f35b9060028210156136145752565b634e487b7160e01b600052602160045260246000fd5b9181601f84011215611bc4578235916001600160401b038311611bc45760208085019460c08502010111611bc457565b602435906001600160a01b0382168203611bc457565b600435906001600160a01b0382168203611bc457565b6040906003190112611bc4576004359060243590565b80548210156136b45760005260206000200190600090565b634e487b7160e01b600052603260045260246000fd5b6040919493926060820195825260208201520152565b80548210156136b45760005260206000209060021b0190600090565b906000905b6006821061370e57505050565b60208060019260ff865116815201930191019091613701565b906020808351928381520192019060005b8181106137455750505090565b8251845260209384019390920191600101613738565b9094939260609260808301968352602083015260408201520152565b1561377e57565b60405162461bcd60e51b815260206004820152600a6024820152694e6f207469636b65747360b01b6044820152606490fd5b60a081019081106001600160401b038211176137cb57604052565b634e487b7160e01b600052604160045260246000fd5b6101a081019081106001600160401b038211176137cb57604052565b60c081019081106001600160401b038211176137cb57604052565b601f909101601f19168101906001600160401b038211908210176137cb57604052565b6001600160401b0381116137cb5760051b60200190565b9061385c8261383b565b6138696040519182613818565b828152809261387a601f199161383b565b0190602036910137565b91908110156136b45760051b0190565b919082018092116138a157565b634e487b7160e01b600052601160045260246000fd5b8051156136b45760200190565b8051600110156136b45760400190565b80518210156136b45760209160051b010190565b91908110156136b45760051b81013590601e1981360301821215611bc45701803591906001600160401b038311611bc45760200160c0830236038113611bc4579190565b818102929181159184041417156138a157565b1561394657565b60405162461bcd60e51b815260206004820152600e60248201526d2937bab732103737ba1037b832b760911b6044820152606490fd5b1561398357565b60405162461bcd60e51b815260206004820152601a602482015279135d5cdd08189d5e48185d081b19585cdd080c481d1a58dad95d60321b6044820152606490fd5b156139cc57565b60405162461bcd60e51b815260206004820152601660248201527509ac2f04062606040e8d2c6d6cae8e640e0cae440e8f60531b6044820152606490fd5b8115613a14570490565b634e487b7160e01b600052601260045260246000fd5b602081830312611bc4578051906001600160401b038211611bc457019080601f83011215611bc4578151613a5d8161383b565b92613a6b6040519485613818565b81845260208085019260051b820101928311611bc457602001905b828210613a935750505090565b8151815260209182019101613a86565b906020808351928381520192019060005b818110613ac15750505090565b82516001600160a01b0316845260209384019390920191600101613ab4565b604090613af7939281528160208201520190613aa3565b90565b90816020910312611bc457518015158103611bc45790565b6001600160a01b039091168152602081019190915260400190565b90608092613b53919695949683526000602084015260a0604084015260a0830190613aa3565b6001600160a01b0390951660608201520152565b919082039182116138a157565b15613b7b57565b60405162461bcd60e51b815260206004820152601f60248201527f496e73756666696369656e74204d6f72626975732061667465722073776170006044820152606490fd5b15613bc757565b60405162461bcd60e51b8152602060048201526013602482015272149bdd5b99081b9bdd08199a5b985b1a5e9959606a1b6044820152606490fd5b8115613a14570690565b906040519182815491828252602082019060005260206000209260005b818110613c40575050613c3e92500383613818565b565b8454835260019485019487945060209093019201613c29565b60001981146138a15760010190565b60a060ff602b548181168452818160081c166020850152818160101c166040850152818160181c166060850152818160201c16608085015260281c16910152565b60ff60a091548181168452818160081c166020850152818160101c166040850152818160181c166060850152818160201c16608085015260281c16910152565b9060068110156136b4576005020190600090565b6001600160a01b0316600081815260286020526040902054909281831015613dfa57613d3d91613d2e849283613894565b90808211613df2575b50613b67565b92613d4784613852565b93613d5181613852565b93613d5b82613852565b9360005b838110613d6c5750505050565b600190836000526028602052613d906040600020613d8a8386613894565b9061369c565b90549060031b1c80613da2838c6138d4565b528060005260216020526040806000206000908782526020522054613dc7838b6138d4565b5260005260246020526040806000206000908682526020522054613deb82896138d4565b5201613d5f565b905038613d37565b50505050602060405191613e0e8284613818565b60008352600036813760405192613e258385613818565b60008452600036813760405192613e3c8185613818565b60008452506000368137929190565b6000546001600160a01b03163303613e5f57565b63118cdaa760e01b6000523360045260246000fd5b600260015414613e85576002600155565b633ee5aeb560e01b60005260046000fd5b613ea5600c54600a5490613894565b42101590565b9060ff809160031b9316831b921b19161790565b60ff600d5416600281101561361457613ed8901561393f565b600b546000818152601f60208181526040808420858155600c54600182015542600282015543600382018190556004820155601654600682015560178054600783015560238452919094205492909152600890920155548061425e5750604051613f41816137fd565b6000815260006020820152600060408201526000606082015260006080820152600060a082015281600052601f602052600560406000200160009160005b6006811061423f57505055604051613f96816137fd565b602090604051613fa68382613818565b60008152600036813760405190613fbc826137b0565b60018252600084830152600060408301526000606083015260808201528152604051613fe88382613818565b60008152600036813760405190613ffe826137b0565b60028252600084830152600060408301526000606083015260808201528282015260405161402c8382613818565b60008152600036813760405190614042826137b0565b600382526000848301526000604083015260006060830152608082015260408201526040516140718382613818565b60008152600036813760405190614087826137b0565b600482526000848301526000604083015260006060830152608082015260608201526040516140b68382613818565b600081526000368137604051906140cc826137b0565b600582526000848301526000604083015260006060830152608082015260808201526040516140fb8382613818565b60008152600036813760405190614111826137b0565b600682526000848301526000604083015260006060830152608082015260a082015282600052601f82526009604060002001906000905b60068210614222575050506141979082600052601f815260006027604082200155601f61417760125485613c02565b1591846000525260286040600020019060ff801983541691151516179055565b6000818152601f60205260409081902060288101805461ff001916610100179055600d805460ff1916600117905560068101546007820154600883015493517fa9cc37513915a78ee814de52f7f030c2a34453b7adfeeefb714b19d96a9b027f9461012094919390929161420f908590600501613ca9565b60c084015260e0830152610100820152a2565b6005848261423360019451876155a5565b01930191019091614148565b909260206142556001928460ff88511691613eab565b94019101613f7f565b60c0908160405161426f8282613818565b3690374315614c6d5760001943014381116138a157905b6015549060405191602083019340845243406040840152856060840152608083015260a082015242838201523260601b60e082015260d481526142ca60f482613818565b519020604051906142db8383613818565b82368337604051906107006142f08184613818565b3683376000915b60068310614b765750505061430b9061582a565b9082600052601f6020526005604060002001829060009160005b60068110614b57575050556040518390836000825b60068210614b3a5750505060e07f2e6256eccb4940952826b68d4bbc81c53f3abf38441cd9cc245407caf206b20f914385820152a28260005260208052604060002060e0906040519261438d8385613818565b823685376040519261439f8185613818565b60005b818110614b2c5750508154909160015b6006811115614aff57506000905b82821061497157505050506001905b60068211156146175750505081600052601f602052600560406000200160009160005b600681106145f8575050556016546000828152601f6020818152604080842060068101959095556017546007860155602382529092205491526008820155818155600c546001820155426002820155436003909101556012546144559082613c02565b156145ea575b8060005260208052604060002060005b6006811061448d57505080600052601f60205260006027604082200155614197565b82600052601f6020526144a7816009604060002001613ce9565b5060028101546144bb575b5060010161446b565b909291600092600483015b80548510156145dc576144d9858261369c565b90549060031b1c9560005b84548110156145d0578760026144fa83886136e0565b5001541461450a576001016144e4565b6001929691975060ff600361451f83886136e0565b50015460081c1615614547575061453c6003860154601054613894565b6010555b01936144c6565b6145a760038701805486600052602460205261458d60408060002061456c878c6136e0565b505460a08a901b8a9003166000908152602091909152208054909290613894565b905561459c8154601e54613894565b601e555491866136e0565b50838060a01b0390541660005260266020526145c96040600020918254613894565b9055614540565b50955093600190614540565b5093909250905060016144b2565b6145f381615663565b61445b565b9092602061460e6001928460ff88511691613eab565b940191016143f2565b909194929360155490600019840184811192836138a15760068210156136b4576146496127109160018801549061392c565b0496614655868a615594565b511561479a5761466e614668878b615594565b51613852565b9660005b61467c888c615594565b518110156146ad578061469b6001926146958b8b615594565b516138d4565b516146a6828c6138d4565b5201614672565b509895929793809291976146c18589615594565b51906146d76146d0878b615594565b5188613a0a565b604051926146e4846137b0565b87845288602085015260408401526060830152608082015289600052601f6020526009604060002001916138a15761471f8361472593613ce9565b90615654565b61472f8387615594565b519388600052601f6020526009604060002001926138a1576147949461478c600361477c7fdb21cff4ba65516b5b7e172f3a62c1edcf1d5097aa66571946bf605a1cd870c7958d97613ce9565b500154604051938493888561375b565b0390a2613c59565b906143cf565b95979491969250611b588302831590848104611b58148217156138a15761271090046105dc8502918583046105dc1417156138a15761271089920490826147e583610be6848a613b67565b926147f283601154613894565b60115580151580614963575b8260008051602061591883398151915260a0871515968761494f575b604051908c8252602082015260606040820152601460608201527313995e1d149bdd5b9915da5b9b995c9cd41bdbdb60621b6080820152a261490e575b50506148c6575b505060405190601f60206148728185613818565b60008452600036813760405193614888856137b0565b8585526000828601526000604086015260006060860152608085015289600052526148c160096040600020019261471f83600095613ce9565b614725565b60a06000805160206159188339815191529160405190868252602082015260606040820152600b60608201526a4d6567614d6f726269757360a81b6080820152a2863861485e565b60a060008051602061591883398151915291604051908982526020820152606060408201526004606082015263213ab93760e11b6080820152a28238614857565b61495b89601054613894565b60105561481a565b61496c82615534565b6147fe565b93929681929761499661498960019b999894886136e0565b506040519b8c9101613ca9565b6149a0818b613818565b6000978892899a5b60068c1080614af5575b15614a7e57935b600681108d8d838d84614a5e575b50505050156149de576149d990613c59565b6149b9565b97939091929a898d828b600681109384614a36575b50505050614a11575b614a0590613c59565b9a9291909793976149a8565b979960ff1660ff81146138a157614a2e6001614a0592019b613c59565b9890506149fc565b60ff939450614a4a614a5293928592615583565b511693615583565b5116148d828b8d6149f3565b60ff939450614a4a614a7293928592615583565b5116118d8d838d6149c7565b9592949899909a5060ff919b50600193509695961680614aa2575b500190926143c0565b6002614aae83886136e0565b500154614ad0614abe838a615594565b51614ac9848c615594565b51906138d4565b52614aee614ae7614ae1838b615594565b51613c59565b9189615594565b5238614a99565b50600685106149b2565b614b2490614b0f84959395613852565b614b198288615594565b526115a08187615594565b9290926143b2565b6060858201526020016143a2565b825160ff168152879450602092830192600192909201910161433a565b90926020614b6d6001928460ff88511691613eab565b94019101614325565b919590939460009560009660015b15614bda575b50600095604051614bb381614ba58b8d60208401968761556e565b03601f198101835282613818565b51902096603788066001810180911161106b5760ff614bd3911691613c59565b9796614b84565b614be760ff82168661555d565b51151580614c63575b614b8a5760ff91969493989297501690614c0a828461555d565b51614c31576001614c28838294614c21858a615583565b528561555d565b520191906142f7565b60405162461bcd60e51b815260206004820152600a602482015269149391c819985a5b195960b21b6044820152606490fd5b5060648810614bf0565b600090614286565b614c80600b54613c59565b600b5542600c5560ff19600d5416600d55601154614cb0600b549182600052601360205260406000205490613894565b60155560006016556000601155806000526014602052604060002054601755600052601360205260006040812055600b54600052601460205260006040812055600b54614cff60125482613c02565b159060ff602a5416614d57575b507f1e58c8162f15acbb59be3a32ba321d4967134f85f9f56020eb61a595258b66fc6060600b5492600c5490614d44600a5483613894565b60405192835260208301526040820152a2565b60405160c0906000614d698383613818565b8236833760ff602c541680614f78575b15614e07575050614da2614ddf91614d9d60405191614d9783613c68565b82613818565b61582a565b60185460405191614db2836137b0565b3083526020830152604082015260006060820152600160808201528260005260208052604060002061503c565b614dea601854613c59565b601855601754600181018091116138a157601755602d5538614d0c565b9091506018546040516020810191428352856040830152446060830152608082015260808152614e3860a082613818565b51902060405190610700614e4c8184613818565b368337825b60068110614e6e5750505050614e69614ddf9161582a565b614da2565b929690959194879492908560015b15614ed7575b508897604051614e9c81614ba58a8a60208401968761556e565b519020956037870660018101809111614ec35760ff614ebc911691613c59565b9698614e7c565b634e487b7160e01b8b52601160045260248bfd5b614ee460ff82168961555d565b51151580614f6e575b614e825760ff91979496509894919792981690614f0a828561555d565b51614f2f576001614f28838294614f21858b615583565b528661555d565b5201614e51565b60405162461bcd60e51b8152602060048201526017602482015276149391c819985a5b1959081a1bdd5cd9481d1a58dad95d604a1b6044820152606490fd5b5060648710614eed565b50614f97604051614f8881613c68565b614f928582613818565b6158e4565b15614d79565b6040516323b872dd60e01b60208201526001600160a01b039283166024820152929091166044830152606480830193909352918152613c3e91614fe1608483613818565b6157c3565b91908110156136b45760c0020190565b6040519061500560c083613818565b819060c0810190368211611bc457915b8183106150225750505090565b823560ff81168103611bc457815260209283019201615015565b8054600160401b8110156137cb57615059916001820181556136e0565b6150f857815181546001600160a01b0319166001600160a01b03919091161781556020820151600090815b600681106150d957505081600391600160809401556040840151600282015501916150c160608201511515849060ff801983541691151516179055565b0151815461ff00191690151560081b61ff0016179055565b909160206150ef6001928460ff87511691613eab565b93019101615084565b634e487b7160e01b600052600060045260246000fd5b8054600160401b8110156137cb5761512b9160018201815561369c565b819291549060031b91821b91600019901b1916179055565b9092919260005b8481106152c2575050816000526022602052604060002060018060a01b03821660005260205260ff6040600020541615615224575b60018060a01b031680600052602960205260406000208260005260205260ff60406000205416156151e3575b50600b5481036151c757506151c290601754613894565b601755565b60005260146020526151df6040600020918254613894565b9055565b8060005260296020526040600020826000526020526040600020600160ff19825416179055600052602860205261521e81604060002061510e565b386151ab565b60008281526023602052604090208054600160401b8110156137cb5761524f9160018201815561369c565b81549060031b9060018060a01b038416821b9160018060a01b03901b1916179055816000526022602052604060002060018060a01b0382166000526020526040600020600160ff1982541617905581600052601f6020526008604060002001805490600182018092116138a1575561517f565b6152d56152d0828785614fe6565b614ff6565b60005b6006811061537d5750508061533d6152f9614d9d6152d06001958a88614fe6565b60185460405191615309836137b0565b858060a01b03881683526020830152604082015260006060820152600060808201528660005260208052604060002061503c565b846000526021602052615369604080600020600090858060a01b0388168252602052206018549061510e565b615374601854613c59565b6018550161514a565b600160ff61538b8385615583565b5116101580615454575b1561541957600181018082116138a1575b600681106153b757506001016152d8565b60ff6153c38385615583565b511660ff6153d18386615583565b5116146153e0576001016153a6565b60405162461bcd60e51b81526020600482015260116024820152704475706c6963617465206e756d6265727360781b6044820152606490fd5b60405162461bcd60e51b81526020600482015260136024820152724e756d626572206f7574206f662072616e676560681b6044820152606490fd5b50603760ff6154638385615583565b51161115615395565b614fe1613c3e939261549360405194859263a9059cbb60e01b602085015260248401613b12565b03601f198101845283613818565b601a5480156155315760207f605c5b4f4308c1e42a024db1dc59389917ccc2058e83a1f6b672d8d60d12d7e1916000601a5561552860405163a9059cbb60e01b8482015261dead602482015282604482015260448152615502606482613818565b7f00000000000000000000000000000000000000000000000000000000000000006157c3565b604051908152a1565b50565b80156155315761554690601a54613894565b80601a55601954111561555557565b613c3e6154a1565b9060388110156136b45760051b0190565b91606093918352602083015260408201520190565b9060068110156136b45760051b0190565b9060078110156136b45760051b0190565b81518155602082015160018201556040820151600282015560608201516003820155608090910151805191600401906001600160401b0383116137cb57600160401b83116137cb57815483835580841061562b575b5060200190600052602060002060005b8381106156175750505050565b60019060208451940193818401550161560a565b8260005283602060002091820191015b81811061564857506155fa565b6000815560010161563b565b91906150f857613c3e916155a5565b60105480156157bf5760508102908082046050036138a1576156aa60647f7be8c315110e2da6c51053142fa83bf10ee1aedeaef5bfce79c3c7d76b0ae3a593048092613b67565b83600052601f60205260236040600020016156c6838254613894565b905583600052601f602052601e6040600020016156e4828254613894565b905583600052601f602052602460406000200154615786575b83600052601f602052601f6040600020015461574d575b83600052601f6020526028604060002001600160ff1982541617905561574360105491604051938493846136ca565b0390a26000601055565b6000848152601f60208190526040909120601e81015491015461576f91613a0a565b84600052601f602052602060406000200155615714565b6000848152601f6020526040902060238101546024909101546157a891613a0a565b84600052601f6020526025604060002001556156fd565b5050565b906000602091828151910182855af11561581e576000513d61581557506001600160a01b0381163b155b6157f45750565b635274afe760e01b60009081526001600160a01b0391909116600452602490fd5b600114156157ed565b6040513d6000823e3d90fd5b60c06040516158398282613818565b369037600560005b81811061584d57505090565b90919260005b61585d8385613b67565b8110156158d85760ff6158708287615583565b511690600181018082116138a15760019260ff61588d838a615583565b51161061589c575b5001615853565b60006158c660ff6158ad848b615583565b51169260ff6158bc868c615583565b5116925089615583565b526158d18288615583565b5238615895565b50929190600101615841565b60005b600681106158f6575050600190565b60ff6159028284615583565b5116615910576001016158e7565b505060009056fe400f6e85f92319bae9eb34d274967789e5febf76211951392da486e917c4cdcb8be0079c531659141344cd1fd0a4f28419497f9722a3daafe3b4186f6b6457e0e6c59f5a592e6b8bc9f9531fb60a628be44498cfef9790c8ab07f6bb5c2d47587472e24de4628e34b41a2aa1688ed4b46a9145b2de1cf93d74902473ccc1740da26469706673582212208e8b4ded64790806b5dfa71640600a7679f475a04f09aab746f7b48e1843f1c364736f6c634300081c0033",
  "linkReferences": {},
  "deployedLinkReferences": {}
}